:020000040800F2
:10000000E8090020250D0008950D0008950D000851
:10001000950D0008950D0008950D000800000000E2
:10002000000000000000000000000000950D000826
:10003000950D000800000000950D0008950D0008C2
:10004000950D0008950D0008950D0008950D000808
:10005000950D0008950D0008950D0008950D0008F8
:10006000950D0008950D0008950D0008950D0008E8
:10007000950D0008950D0008950D0008950D0008D8
:10008000950D0008950D0008950D0008950D0008C8
:10009000950D0008950D0008950D0008950D0008B8
:1000A000950D0008A1170008950D0008950D000892
:1000B0004D19000841080008950D0008950D00082D
:1000C000950D0008950D0008950D0008950D000888
:1000D000950D0008950D0008912E0008950D00085B
:1000E00059180008950D0008950D00080000000043
:1000F0000000000000000000000000000000000000
:1001000000000000000000005FF808F180B400AFBC
:1001100040F2AC43C2F200034FF07E521A6040F24C
:10012000AC43C2F200034CF6CD42C3F64C525A60C7
:1001300040F2AC43C2F200034CF6CD42C3F6CC52BF
:100140009A6040F2AC43C2F200034FF07E525A6113
:1001500040F2AC43C2F200034CF6CD42C3F64C521F
:100160009A6140F2AC43C2F200034CF6CD42C3F6B2
:10017000CC52DA6140F24443C2F200034FF0640211
:100180001A6040F21C53C2F200034FF000021A60E2
:1001900040F21C53C2F200034FF000025A6040F2DA
:1001A0001C53C2F200034FF000029A60BD4680BCAF
:1001B000704700BF90B585B000AF01F015FE40F26A
:1001C000A044C2F200043B46184642F65F11C3F653
:1001D0004B3100F031F923463A4607CA83E807005D
:1001E00040F2F043C2F200031B68B3F5087F1BDD49
:1001F00040F24843C2F200031B78FF2B14D140F2B7
:10020000F043C2F200031B68A3F5E1734FEA430217
:1002100040F24443C2F200031A6042F65F10C3F694
:100220004B3000F01DF817E04FF001004FF00001D7
:1002300001F03EFC4FF002004FF0000101F038FCED
:100240004FF003004FF0000101F032FC4FF00400CA
:100250004FF0000101F02CFC07F11407BD4690BDE2
:10026000B0B58AB000AF786040F21C53C2F2000310
:100270001A6840F2A043C2F200031B6810461946F8
:1002800003F0EEFE03463B6240F2AC43C2F20003D1
:100290001B691846396A03F0E5FE03461A4640F228
:1002A000AC43C2F200031A6140F2AC43C2F2000355
:1002B0001B681846396A03F0DDFF03461C4640F20E
:1002C000AC43C2F200039D6840F21053C2F2000337
:1002D0001B881BB2184603F079FF024640F2105308
:1002E000C2F200039B681046194603F0C3FF0346A1
:1002F0002846194603F0BEFF03462046194603F080
:10030000AFFE03461C4640F2AC43C2F200035A68FB
:1003100040F2AC43C2F200031B691046194603F0D9
:10032000A9FF03462046194603F09CFE0346FB61E5
:1003300040F2AC43C2F200033A6ADA6040F244434E
:10034000C2F200031B68FB6040F24443C2F20003A8
:100350001B683B6140F24443C2F200031B687B61AF
:1003600040F24443C2F200031B68BB61FC68F869B9
:1003700004F0D0F80346E31AFB603C69F86904F026
:10038000C9F80346E31A3B617C69F86904F0C2F8D6
:100390000346E3187B61BC69F86904F0BBF80346C7
:1003A000E318BB614FF000037B623CE07B6A4FEADD
:1003B000830307F12801CB1853F81C3CB3F57A7F6F
:1003C0000ADD7B6A4FEA830307F12802D3184FF452
:1003D0007A7243F81C2C13E07B6A4FEA830307F11F
:1003E0002801CB1853F81C3C632B09DC7B6A4FEACD
:1003F000830307F12802D3184FF0640243F81C2C42
:100400007B6A03F101027B6A4FEA830307F128014B
:10041000CB1853F81C3C1046194601F049FB7B6A87
:1004200003F101037B627B6A032BBFDD07F1280721
:10043000BD46B0BD0000000080B58EB000AF786052
:10044000396040F29443C2F200031B881BB2184685
:1004500003F0BCFE024640F29443C2F200039B68E4
:100460001046194603F006FF03467B6340F29443AF
:10047000C2F200035B881BB2184603F0A7FE0246D7
:1004800040F29443C2F200039B681046194603F001
:10049000F1FE03463B6340F29443C2F200039B88A3
:1004A0001BB2184603F092FE024640F29443C2F299
:1004B00000039B681046194603F0DCFE0346FB620E
:1004C000386B396B03F0D6FE0346BB62786B796BF1
:1004D00003F0D0FE03467B62F86AF96A03F0CAFEB5
:1004E00003463B62786A396A03F0BCFD034618464E
:1004F00003F074FA02460B461046194602F07CFFE0
:1005000002460B461046194603F056FD0346FB61B2
:10051000386BF96903F062FF0346FB61F86903F089
:100520005DFA02460B461046194602F0ADFD024642
:100530000B46104619464FF000024FF40043C4F238
:10054000660303F09FFA02460B46104619464AA37B
:10055000D3E9002303F0C0FB02460B4610461946C0
:1005600003F02AFD0346BB6140F21053C2F20003C0
:100570001B881BB2184603F029FE024640F21053B6
:10058000C2F200039B681046194603F073FE03464F
:10059000B86919463A684FF0000300F071F8034655
:1005A000FB60B86A396A03F05DFD0346184603F044
:1005B00015FA02460B461046194602F01DFF024688
:1005C0000B461046194603F0F7FC0346FB61786BB7
:1005D000F96903F003FF0346FB61F86903F0FEF9D4
:1005E00002460B461046194602F04EFD02460B46E7
:1005F000104619464FF000024FF40043C4F2660360
:1006000003F040FA02460B46104619461AA3D3E9F6
:10061000002303F061FB02460B461046194603F027
:10062000CBFC0346BB6140F21053C2F200035B886F
:100630001BB2184603F0CAFD024640F21053C2F244
:1006400000039B681046194603F014FE0346B86980
:1006500019463A684FF0010300F012F803463B6177
:100660007B6807F10C0207CA83E80700786807F186
:100670003807BD4680BD00BFF1D4C853FB210940F7
:1006800090B589B000AFF860B9607A603B6049F618
:100690009A13C3F69963FB6140F25043C2F2000320
:1006A0003A6853F82230F868194603F0D9FC03463B
:1006B0001846194603F0D6FC03461846F96903F0BC
:1006C000D9FD0346BB6140F25C43C2F200033A68C5
:1006D00053F8224040F25043C2F200033A6853F804
:1006E0002230F868194603F0BBFC03461846F96946
:1006F00003F0C0FD03461846F96903F0BBFD03464D
:100700001846796803F0B6FD03462046194603F003
:10071000A9FC0346194640F25C43C2F200033A6862
:1007200043F8221040F25C43C2F200033A6853F8E7
:1007300022301846B96903F095FC03461846B9689B
:1007400003F090FC03467B6140F25043C2F2000389
:100750003A6853F822407869796803F08BFD0346C4
:100760002046194603F07EFC0346194640F25043EA
:10077000C2F200033A6843F8221040F25043C2F23A
:1007800000033A6853F82230184607F12407BD46A3
:1007900090BD00BF80B483B000AF0346FB714FF43F
:1007A0006143CEF2000397F907204FEA5212F9791C
:1007B00001F01F014FF0010000FA01F143F822108F
:1007C00007F10C07BD4680BC704700BF80B500AF85
:1007D0004FF48063C4F200034FF078021A854FF49F
:1007E0008063C4F200034FF47A729A854FF48063F9
:1007F000C4F200034FF00002A3F840204FF48063DE
:10080000C4F200034FF4C0429A834FF48063C4F2F1
:1008100000034FF480521A844FF48063C4F2000343
:100820004FF001029A814FF48063C4F200034FF04D
:1008300001021A804FF01D00FFF7ACFF80BD00BF22
:1008400080B400AF4FF48063C4F200031B8A9BB2F4
:1008500003F00103002B00F08A804FF48063C4F2A0
:1008600000034FF48062C4F20002128A92B222F0B6
:10087000010292B21A8240F26C43C2F200031B687A
:10088000022B41D140F26843C2F200031B684FF4CF
:10089000967202FB03F240F27C43C2F200031B6833
:1008A00092FBF3F240F27443C2F200031B689A42D7
:1008B0001EDA4FF48063C4F200034FF48062C4F286
:1008C0000002B2F8402092B2002A06D140F27842EB
:1008D000C2F20002126892B201E04FF00002A3F8E7
:1008E000402040F27443C2F200034FF000021A604D
:1008F00040F27443C2F200031B6803F1010240F2AC
:100900007443C2F200031A6040F26843C2F200036B
:100910001B684FF4967202FB03F240F27043C2F27E
:1009200000031B689A4216DA4FF48063C4F2000396
:100930004FF00002A3F840204FF48063C4F200039C
:100940004FF48062C4F20002128892B222F00102D7
:1009500092B21A800BE040F27043C2F200031B68AF
:1009600003F1010240F27043C2F200031A60BD4677
:1009700080BC704780B489B000AFF860B9607A601D
:100980003B604FF42243C0F24A43FB614FF454539F
:10099000C0F20C03BB61FB687B6140F26C43C2F2A6
:1009A0000003BA681A6040F26843C2F200037A6832
:1009B0001A6040F27043C2F200034FF000021A6066
:1009C0003B684FEA430240F27C43C2F200031A60E4
:1009D00040F27443C2F200034FF000021A60BB6899
:1009E000002B16D14FF48063C4F200034FF00002D5
:1009F000A3F840204FF48063C4F200034FF48062F8
:100A0000C4F20002128892B222F0010292B21A805D
:100A100043E04FF48063C4F20003F969BA69B1FBA3
:100A2000F2F292B202F1FF3292B21A854FF4806371
:100A3000C4F20003B9697A69B1FBF2F292B202F131
:100A4000FF3292B29A854FF48063C4F20003B96911
:100A50007A69B1FBF2F202F1FF324FEA520292B22E
:100A6000A3F840204FF48063C4F20003B3F8403091
:100A70009BB21A4640F27843C2F200031A604FF468
:100A80008063C4F200034FF48062C4F20002128853
:100A900092B242F0010292B21A8007F12407BD46D9
:100AA00080BC704780B400AF00BF4FF48063C4F2D5
:100AB00000031B889BB203F00103002BF5D1BD4658
:100AC00080BC704780B500AF4FF48053C4F202037E
:100AD0004FF48052C4F20202126842F001021A601E
:100AE0004FF48052C4F202024FF48053C4F2020366
:100AF00059684FF00003CFF6FF030B4053604FF4EB
:100B00008053C4F202034FF48052C4F2020212680E
:100B100022F0847222F480321A604FF48053C4F2BF
:100B200002034FF48052C4F20202126822F48022BF
:100B30001A604FF48053C4F202034FF48052C4F29F
:100B40000202526822F4FE025A604FF48053C4F24B
:100B500002034FF41F029A6000F008F84FF46D434F
:100B6000CEF200034FF000629A6080BD80B500AF06
:100B700000F002F880BD00BF80B483B000AF4FF03A
:100B800000037B604FF000033B604FF48053C4F2DE
:100B900002034FF48052C4F20202126842F480321F
:100BA0001A604FF48053C4F202031B6803F400334D
:100BB0003B607B6803F101037B603B68002B03D142
:100BC0007B68B3F5A06FECD14FF48053C4F20203FD
:100BD0001B6803F40033002B03D04FF001033B608C
:100BE00002E04FF000033B603B68012B40F0948033
:100BF0004FF40053C4F202034FF40052C4F2020255
:100C0000126842F010021A604FF40053C4F202035B
:100C10004FF40052C4F20202126822F003021A607A
:100C20004FF40053C4F202034FF40052C4F2020224
:100C3000126842F002021A604FF48053C4F20203B9
:100C40004FF48052C4F2020252685A604FF480534B
:100C5000C4F202034FF48052C4F2020252685A6096
:100C60004FF48053C4F202034FF48052C4F20202E4
:100C7000526842F480625A604FF48053C4F2020317
:100C80004FF48052C4F20202526822F47C125A607D
:100C90004FF48053C4F202034FF48052C4F20202B4
:100CA000526842F4E8125A604FF48053C4F20203CF
:100CB0004FF48052C4F20202126842F080721A604D
:100CC00000BF4FF48053C4F202031B6803F00073AB
:100CD000002BF6D04FF48053C4F202034FF480523D
:100CE000C4F20202526822F003025A604FF48053A9
:100CF000C4F202034FF48052C4F20202526842F07E
:100D000002025A6000BF4FF48053C4F202035B68D2
:100D100003F00C03082BF6D107F10C07BD4680BC8D
:100D2000704700BF80B582B000AF44F2D053C0F628
:100D300000037B6040F20003C2F200033B600BE063
:100D40007B681A683B681A603B6803F104033B60E8
:100D50007B6803F104037B603A6840F24443C2F2CB
:100D600000039A42ECD3094809494FF00002884237
:100D7000B8BF40F8042BFFF6FAAFFFF7A3FE00F070
:100D80000DF807F10807BD4680BD000044040020AF
:100D9000E405002080B400AFFEE700BF80B582B05C
:100DA00000AF4FF000037B6003E07B6803F10103B9
:100DB0007B607A684AF21F13C0F207039A42F4DD9F
:100DC00000F042F800F0A6FD00F0CAF800F02AFE9C
:100DD00040F28C43C2F200034FF000021A6000F0B0
:100DE000A9FE40F28C43C2F200031B68002BEFD136
:100DF000FFF7ECFC01F01EFB01F0ACFB00F086FC01
:100E0000FFF784F94FF47A704FF002014FF00102BE
:100E10004FF00203FFF7AEFDFFF744FE4FF4FA7008
:100E20004FF002014FF001024FF00303FFF7A2FD64
:100E3000FFF738FE44F26C50C0F6000001F0BCFB36
:100E4000FFF7B8F9FCE700BF80B400AF4FF4805360
:100E5000C4F202034FF480321A6000BF4FF4805393
:100E6000C4F202031B6803F40033002BF6D04FF4E6
:100E70000053C4F202034FF40052C4F2020212689B
:100E800042F002021A604FF48053C4F202034FF49E
:100E90008052C4F20202126842F400221A604FF437
:100EA0008053C4F202034FF44442C0F21D025A6060
:100EB0004FF48053C4F202034FF48052C4F2020292
:100EC000126842F080721A6000BF4FF48053C4F27F
:100ED00002031B6803F00073002BF6D04FF480531D
:100EE000C4F202034FF48052C4F20202526842F08C
:100EF00002025A6000BF4FF48053C4F202035B68E1
:100F000003F00803002BF6D04FF48053C4F2020321
:100F10004FF48052C4F20202D26942F4840242F0D9
:100F20000702DA614FF48053C4F202034FF4805297
:100F3000C4F20202926942F4D05242F01D029A6158
:100F40004FF48053C4F202034FF48052C4F2020201
:100F5000526942F001025A61BD4680BC704700BF31
:100F600080B400AF4FF40062C4F201024FF400639A
:100F7000C4F20103196843F23F33C3F233330B4029
:100F800013604FF40062C4F201024FF40063C4F234
:100F90000103196848F63033CBF6B3330B431360C3
:100FA0004FF44063C4F201034FF44062C4F2010203
:100FB000126822F04C4222F0CC021A604FF44063D7
:100FC000C4F201034FF44062C4F20102126842F01D
:100FD0003B4242F030021A604FF44062C4F2010218
:100FE0004FF44063C4F2010359684FF63373CFF2F4
:100FF00033330B4053604FF44062C4F201024FF4AC
:101000004063C4F2010359684FF6BB73C0F2333337
:101010000B4353604FF48053C4F201034FF48052EA
:10102000C4F20102126842F44C5242F030021A60DB
:101030004FF48053C4F201034FF48052C4F2010212
:10104000126822F44C4222F0C0021A604FF480531E
:10105000C4F201034FF48052C4F20102526822F438
:1010600040025A604FF48053C4F201034FF480529F
:10107000C4F20102526842F400025A604FF48053F5
:10108000C4F201034FF48052C4F20102D26842F468
:101090000052DA60BD4680BC704700BF80B483B0A8
:1010A00000AF78600B46FB707B68FA781A704FF0DF
:1010B0000103184607F10C07BD4680BC704700BF0E
:1010C00080B485B000AF786039604FF00003FB60FA
:1010D0000FE03B681A787B681A707B6803F10103A4
:1010E0007B603B6803F101033B60FB6803F1010394
:1010F000FB603B681B78002BEBD1FB68184607F1BF
:101100001407BD4680BC704780B586B000AFF8605C
:101110007A603B600B46FB724FF000037B617B689B
:1011200003F1FF337B603B68092B25D93A684CF605
:10113000CD43CCF6CC43A3FB02134FEAD303FA7A98
:10114000F86811467A68FFF7DFFF78617B69FA6813
:10115000D318FB6013E0FB7AF8681946FFF79EFF8F
:10116000FB6803F10103FB607B6903F101037B6111
:101170007B6803F1FF337B607B68002BEBDC396815
:101180004CF6CD43CCF6CC43A3FB01234FEAD3026C
:1011900013464FEA83039B184FEA4303CA1AD3B29C
:1011A00003F13003DBB2F8681946FFF777FF034617
:1011B0007A69D3187B617B69184607F11807BD4629
:1011C00080BD00BF80B586B000AFF8607A603B603C
:1011D0000B46FB724FF000037B613B68002B04DA87
:1011E0003B68C3F100033B6101E03B683B617B6806
:1011F00003F1FF337B603B69092B2AD93B68002B45
:1012000012DA3A694CF6CD43CCF6CC43A3FB021379
:101210004FEAD303C3F10003FA7AF86811467A68FB
:10122000FFF7D0FF78610FE03A694CF6CD43CCF67A
:10123000CC43A3FB02134FEAD303FA7AF8681146B2
:101240007A68FFF7BFFF78617B69FA68D318FB60A3
:101250002BE03B68002B15DA7B6803F1FF337B60E2
:1012600010E0FB7AF8681946FFF718FFFB6803F1F6
:101270000103FB607B6903F101037B617B6803F180
:10128000FF337B607B68002BEBDC3B68002B0CDAC8
:10129000F8684FF02D01FFF701FF03467A69D31874
:1012A0007B61FB6803F10103FB6039694CF6CD43B8
:1012B000CCF6CC43A3FB01234FEAD30213464FEAFB
:1012C00083039B184FEA4303CA1AD3B203F13003D6
:1012D000DBB2F8681946FFF7E1FE03467A69D318D6
:1012E0007B617B69184607F11807BD4680BD00BFCA
:1012F00080B588B002AFF8607A600A46FA72BB72B5
:101300004FF000037B617B6803F1FF337B603B6A36
:101310004FEA1313002B24D03B6A4FEA1311FA7AD9
:10132000BB7A0091F86811467A68FFF7E1FF03463F
:101330007A69D3187B617B69FA68D318FB6013E084
:10134000FB7AF8681946FFF7A9FEFB6803F1010371
:10135000FB607B6903F101037B617B6803F1FF3371
:101360007B607B68002BEBDC3B6A03F00F03092BEF
:101370000CD83B6ADBB203F00F03DBB203F130039E
:10138000DBB2F8681946FFF789FE1BE0BB7A002B39
:101390000CD03B6ADBB203F00F03DBB203F137037F
:1013A000DBB2F8681946FFF779FE0BE03B6ADBB267
:1013B00003F00F03DBB203F15703DBB2F868194601
:1013C000FFF76CFE7B6903F101037B617B691846C3
:1013D00007F11807BD4680BD80B58AB002AFF8603E
:1013E000B9607A603B604FF00003BB614FF00003CF
:1013F0007B61FB68002B00F01C81FB684FF0000252
:101400001A7016E17B681B78252B10D07B681A7840
:10141000FB681A70FB6803F10103FB607B6803F152
:1014200001037B607B6903F101037B6102E17B685F
:1014300003F101031B78252B10D1FB684FF0250227
:101440001A70FB6803F10103FB607B6803F1020380
:101450007B607B6903F101037B61EBE04FF02003CC
:10146000FB774FF00003BB777B6803F101037B60E0
:101470007B681B78302B1BD14FF03003FB777B68E8
:1014800003F101037B6013E0BB7F1A464FEA82023F
:10149000D3184FEA4303DAB27B681B78D318DBB268
:1014A000A3F13003BB777B6803F101037B6000E0AD
:1014B00000BF7B681B782F2B03D97B681B78392BE7
:1014C000E2D9BA7F7B69D3181A46BB689A4205D91C
:1014D000BB68DAB27B69DBB2D31ABB777B681B7857
:1014E000A3F15803202B00F2948001A252F823F0BC
:1014F000C515000813160008131600081316000877
:101500001316000813160008131600081316000817
:10151000131600081316000813160008FB15000820
:101520007515000813160008131600081316000896
:101530001316000875150008131600081316000886
:1015400013160008131600081316000813160008D7
:10155000131600081316000813160008E5150008F6
:10156000131600088D15000813160008131600083E
:10157000A5150008BA7F3B6803F1040139601B68B8
:10158000F97FF868FFF71EFEB86145E0BA7F3B6857
:1015900003F1040139601B68F97FF868FFF7B4FDB7
:1015A000B86139E0BA7F3B6803F10401396019681A
:1015B000FB7F0091F86819464FF00003FFF798FE93
:1015C000B86129E0BA7F3B6803F10401396019680A
:1015D000FB7F0091F86819464FF00103FFF788FE82
:1015E000B86119E03B6803F104023A601B68F868CF
:1015F0001946FFF765FDB8610EE03B6803F1040290
:101600003A601B68DBB2F8681946FFF747FDB8611E
:1016100002E04FF0FF332CE07B6803F101037B60B5
:10162000BB69FA68D318FB607A69BB69D3187B6120
:1016300000E000BF7B681B78002B04D07A69BB6890
:101640009A42FFF4DFAE7A69BB689A4204D2FB6823
:101650004FF000021A700BE0FB6803F1FF33FB60F0
:10166000FB684FF000021A707B6903F1FF337B6166
:101670007B69184607F12007BD4680BD80B584B060
:1016800000AFF860B9607A60F8684FF06401BA683A
:101690007B68FFF7A1FE0346184607F11007BD4619
:1016A00080BD00BF0EB480B585B000AF786007F193
:1016B0002003BB607868F969BA68FFF7DFFFF8605C
:1016C000FB68184607F11407BD46BDE8804003B02B
:1016D000704700BF80B483B000AF0346FB714FF486
:1016E0006143CEF2000397F907204FEA5212F979CD
:1016F00001F01F014FF0010000FA01F143F8221040
:1017000007F10C07BD4680BC704700BF80B500AF35
:1017100040F22C53C2F200034FF000021A604FF067
:101720000003C4F201034FF480525A614FF4806306
:10173000C4F201034FF400421A604FF48063C4F214
:1017400001034FF40042DA604FF48063C4F20103F6
:101750004FF400429A604FF02800FFF7BBFF4FF4B0
:101760003053C4F201034FF047021A854FF430534F
:10177000C4F201034FF001029A854FF43053C4F2D2
:1017800001034FF001029A814FF43053C4F2010378
:101790004FF001021A804FF01900FFF79BFF80BD48
:1017A00080B500AF4FF43053C4F201031B8A9BB2E3
:1017B00003F00103002B3CD000F03CF84FF44063F1
:1017C000C4F201039B6803F40043002B07D040F2EE
:1017D0008443C2F200034FF000021A600BE040F2B3
:1017E0008443C2F200031B6803F1010240F2844308
:1017F000C2F200031A6040F28443C2F200031A6886
:1018000047F230539A4206DD40F2F043C2F2000341
:101810004FF000021A604FF43053C4F201034FF44A
:101820003052C4F20102128A92B222F0010292B244
:101830001A8280BD80B400AF40F22C53C2F2000384
:101840001B6803F1010240F22C53C2F200031A603C
:10185000BD4680BC704700BF80B483B000AF4FF07E
:1018600000037B604FF48063C4F201035B6903F4FF
:101870000043002B2DD04FF44063C4F201039B685A
:1018800003F40043002B0ED040F22C53C2F20003AD
:101890001B68002B07DD40F22C53C2F200034FF00F
:1018A00000021A6009E040F22C53C2F200031A68E9
:1018B00040F2F043C2F200031A604FF48063C4F2B6
:1018C00001034FF48062C4F20102526942F4004203
:1018D0005A6107F10C07BD4680BC704780B483B0E5
:1018E00000AF0346FB714FF46143CEF2000397F95A
:1018F00007204FEA5212F97901F01F014FF0010061
:1019000000FA01F143F8221007F10C07BD4680BC34
:10191000704700BF80B500AF4FF080434FF08C029E
:101920001A854FF080434FF6FF729A854FF080433F
:101930004FF001029A814FF080434FF001021A806C
:101940004FF01C00FFF7CAFF80BD00BF80B400AF9E
:101950004FF080431B8A9BB203F00103002B5ED043
:101960004FF080434FF08042128A92B222F001027F
:1019700092B21A824FF48053C4F201034FF48052A2
:10198000C4F20102D26882F00802DA6040F28843B1
:10199000C2F200031A6840F23043C2F2000353F867
:1019A00022304FF001021A6040F28843C2F2000375
:1019B0001B68002B10DD40F28843C2F200031B6855
:1019C00003F1FF3240F23043C2F2000353F82230F9
:1019D0004FF000021A6007E040F23043C2F2000309
:1019E000DB684FF000021A6040F28843C2F2000345
:1019F0001B68032B07D140F28843C2F200034FF06B
:101A000000021A600BE040F28843C2F200031B6838
:101A100003F1010240F28843C2F200031A60BD469E
:101A200080BC704780B500AF4FF40063C4F2000380
:101A30004FF010021A854FF40063C4F200034FF414
:101A40007A629A854FF40063C4F2000346F26002A2
:101A50001A834FF40063C4F2000346F260029A83D3
:101A60004FF40063C4F2000341F211121A844FF4E0
:101A70000063C4F200034FF001021A804FF001002E
:101A80004FF0000100F014F84FF002004FF0000199
:101A900000F00EF84FF003004FF0000100F008F8DE
:101AA0004FF004004FF0000100F002F880BD00BFCD
:101AB00080B483B000AF786039603A6840F6FF23A5
:101AC0009A4231D87B6803F1FF33032B2DD801A252
:101AD00052F823F0E51A0008F51A0008051B000863
:101AE000151B00084FF40063C4F200033A6892B279
:101AF0009A861AE04FF40063C4F200033A6892B287
:101B00001A8712E04FF40063C4F200033A6892B2FD
:101B10009A870AE04FF40063C4F200033A6892B275
:101B2000A3F8402000BF00E000BF07F10C07BD464E
:101B300080BC704780B500AF00F0F8F840F2105359
:101B4000C2F200034FF0D4029A7140F21053C2F275
:101B5000000345F62942C3F68F529A6040F294433F
:101B6000C2F200034FF030029A7140F29443C2F285
:101B7000000341F26F22C3F683129A6040F2E843F9
:101B8000C2F200034FF01C029A7140F29443C2F279
:101B900000039B7918464FF020014FF0970200F0A8
:101BA00029FA40F29443C2F200039B7918464FF0A1
:101BB00021014FF0000200F01DFA40F29443C2F2FE
:101BC00000039B7918464FF022014FF0080200F005
:101BD00011FA40F29443C2F200039B7918464FF089
:101BE00023014FF0280200F005FA40F29443C2F2BC
:101BF00000039B7918464FF024014FF0400200F09B
:101C0000F9F940F21053C2F200039B7918464FF0E5
:101C100020014FF00F0200F0EDF940F21053C2F234
:101C200000039B7918464FF021014FF0000200F0AD
:101C3000E1F940F21053C2F200039B7918464FF0CD
:101C400022014FF0000200F0D5F940F21053C2F229
:101C500000039B7918464FF023014FF0200200F05B
:101C6000C9F940F21053C2F200039B7918464FF0B5
:101C700024014FF0000200F0BDF940F2E843C2F247
:101C800000039B7918464FF011014FF0800200F0DD
:101C9000B1F940F2E843C2F200039B7918464FF0D5
:101CA00010014FF0010200F0A5F980BD80B400AF33
:101CB0004FF4B043C4F200039B8A9BB203F480420A
:101CC0004FF4B043C4F200039B8A9BB203F48053E9
:101CD0001A434FF4B043C4F200039B8A9BB203F44F
:101CE00080631A434FF4B043C4F200039B8A9BB253
:101CF00003F400731A434FF4B043C4F200039B8A09
:101D00009BB203F480731343002B09D040F28C4341
:101D1000C2F200034FF001021A604FF0010301E02C
:101D20004FF000031846BD4680BC704780B400AF3A
:101D30004FF4B043C4F200034FF4B042C4F20002C7
:101D4000128892B222F0010292B21A804FF4B0438C
:101D5000C4F200034FF4B042C4F20002128892B2FF
:101D60006FEA42426FEA524292B21A804FF4B04395
:101D7000C4F200034FF4B042C4F20002128892B2DF
:101D80004FEA42424FEA524292B21A804FF4B043B5
:101D9000C4F200034FF025021A844FF4B043C4F29A
:101DA00000034FF01E029A834FF4B043C4F20003C5
:101DB0004FF4B042C4F20002928892B242F0240280
:101DC00092B29A804FF4B043C4F200034FF4B04291
:101DD000C4F20002128892B242F0010292B21A805A
:101DE000BD4680BC704700BF98B500AF40F2944339
:101DF000C2F200039B7918464FF0290100F0D8F990
:101E000003464FEA03239AB240F29443C2F200031E
:101E10001A8040F29443C2F200031C8840F29443BB
:101E2000C2F200039B7918464FF0280100F0C0F978
:101E30000346224613439AB240F29443C2F200038F
:101E40001A8040F29443C2F200039B7918464FF087
:101E50002B0100F0ADF903464FEA03239AB240F29A
:101E60009443C2F200035A8040F29443C2F200034A
:101E70005C8840F29443C2F200039B7918464FF00D
:101E80002A0100F095F90346224613439AB240F224
:101E90009443C2F200035A8040F29443C2F200031A
:101EA0009B7918464FF02D0100F082F903464FEA66
:101EB00003239AB240F29443C2F200039A8040F2A4
:101EC0009443C2F200039C8840F29443C2F20003A0
:101ED0009B7918464FF02C0100F06AF90346224620
:101EE00013439AB240F29443C2F200039A8040F244
:101EF0001053C2F200039B7918464FF0290100F0FD
:101F000057F903464FEA03239AB240F21053C2F244
:101F100000031A8040F21053C2F200031C8840F202
:101F20001053C2F200039B7918464FF0280100F0CD
:101F30003FF90346224613439AB240F21053C2F2CD
:101F400000031A8040F21053C2F200039B79184636
:101F50004FF02B0100F02CF903464FEA03239AB20D
:101F600040F21053C2F200035A8040F21053C2F202
:101F700000035C8840F21053C2F200039B791846BC
:101F80004FF02A0100F014F90346224613439AB297
:101F900040F21053C2F200035A8040F21053C2F2D2
:101FA00000039B7918464FF02D0100F001F903461C
:101FB0004FEA03239AB240F21053C2F200039A8010
:101FC00040F21053C2F200039C8840F21053C2F258
:101FD00000039B7918464FF02C0100F0E9F8034606
:101FE000224613439AB240F21053C2F200039A8081
:101FF00098BD00BF80B584B000AF13460246FA71A9
:102000000A46BA717B71BB793B737B797B73FA7932
:1020100007F10C03104619464FF0020200F004F8D5
:1020200007F11007BD4680BD80B586B000AF0346FE
:10203000B9607A60FB7307E0FFF738FE0346002BB8
:1020400002D0FFF773FEAFE04FF4B043C4F20003D9
:102050001B8B9BB203F00203002BEDD14FF4B04376
:10206000C4F200034FF4B042C4F20002128892B2EC
:1020700042F4807292B21A8007E0FFF717FE03461F
:10208000002B02D0FFF752FE8EE04FF4B043C4F2B3
:1020900000039B8A9BB203F00103002BEDD04FF4A9
:1020A000B043C4F200039B8A9BB27B614FF4B04300
:1020B000C4F20003FA7B92B21A8207E0FFF7F6FD42
:1020C0000346002B02D0FFF731FE6DE04FF4B04322
:1020D000C4F200039B8A9BB203F00203002BEDD0F5
:1020E0004FF4B043C4F200039B8A9BB27B614FF470
:1020F000B043C4F200031B8B9BB27B611DE0FFF772
:10210000D5FD0346002B03D0FFF710FE4CE000BFC7
:102110004FF4B043C4F200039B8A9BB203F08003E8
:10212000002BECD04FF4B043C4F20003BA6812782D
:102130001A82BB6803F10103BB607B68002B0CBFF4
:1021400000230123DBB27A6802F1FF327A60002BB0
:10215000DDD107E0FFF7AAFD0346002B02D0FFF711
:10216000E5FD21E04FF4B043C4F200039B8A9BB22B
:1021700003F08003002BEDD04FF4B043C4F2000312
:102180009B8A9BB203F00403002BE3D04FF4B043CF
:10219000C4F200034FF4B042C4F20002128892B2BB
:1021A00042F4007292B21A8007F11807BD4680BD52
:1021B00080B584B000AF02460B46FA71BB71F97965
:1021C000BA7907F10C03084611461A464FF001038D
:1021D00000F006F83B7B184607F11007BD4680BDAE
:1021E00080B584B000AF3A600246FA710A46BA710F
:1021F0007B7107E0FFF75AFD0346002B02D0FFF783
:1022000095FD12E14FF4B043C4F200031B8B9BB267
:1022100003F00203002BEDD14FF4B043C4F20003EE
:102220004FF4B042C4F20002128892B242F48072BB
:1022300092B21A8007E0FFF739FD0346002B02D067
:10224000FFF774FDF1E04FF4B043C4F200039B8A42
:102250009BB203F00103002BEDD04FF4B043C4F266
:102260000003FA7992B21A8207E0FFF71FFD0346D6
:10227000002B02D0FFF75AFDD7E04FF4B043C4F271
:1022800000039B8A9BB203F00203002BEDD04FF4B6
:10229000B043C4F200031B8B9BB2FB6007E0FFF767
:1022A00005FD0346002B02D0FFF740FDBDE04FF4D3
:1022B000B043C4F200039B8A9BB203F08003002B5F
:1022C000EDD04FF4B043C4F20003BA7992B21A824F
:1022D00007E0FFF7EBFC0346002B02D0FFF726FDDB
:1022E000A3E04FF4B043C4F200039B8A9BB203F017
:1022F0000403002BEDD04FF4B043C4F200034FF4BD
:10230000B042C4F20002128892B242F4807292B2D9
:102310001A8007E0FFF7CAFC0346002B02D0FFF744
:1023200005FD82E04FF4B043C4F200039B8A9BB2E8
:1023300003F00103002BEDD04FF4B043C4F20003CF
:10234000FA7942F00102D2B21A8207E0FFF7AEFC3E
:102350000346002B02D0FFF7E9FC66E04FF4B043E0
:10236000C4F200039B8A9BB203F00203002BEDD062
:102370004FF4B043C4F200031B8B9BB2FB604FF4DD
:10238000B043C4F200034FF4B042C4F2000212881A
:1023900092B242F4806292B21A8035E07B79012BCE
:1023A00016D14FF4B043C4F200034FF4B042C4F26C
:1023B0000002128892B222F4806292B21A8007E080
:1023C000FFF774FC0346002B03D0FFF7AFFC2CE0B3
:1023D00000BF4FF4B043C4F200039B8A9BB203F0EA
:1023E0004003002BECD04FF4B043C4F200031B8A2F
:1023F0009BB2DAB23B681A703B6803F101033B60A1
:102400007B7903F1FF337B717B79002BC6D14FF4CD
:10241000B043C4F200034FF4B042C4F20002128889
:1024200092B242F4007292B21A8007F11007BD46D0
:1024300080BD00BF80B400AF4FF00803C4F20203B8
:102440004FF002025A604FF00803C4F2020342F256
:102450004C42C4F201029A604FF00803C4F2020336
:1024600040F22852C2F20002DA604FF00803C4F2D0
:1024700002034FF4B4621A604FF00803C4F202037F
:102480004FF00802C4F20202126842F001021A6020
:102490004FF41053C4F2010340F20312C0F2800261
:1024A0009A604FF41053C4F201034FF48012DA62C1
:1024B0004FF41053C4F201034FF488725A634FF47F
:1024C0001053C4F201034FF41052C4F20102126916
:1024D00042F0E0621A614FF41053C4F201034FF46A
:1024E0001052C4F20102D26842F4E012DA604FF4F2
:1024F0001053C4F201034FF480725A604FF410532A
:10250000C4F201034FF41052C4F20102926842F087
:1025100001029A60BD4680BC704700BF80B483B0A2
:1025200000AF0346FB714FF46143CEF2000397F90D
:1025300007204FEA5212F97901F01F014FF0010014
:1025400000FA01F143F8221007F10C07BD4680BCE8
:10255000704700BF80B500AF4FF48843C4F200035A
:102560004FF49C721A814FF48843C4F2000342F284
:102570002C029A814FF02600FFF7D0FF80BD00BFEC
:1025800080B483B000AF0346FB7100BF4FF48843B3
:10259000C4F200031B889BB203F08003002BF5D02C
:1025A0004FF48843C4F20003FA7992B29A8007F19B
:1025B0000C07BD4680BC704780B582B000AF786024
:1025C00008E07B681B781846FFF7DAFF7B6803F1A9
:1025D00001037B607B681B78002BF2D107F10807B1
:1025E000BD4680BD80B58AB000AF78600B46FB70F9
:1025F00007F10C03184644F28451C0F600017A68D2
:10260000FFF750F83862FA783B6A9A4211DD4FF0D2
:1026100000037B6207E04FF03000FFF7B1FF7B6AF9
:1026200003F101037B62FA783B6AD21A7B6A9A4211
:10263000F1DC07F10C031846FFF7BEFF07F128078E
:10264000BD4680BD80B485B000AF78600B46FB709E
:102650004FF00003FB60FB78DBB25BB203F1FF33AA
:10266000BB6036E07B681B785BB22F2B12DD7B688A
:102670001B785BB2392B0DDC7B681B785BB2A3F156
:102680003002BB684FEA830302FA03F2FB68D318F7
:10269000FB6016E07B681B785BB2402B11DD7B682A
:1026A0001B785BB2462B0CDC7B681B785BB2A3F11A
:1026B0003702BB684FEA830302FA03F2FB68D318C0
:1026C000FB607B6803F101037B60BB6803F1FF33B0
:1026D000BB60BB68002BC5DAFB68184607F114071E
:1026E000BD4680BC704700BF80B487B000AFF860C3
:1026F000B960FA71BB714FF000037B610EE07B693A
:10270000FA68D31897F906107A698A18B9688A188E
:1027100012781A707B6903F101037B6197F9072036
:102720007B699A42EBDC07F11C07BD4680BC704711
:1027300080B582B000AF40F24C53C2F200031B7868
:10274000FF2B40F09A8340F24C53C2F200035B78B7
:10275000A3F12003062B00F2908301A252F823F08C
:102760007D270008F9280008752A0008D32A0008E8
:102770007B2E00084F2C0008352E00083B461846DB
:1027800040F24C51C2F200014FF005024FF002033B
:10279000FFF7AAFF3B4618464FF00501FFF752FF2F
:1027A0000346184601F012FD034618464FF000019B
:1027B000C4F2C82101F012FE03461A4640F2AC43AF
:1027C000C2F200031A603B46184640F24C51C2F276
:1027D00000014FF005024FF00703FFF785FF3B466E
:1027E00018464FF00501FFF72DFF0346184601F08C
:1027F000EDFC034618464FF00001C4F2C82101F079
:10280000EDFD03461A4640F2AC43C2F200035A60A3
:102810003B46184640F24C51C2F200014FF005020F
:102820004FF00C03FFF760FF3B4618464FF00501E1
:10283000FFF708FF0346184601F0C8FC0346184698
:102840004FF00001C4F2C82101F0C8FD03461A464A
:1028500040F2AC43C2F200039A604FF0FF00FFF772
:102860008FFE4FF02000FFF78BFE40F2AC43C2F228
:1028700000031B6818464FF00001C4F2C82101F0A4
:10288000F9FC0346184601F045FE034618464FF092
:102890000501FFF7A7FE40F2AC43C2F200035B68FC
:1028A00018464FF00001C4F2C82101F0E3FC0346D2
:1028B000184601F02FFE034618464FF00501FFF7BA
:1028C00091FE40F2AC43C2F200039B6818464FF001
:1028D0000001C4F2C82101F0CDFC0346184601F006
:1028E00019FE034618464FF00501FFF77BFE4FF037
:1028F0000A00FFF745FEC0E23B46184640F24C5145
:10290000C2F200014FF005024FF00203FFF7ECFEA8
:102910003B4618464FF00501FFF794FE0346184664
:1029200001F054FC034618464FF00001C4F2C821E0
:1029300001F054FD03461A4640F2AC43C2F20003D4
:102940005A613B46184640F24C51C2F200014FF02A
:1029500005024FF00703FFF7C7FE3B4618464FF04E
:102960000501FFF76FFE0346184601F02FFC0346F2
:1029700018464FF00001C4F2C82101F02FFD0346B4
:102980001A4640F2AC43C2F200039A613B46184635
:1029900040F24C51C2F200014FF005024FF00C031F
:1029A000FFF7A2FE3B4618464FF00501FFF74AFE2F
:1029B0000346184601F00AFC034618464FF0000192
:1029C000C4F2C82101F00AFD03461A4640F2AC43A6
:1029D000C2F20003DA614FF0FF00FFF7D1FD4FF0C4
:1029E0002100FFF7CDFD40F2AC43C2F200035B696A
:1029F00018464FF00001C4F2C82101F03BFC034629
:102A0000184601F087FD034618464FF00501FFF711
:102A1000E9FD40F2AC43C2F200039B6918464FF057
:102A20000001C4F2C82101F025FC0346184601F05C
:102A300071FD034618464FF00501FFF7D3FD40F244
:102A4000AC43C2F20003DB6918464FF00001C4F248
:102A5000C82101F00FFC0346184601F05BFD034658
:102A600018464FF00501FFF7BDFD4FF00A00FFF7D4
:102A700087FD02E23B46184640F24C51C2F200018B
:102A80004FF005024FF00203FFF72EFE3B461846BB
:102A90004FF00501FFF7D6FD024640F24443C2F273
:102AA00000031A604FF0FF00FFF76AFD4FF02200AD
:102AB000FFF766FD40F24443C2F200031B6818466C
:102AC0004FF00501FFF78EFD4FF00A00FFF758FDAC
:102AD000D3E13B46184640F24C51C2F200014FF0A0
:102AE00008024FF00203FFF7FFFD3B4618464FF088
:102AF0000801FFF7A7FD0346184601F067FB0346F0
:102B000018464FF00001C4F2C82101F067FC0346EB
:102B10001A4640F21C53C2F200031A603B461846A4
:102B200040F24C51C2F200014FF008024FF00A038C
:102B3000FFF7DAFD3B4618464FF00801FFF782FD2C
:102B40000346184601F042FB034618464FF00001C9
:102B5000C4F2C82101F042FC03461A4640F21C535D
:102B6000C2F200035A603B46184640F24C51C2F292
:102B700000014FF008024FF01203FFF7B5FD3B468E
:102B800018464FF00801FFF75DFD0346184601F0B7
:102B90001DFB034618464FF00001C4F2C82101F0A6
:102BA0001DFC03461A4640F21C53C2F200039A6011
:102BB0004FF0FF00FFF7E4FC4FF02300FFF7E0FCCD
:102BC00040F21C53C2F200031B6818464FF000018C
:102BD000C4F2C82101F04EFB0346184601F09AFCEE
:102BE000034618464FF00801FFF7FCFC40F21C5367
:102BF000C2F200035B6818464FF00001C4F2C8211E
:102C000001F038FB0346184601F084FC03461846E1
:102C10004FF00801FFF7E6FC40F21C53C2F200033C
:102C20009B6818464FF00001C4F2C82101F022FB56
:102C30000346184601F06EFC034618464FF00801A3
:102C4000FFF7D0FC4FF00A00FFF79AFC15E14FF0B8
:102C5000FF00FFF795FC4FF02500FFF791FC40F2D5
:102C6000AC43C2F200031B6818464FF00001C4F2E7
:102C7000C82101F0FFFA0346184601F04BFC034659
:102C800018464FF00501FFF7ADFC40F2AC43C2F22D
:102C900000035B6818464FF00001C4F2C82101F040
:102CA000E9FA0346184601F035FC034618464FF092
:102CB0000501FFF797FC40F2AC43C2F200039B68AA
:102CC00018464FF00001C4F2C82101F0D3FA0346C0
:102CD000184601F01FFC034618464FF00501FFF7A8
:102CE00081FC40F2AC43C2F200035B6918464FF02E
:102CF0000001C4F2C82101F0BDFA0346184601F0F4
:102D000009FC034618464FF00501FFF76BFC40F243
:102D1000AC43C2F200039B6918464FF00001C4F2B5
:102D2000C82101F0A7FA0346184601F0F3FB034659
:102D300018464FF00501FFF755FC40F2AC43C2F2D4
:102D40000003DB6918464FF00001C4F2C82101F00E
:102D500091FA0346184601F0DDFB034618464FF092
:102D60000501FFF73FFC40F24443C2F200031B6839
:102D700018464FF00501FFF735FC40F22853C2F228
:102D800000031B889BB218464FF00501FFF72AFC91
:102D900040F22853C2F200035B889BB218464FF002
:102DA0000501FFF71FFC40F21C53C2F200031B6831
:102DB00018464FF00001C4F2C82101F05BFA034647
:102DC000184601F0A7FB034618464FF00801FFF72D
:102DD00009FC40F21C53C2F200035B6818464FF036
:102DE0000001C4F2C82101F045FA0346184601F07B
:102DF00091FB034618464FF00801FFF7F3FB40F242
:102E00001C53C2F200039B6818464FF00001C4F245
:102E1000C82101F02FFA0346184601F07BFB034658
:102E200018464FF00801FFF7DDFB4FF00A00FFF7EF
:102E3000A7FB22E04FF0FF00FFF7A2FB4FF02600B8
:102E4000FFF79EFB40F22853C2F200031B889BB29F
:102E500018464FF00501FFF7C5FB40F22853C2F2B8
:102E600000035B889BB218464FF00501FFF7BAFBE1
:102E70004FF00A00FFF784FB00BF40F29043C2F21C
:102E800000034FF000021A7007F10807BD4680BD2D
:102E900080B582B000AF4FF48843C4F200031B88B2
:102EA0009BB203F02003002B00F0E9804FF488432D
:102EB000C4F200039B889BB2FB71FB7903F1FF33E3
:102EC000092B00F2C28001A252F823F0F52E00086F
:102ED000132F0008B52F0008273000084B300008DA
:102EE0004B3000084B3000084B3000084B300008D6
:102EF0004530000840F24843C2F200034FF0FF02A1
:102F00001A7040F24C43C2F200034FF000021A6004
:102F1000B5E040F24843C2F200034FF000021A70DD
:102F200040F2A043C2F200034FF000021A6040F2E8
:102F3000A043C2F200034FF000025A6040F2A043E7
:102F4000C2F200034FF000029A6040F2AC43C2F2BA
:102F500000034FF00002DA6040F2AC43C2F200031B
:102F60004FF000021A6140F2AC43C2F200034FF08E
:102F700000021A6240F2AC43C2F200034FF00002BA
:102F80005A624FF001004FF00001FEF791FD4FF043
:102F900002004FF00001FEF78BFD4FF003004FF0F1
:102FA0000001FEF785FD4FF004004FF00001FEF731
:102FB0007FFD64E04FF0FF00FFF7E2FA4FF02700DB
:102FC000FFF7DEFA40F2A043C2F200031B68184686
:102FD0004FF00001C4F2C82101F04CF90346184635
:102FE00001F098FA034618464FF00801FFF7FAFA85
:102FF00040F2A043C2F200035B6818464FF00001A4
:10300000C4F2C82101F036F90346184601F082FAED
:10301000034618464FF00801FFF7E4FA4FF00A00A4
:10302000FFF7AEFA2BE040F2F043C2F200031B6858
:1030300018464FF00801FFF7D5FA4FF00A00FFF7E6
:103040009FFA1CE0FFF774FB19E040F29043C2F2D4
:1030500000031B781A4640F24C53C2F20003F97980
:10306000995440F29043C2F200031B7803F101032C
:10307000DAB240F29043C2F200031A7000BF07F1C7
:103080000807BD4680BD00BF2DE9F84F4FF6FF731E
:1030900021F00046C4F20F439E4288468A4681468C
:1030A0001BDD0020C7F6F07086424B4600F3BE8061
:1030B00000F0B98042F2FB18414642F61859CBF6AF
:1030C000F978C3F6F971C5F24449BAF1000FC8BFE7
:1030D000884648464146BDE8F88F4FF6FF70C3F674
:1030E000DB70864200F3BC804FF6FF71C3F61F61B0
:1030F0008E4240F3A4804FF0FF3B4A464346484689
:10310000414600F0BFFC02460B4606460F4600F063
:10311000B9FC9DA3D3E9002304460D4600F0B2FCA0
:103120009BA3D3E9002300F0FBFA22462B4600F0D4
:10313000A9FC99A3D3E9002300F0F2FA22462B461A
:1031400000F0A0FC96A3D3E9002300F0E9FA2246A0
:103150002B4600F097FC94A3D3E9002300F0E0FA9B
:1031600022462B4600F08EFC91A3D3E9002300F009
:10317000D7FA32463B4600F085FC8FA3D3E9002303
:1031800006460F462046294600F07CFC8CA3D3E976
:10319000002300F0C3FA22462B4600F073FC8AA3FA
:1031A000D3E9002300F0BAFA22462B4600F06AFC6D
:1031B00087A3D3E9002300F0B1FA22462B4600F0A2
:1031C00061FC85A3D3E9002300F0A8FA22462B4630
:1031D00000F058FCBBF1FF3F02460B466FD0304673
:1031E000394600F09DFA43464A4600F04BFC7E4CBF
:1031F0007E4A4FEACB0B5C449344DBE9002300F0AA
:103200008DFA43464A4600F089FA02460B46D4E955
:10321000000100F083FABAF1000F8146B4BF01F15A
:103220000048884655E7002B3FF444AF48464A46DD
:103230004146434600F074FA8146884649E768A350
:10324000D3E900234846414600F06AFA00230022F1
:10325000C3F6F07300F0A6FE00287FF43AAF4AE709
:10326000484600F0C5F84FF6FF72C3F6F272964278
:1032700004460D4636DC4FF6FF73C3F6E5739E42F7
:1032800064DC02460B4600F04BFA00230022C3F632
:10329000F07300F043FA002206460F464FF08043D9
:1032A0002046294600F03CFA02460B463046394695
:1032B00000F012FD4FF0000B814688461DE73046B6
:1032C000394600F02DFA4A46434600F0DBFB024641
:1032D0000B464846414600F021FA4C464546814699
:1032E0008846F6E647F6FF77C4F20307BE4220DCC5
:1032F00000230022C3F6F87300F010FA00230646FC
:103300000F460022C3F6F8732046294600F0BAFBA8
:1033100000230022C3F6F07300F002FA02460B46C7
:103320003046394600F0D8FC4FF0020B8146884603
:10333000E3E600210020CBF6F07122462B4600F098
:10334000CBFC4FF0030B81468846D6E600230022D3
:10335000C3F6F07300F0E2F9002306460F460022A0
:10336000C3F6F0732046294600F0DAF902460B4610
:103370003046394600F0B0FC4FF0010B81468846DC
:10338000BBE600BFAFF3008011DA22E33AAD903F15
:10339000EB0D76244B7BA93F513DD0A0660DB13F8C
:1033A0006E204CC5CD45B73FFF8300922449C23FF4
:1033B0000D5555555555D53F2F6C6A2C44B4A2BFB9
:1033C0009AFDDE522DDEAD3F6D9A74AFF2B0B33F81
:1033D000711623FEC671BC3FC4EB98999999C93FF9
:1033E0009C7500883CE4377EA845000888450008A5
:1033F00021F00041704700BF2DE9F0478AB0044634
:103400000D4600F04DF8DFF894A006469AF900301A
:103410000F4601330FD02046294600F045F950B140
:103420004FF000084FF000092046294642464B461F
:1034300000F09AFD20B9304639460AB0BDE8F08761
:1034400015499AF80060012000220090019108922D
:10345000CDE90445CDE9024556B9CDE9068968466E
:1034600000F056F970B1089B8BB9DDE90667E2E719
:103470004046494642464B4600F02EFC022ECDE91E
:103480000601ECD101F06CF821270760EBE701F0B1
:1034900067F8089E0660E8E7C84500084004002079
:1034A0002DE9F8430027B946C7F6F077C7F6F0795B
:1034B0000F404F4504460D4602460B460E468046D9
:1034C00000F0D480002940F3AE800C1500F0B880E5
:1034D00026F07F45A4F2FF3725F47006FA0746F47C
:1034E000801100F193804FEAD8734FF0000C03EB8A
:1034F00041037F104FEA4801162562464FF4001041
:10350000161844089E424FEAD17805F1FF354FEA7C
:10351000410102DC32189B1B844408EB4303101961
:10352000984202DC1B1A0219A444CE0F600849001D
:10353000013D06EB4303E3D14FF020082C464FF04A
:10354000004015E000F08E80CE0F06EB43034008EC
:103550004900934208F1FF3804EB00061EDC1BD043
:10356000CE0F40084900B8F1010806EB43032DD007
:10357000934204EB0006E5DD06F00049B9F1004F87
:1035800006EB00043DD091469B1A8E4288BF013B5A
:10359000891B2D184A46D7E78E42E1D806F000492C
:1035A000B9F1004F06EB000426D091468E42C2EBE3
:1035B000030300D9013B891BCE0F2D184900400899
:1035C000B8F101084A4606EB4303D1D1194324D18F
:1035D0004FEA55084FEA6C0505F17F541CF0010FC6
:1035E00004F5001318BF48F0004803EB07554446A4
:1035F00020462946BDE8F883002CD6DB02F10109FC
:10360000D4E7002CBFDB02F10109BDE74FEAD87215
:1036100002EB41014FEA480865E76B1C31D005F029
:1036200001025519D4E721F000460643E0D079BBEA
:103630000C464FEAD826153C4FEA4858002EF8D0E1
:1036400016F4801320D176000133F102FBD5C3F1CB
:103650000101C3F1200228FA02F0641808FA03F805
:10366000064335E78E4287D91A466DE700F00AFA1D
:1036700002460B462046294600F052F804460D4605
:10368000B6E70CF1010CA5E7202201210023E2E7B7
:1036900002460B4600F042F802460B4600F01CFBC7
:1036A00004460D46A4E700BF0B4661B1B1F1004FDF
:1036B00009D04FF6FF72A3F58011C7F6DF72914271
:1036C00005D8042070470028F3D10220704703F189
:1036D000FF4101F5E0019142F3D94FF6FF72C0F2CC
:1036E0000F02934201D80320704703F10041914239
:1036F000F9D90022C7F6F072934204D013F5801F67
:1037000001D000207047D0F1010038BF0020704781
:103710000020704781F0004102E000BF83F00043C9
:1037200030B54FEA41044FEA430594EA050F08BF5C
:1037300090EA020F1FBF54EA000C55EA020C7FEA20
:10374000645C7FEA655C00F0E2804FEA5454D4EB9D
:103750005555B8BF6D420CDD2C4480EA020281EA67
:10376000030382EA000083EA010180EA020281EA9F
:103770000303362D88BF30BD11F0004F4FEA0131F1
:103780004FF4801C4CEA113102D0404261EB410100
:1037900013F0004F4FEA03334CEA133302D0524286
:1037A00063EB430394EA050F00F0A780A4F1010442
:1037B000D5F1200E0DDB02FA0EFC22FA05F280187C
:1037C00041F1000103FA0EF2801843FA05F3594162
:1037D0000EE0A5F120050EF1200E012A03FA0EFCE1
:1037E00028BF4CF0020C43FA05F3C01851EBE3710B
:1037F00001F0004507D54FF0000EDCF1000C7EEB28
:1038000000006EEB0101B1F5801F1BD3B1F5001F65
:103810000CD349085FEA30004FEA3C0C04F1010484
:103820004FEA445212F5800F80F09A80BCF1004FAD
:1038300008BF5FEA500C50F1000041EB045141EA2F
:10384000050130BD5FEA4C0C404141EB010111F430
:10385000801FA4F10104E9D191F0000F04BF0146DB
:103860000020B1FA81F308BF2033A3F10B03B3F1B9
:1038700020020CDA0C3208DD02F1140CC2F10C0249
:1038800001FA0CF021FA02F10CE002F11402D8BFA7
:10389000C2F1200C01FA02F120FA0CFCDCBF41EA73
:1038A0000C019040E41AA2BF01EB0451294330BD42
:1038B0006FEA04041F3C1CDA0C340EDC04F114041F
:1038C000C4F1200220FA04F001FA02F340EA0300F6
:1038D00021FA04F345EA030130BDC4F10C04C4F13C
:1038E000200220FA02F001FA04F340EA030029461C
:1038F00030BD21FA04F0294630BD94F0000F83F466
:10390000801306BF81F480110134013D4EE77FEA48
:10391000645C18BF7FEA655C29D094EA050F08BF94
:1039200090EA020F05D054EA000C04BF1946104675
:1039300030BD91EA030F1EBF0021002030BD5FEAB9
:10394000545C05D14000494128BF41F0004130BDE1
:1039500014F580043CBF01F5801130BD01F0004535
:1039600045F0FE4141F470014FF0000030BD7FEAA8
:10397000645C1ABF194610467FEA655C1CBF0B46A3
:10398000024650EA013406BF52EA033591EA030FBA
:1039900041F4002130BD00BF90F0000F04BF0021B2
:1039A000704730B54FF4806404F132044FF00005E5
:1039B0004FF0000150E700BF90F0000F04BF00215E
:1039C000704730B54FF4806404F1320410F00045C4
:1039D00048BF40424FF000013EE700BF42004FEABF
:1039E000E2014FEA31014FEA02701FBF12F07F433C
:1039F00093F07F4F81F06051704792F0000F14BF39
:103A000093F07F4F704730B54FF4607401F000457C
:103A100021F0004120E700BF50EA010208BF7047D3
:103A200030B54FF000050AE050EA010208BF7047C8
:103A300030B511F0004502D5404261EB41014FF431
:103A4000806404F132045FEA915C3FF4DCAE4FF035
:103A500003025FEADC0C18BF03325FEADC0C18BF1C
:103A6000033202EBDC02C2F1200300FA03FC20FA6D
:103A700002F001FA03FE40EA0E0021FA02F11444BA
:103A8000C1E600BF70B54FF0FF0C4CF4E06C1CEACF
:103A900011541DBF1CEA135594EA0C0F95EA0C0F44
:103AA00000F0DEF82C4481EA030621EA4C5123EAB7
:103AB0004C5350EA013518BF52EA033541F48011E6
:103AC00043F4801338D0A0FB02CE4FF00005E1FB99
:103AD00002E506F00042E0FB03E54FF00006E1FBE3
:103AE00003569CF0000F18BF4EF0010EA4F1FF0426
:103AF000B6F5007F64F5407404D25FEA4E0E6D4166
:103B000046EB060642EAC62141EA55514FEAC52076
:103B100040EA5E504FEACE2EB4F1FD0C88BFBCF5F2
:103B2000E06F1ED8BEF1004F08BF5FEA500E50F1A3
:103B3000000041EB045170BD06F0004646EA010169
:103B400040EA020081EA0301B4EB5C04C2BFD4EB9B
:103B50000C0541EA045170BD41F480114FF0000E94
:103B6000013C00F3AB8014F1360FDEBF002001F002
:103B7000004170BDC4F10004203C35DA0C341BDC7C
:103B800004F11404C4F1200500FA05F320FA04F04E
:103B900001FA05F240EA020001F0004221F0004182
:103BA00010EBD37021FA04F642EB06015EEA430EF5
:103BB00008BF20EAD37070BDC4F10C04C4F1200525
:103BC00000FA04F320FA05F001FA04F240EA0200D8
:103BD00001F0004110EBD37041F100015EEA430EA9
:103BE00008BF20EAD37070BDC4F1200500FA05F2C9
:103BF0004EEA020E20FA04F301FA05F243EA020348
:103C000021FA04F001F0004121FA04F220EA020056
:103C100000EBD3705EEA430E08BF20EAD37070BD9C
:103C200094F0000F0FD101F00046400041EB01017C
:103C300011F4801F08BF013CF7D041EA060195F05E
:103C4000000F18BF704703F00046520043EB030318
:103C500013F4801F08BF013DF7D043EA0603704705
:103C600094EA0C0F0CEA135518BF95EA0C0F0CD010
:103C700050EA410618BF52EA4306D1D181EA030156
:103C800001F000414FF0000070BD50EA410606BF50
:103C90001046194652EA430619D094EA0C0F02D195
:103CA00050EA013613D195EA0C0F05D152EA0336DA
:103CB0001CBF104619460AD181EA030101F00041F8
:103CC00041F0FE4141F470014FF0000070BD41F041
:103CD000FE4141F4780170BD70B54FF0FF0C4CF41B
:103CE000E06C1CEA11541DBF1CEA135594EA0C0F3A
:103CF00095EA0C0F00F0A7F8A4EB050481EA030E87
:103D000052EA03354FEA013100F088804FEA03336D
:103D10004FF0805545EA131343EA12634FEA02223B
:103D200045EA111545EA10654FEA00260EF00041FC
:103D30009D4208BF964244F1FD0404F5407402D24E
:103D40005B084FEA3202B61A65EB03055B084FEADF
:103D500032024FF480104FF4002CB6EB020E75EBDC
:103D6000030E22BFB61A754640EA0C005B084FEA04
:103D70003202B6EB020E75EB030E22BFB61A754681
:103D800040EA5C005B084FEA3202B6EB020E75EBCC
:103D9000030E22BFB61A754640EA9C005B084FEA44
:103DA0003202B6EB020E75EB030E22BFB61A754651
:103DB00040EADC0055EA060E18D04FEA051545EA40
:103DC00016754FEA06164FEAC30343EA52734FEAE9
:103DD000C2025FEA1C1CC0D111F4801F0BD141EA62
:103DE00000014FF000004FF0004CB6E711F4801FC7
:103DF00004BF01430020B4F1FD0C88BFBCF5E06FA7
:103E00003FF6AFAEB5EB030C04BFB6EB020C5FEAB6
:103E1000500C50F1000041EB045170BD0EF0004E0B
:103E20004EEA113114EB5C04C2BFD4EB0C0541EA3D
:103E3000045170BD41F480114FF0000E013C90E63A
:103E400045EA060E8DE60CEA135594EA0C0F08BFFE
:103E500095EA0C0F3FF43BAF94EA0C0F0AD150EAFD
:103E600001347FF434AF95EA0C0F7FF425AF104690
:103E700019462CE795EA0C0F06D152EA03353FF4B8
:103E8000FDAE1046194622E750EA410618BF52EA35
:103E900043067FF4C5AE50EA41047FF40DAF52EA09
:103EA00043057FF4EBAE12E74FF0FF3C06E000BFA6
:103EB0004FF0010C02E000BF4FF0010C4DF804CDB3
:103EC0004FEA410C7FEA6C5C4FEA430C18BF7FEA73
:103ED0006C5C1BD001B050EA410C0CBF52EA430CA1
:103EE00091EA030F02BF90EA020F0020704710F121
:103EF000000F91EA030F58BF994208BF90422CBFB0
:103F0000D8176FEAE37040F0010070474FEA410CA8
:103F10007FEA6C5C02D150EA013C07D14FEA430CC6
:103F20007FEA6C5CD6D152EA033CD3D05DF8040B37
:103F3000704700BF8446104662468C461946634669
:103F400000E000BF01B5FFF7B7FF002848BF10F140
:103F5000000F01BD4DF808EDFFF7F4FF0CBF012085
:103F600000205DF808FB00BF4DF808EDFFF7EAFF01
:103F700034BF012000205DF808FB00BF4DF808EDBC
:103F8000FFF7E0FF94BF012000205DF808FB00BFB1
:103F90004DF808EDFFF7CEFF94BF012000205DF83B
:103FA00008FB00BF4DF808EDFFF7C4FF34BF012048
:103FB00000205DF808FB00BF4FEA4102B2F1E04388
:103FC00024BFB3F5001CDCF1FE5C0DD901F0004C00
:103FD0004FEAC0024CEA5070B2F1004F40EB830050
:103FE00008BF20F00100704711F0804F21D113F17C
:103FF0003872BCBF01F00040704741F480114FEAB5
:104000005252C2F11802C2F1200C10FA0CF320FA3D
:1040100002F018BF40F001004FEAC1234FEAD3235A
:1040200003FA0CFC40EA0C0023FA02F34FEA4303C4
:10403000CCE77FEA625307D150EA01331EBF4FF04D
:10404000FE4040F44000704701F0004040F0FE4068
:1040500040F40000704700BF80F0004002E000BF65
:1040600081F0004142001FBF5FEA410392EA030F63
:104070007FEA226C7FEA236C6AD04FEA1262D2EBAD
:104080001363C1BFD218414048404140B8BF5B42B2
:10409000192B88BF704710F0004F40F4000020F04B
:1040A0007F4018BF404211F0004F41F4000121F061
:1040B0007F4118BF494292EA030F3FD0A2F10102AB
:1040C00041FA03FC10EB0C00C3F1200301FA03F1E9
:1040D00000F0004302D5494260EB4000B0F5000F0C
:1040E00013D3B0F1807F06D340084FEA310102F1CB
:1040F0000102FE2A51D2B1F1004F40EBC25008BF7D
:1041000020F0010040EA03007047490040EB000046
:1041100010F4000FA2F10102EDD1B0FA80FCACF175
:10412000080CB2EB0C0200FA0CF0AABF00EBC25074
:1041300052421843BCBFD0401843704792F0000F62
:1041400081F4000106BF80F400000132013BB5E7B5
:104150004FEA41037FEA226C18BF7FEA236C21D02B
:1041600092EA030F04D092F0000F08BF0846704790
:1041700090EA010F1CBF0020704712F07F4F04D15E
:10418000400028BF40F00040704712F100723CBF71
:1041900000F50000704700F0004343F0FE4040F49B
:1041A000000070477FEA226216BF08467FEA236359
:1041B0000146420206BF5FEA412390EA010F40F444
:1041C000800070474FF0000304E000BF10F0004390
:1041D00048BF40425FEA000C08BF704743F0964377
:1041E00001464FF000001CE050EA010208BF704792
:1041F0004FF000030AE000BF50EA010208BF704719
:1042000011F0004302D5404261EB41015FEA010C2D
:1042100002BF84460146002043F0B64308BFA3F125
:104220008053A3F50003BCFA8CF2083AA3EBC25307
:1042300010DB01FA02FC634400FA02FCC2F1200226
:10424000BCF1004F20FA02F243EB020008BF20F05D
:104250000100704702F1200201FA02FCC2F12002C3
:1042600050EA4C0021FA02F243EB020008BF20EAB8
:10427000DC7070474FF0FF0C1CEAD0521EBF1CEAE6
:10428000D15392EA0C0F93EA0C0F6FD01A4480EAD4
:10429000010C400218BF5FEA41211ED04FF00063BD
:1042A00043EA501043EA5111A0FB01310CF00040E9
:1042B000B1F5000F3EBF490041EAD3715B0040EA0F
:1042C000010062F17F02FD2A1DD8B3F1004F40EBDF
:1042D000C25008BF20F00100704790F0000F0CF0B2
:1042E000004C08BF49024CEA502040EA51207F3A76
:1042F000C2BFD2F1FF0340EAC250704740F4000051
:104300004FF00003013A5DDC12F1190FDCBF00F041
:1043100000407047C2F10002410021FA02F1C2F1EF
:10432000200200FA02FC5FEA310040F1000053EA8B
:104330004C0308BF20EADC70704792F0000F00F0D9
:10434000004C02BF400010F4000F013AF9D040EADF
:104350000C0093F0000F01F0004C02BF490011F473
:10436000000F013BF9D041EA0C018FE70CEAD15371
:1043700092EA0C0F18BF93EA0C0F0AD030F0004CF1
:1043800018BF31F0004CD8D180EA010000F00040A5
:10439000704790F0000F17BF90F0004F084691F063
:1043A000000F91F0004F14D092EA0C0F01D142029D
:1043B0000FD193EA0C0F03D14B0218BF084608D166
:1043C00080EA010000F0004040F0FE4040F40000B0
:1043D000704740F0FE4040F4400070474FF0FF0C43
:1043E0001CEAD0521EBF1CEAD15392EA0C0F93EA8A
:1043F0000C0F69D0A2EB030280EA010C49024FEADC
:10440000402037D04FF0805343EA111143EA101394
:104410000CF000408B4238BF5B0042F17D024FF44C
:10442000000C8B4224BF5B1A40EA0C00B3EB510F27
:1044300024BFA3EB510340EA5C00B3EB910F24BF10
:10444000A3EB910340EA9C00B3EBD10F24BFA3EB95
:10445000D10340EADC001B0118BF5FEA1C1CE0D15D
:10446000FD2A3FF650AF8B4240EBC25008BF20F010
:10447000010070470CF0004C4CEA50207F32C2BF64
:10448000D2F1FF0340EAC250704740F400004FF001
:104490000003013A37E792F0000F00F0004C02BF32
:1044A000400010F4000F013AF9D040EA0C0093F0FC
:1044B000000F01F0004C02BF490011F4000F013B56
:1044C000F9D041EA0C0195E70CEAD15392EA0C0FBE
:1044D00008D142027FF47DAF93EA0C0F7FF470AFF6
:1044E000084676E793EA0C0F04D14B023FF44CAF39
:1044F00008466EE730F0004C18BF31F0004CCAD1CE
:1045000030F000427FF45CAF31F000437FF43CAF09
:104510005FE700BF4FEA4002B2F1FE4F0FD34FF00A
:104520009E03B3EB12620DD94FEA002343F0004320
:1045300010F0004F23FA02F018BF404270474FF0CE
:104540000000704712F1610F01D1420205D110F055
:10455000004008BF6FF0004070474FF00000704708
:1045600040F22843C2F20003186870475175616435
:10457000726F2073746172746564210D0A0000000B
:104580002564000025580000E2652F227F2B7A3C2D
:10459000075C143326A6813CBDCBF07A8807703CBB
:1045A000075C143326A6913C4FBB610567ACDD3F29
:1045B000182D4454FB21E93F9BF681D20B73EF3F4A
:1045C000182D4454FB21F93F7371727400000000F0
:1045D00000000000000000000100000000000000DA
:1045E00000000000000000000000000000000000CB
:1045F00000000000000000000000000000000000BB
:1046000000000000000000000000000000000000AA
:10461000000000000000000000000000000000009A
:1049F0000000000000000000000000200000000097
:104A000084812142B08121428401224288012242D4
:044A100001000000A1
:0400000508000000EF
:00000001FF
