:020000040800F2
:100000008804002061060008D1060008D106000817
:10001000D1060008D1060008D10600080000000043
:10002000000000000000000000000000D1060008F1
:10003000D106000800000000D1060008D106000823
:10004000D1060008D1060008D1060008D106000834
:10005000D1060008D1060008D1060008D106000824
:10006000D10600082112000855120008D106000828
:10007000D1060008D1060008D1060008D106000804
:10008000D1060008D1060008D1060008D1060008F4
:10009000D1060008D1060008D10600088912000820
:1000A000D10600088D010008D1060008D10600081D
:1000B000010A0008CD020008D1060008D106000898
:1000C000D1060008D1060008D1060008D1060008B4
:1000D000D1060008D1060008D1060008D1060008A4
:1000E000D1060008D1060008D10600080000000073
:1000F0000000000000000000000000000000000000
:1001000000000000000000005FF808F180B483B038
:1001100000AF0346FB714FF46143CEF2000397F941
:1001200007204FEA5212F97901F01F014FF0010048
:1001300000FA01F143F8221007F10C07BD4680BC1C
:10014000704700BF80B500AF4FF43053C4F20103D5
:1001500041F61F421A854FF43053C4F201034FF0A9
:1001600064029A854FF43053C4F201034FF0010248
:100170009A814FF43053C4F201034FF001021A8008
:100180004FF01900FFF7C2FF80BD00BF80B500AF80
:100190004FF43053C4F201031B8A9BB203F00103F6
:1001A000002B3CD000F0B6FE40F26803C2F2000320
:1001B0001B881BB2184601F0E3FB024640F26803BD
:1001C000C2F200039B681046194601F02DFC03465D
:1001D00018464FF00001C4F2C82101F0D9FC0346D3
:1001E0001A4640F21003C2F200031B68104619467B
:1001F00001F012FB03461A4640F21003C2F200035C
:100200001A604FF43053C4F201034FF43052C4F279
:100210000102128A92B222F0010292B21A8280BDC9
:1002200080B483B000AF0346FB714FF46143CEF25C
:10023000000397F907204FEA5212F97901F01F01E4
:100240004FF0010000FA01F143F8221007F10C070A
:10025000BD4680BC704700BF80B500AF4FF48063DF
:10026000C4F200034FF078021A854FF48063C4F2A1
:1002700000034FF47A729A854FF48063C4F200034E
:100280004FF00002A3F840204FF48063C4F2000353
:100290004FF4C0429A834FF48063C4F200034FF4DA
:1002A00080521A844FF48063C4F200034FF00102BD
:1002B0009A814FF48063C4F200034FF001021A8068
:1002C0004FF01D00FFF7ACFF80BD00BF80B400AF52
:1002D0004FF48063C4F200031B8A9BB203F0010356
:1002E000002B00F08A804FF48063C4F200034FF4C7
:1002F0008062C4F20002128A92B222F0010292B22B
:100300001A8240F21803C2F200031B68022B41D18B
:1003100040F21403C2F200031B684FF4967202FB12
:1003200003F240F22803C2F200031B6892FBF3F2CF
:1003300040F22003C2F200031B689A421EDA4FF417
:100340008063C4F200034FF48062C4F20002B2F88A
:10035000402092B2002A06D140F22402C2F20002EA
:10036000126892B201E04FF00002A3F8402040F280
:100370002003C2F200034FF000021A6040F2200393
:10038000C2F200031B6803F1010240F22003C2F233
:1003900000031A6040F21403C2F200031B684FF41A
:1003A000967202FB03F240F21C03C2F200031B68C8
:1003B0009A4216DA4FF48063C4F200034FF0000251
:1003C000A3F840204FF48063C4F200034FF480622E
:1003D000C4F20002128892B222F0010292B21A8094
:1003E0000BE040F21C03C2F200031B6803F10102A0
:1003F00040F21C03C2F200031A60BD4680BC704785
:1004000080B500AF4FF48053C4F202034FF4805222
:10041000C4F20202126842F001021A604FF48052E4
:10042000C4F202024FF48053C4F2020359684FF041
:100430000003CFF6FF030B4053604FF48053C4F228
:1004400002034FF48052C4F20202126822F0847256
:1004500022F480321A604FF48053C4F202034FF446
:100460008052C4F20202126822F480221A604FF411
:100470008053C4F202034FF48052C4F20202526865
:1004800022F4FE025A604FF48053C4F202034FF488
:100490001F029A6000F008F84FF46D43CEF200039B
:1004A0004FF000629A6080BD80B500AF00F002F8A6
:1004B00080BD00BF80B483B000AF4FF000037B600D
:1004C0004FF000033B604FF48053C4F202034FF43B
:1004D0008052C4F20202126842F480321A604FF471
:1004E0008053C4F202031B6803F400333B607B6853
:1004F00003F101037B603B68002B03D17B68B3F5FC
:10050000A06FECD14FF48053C4F202031B6803F4D4
:100510000033002B03D04FF001033B6002E04FF0AB
:1005200000033B603B68012B40F094804FF4005384
:10053000C4F202034FF40052C4F20202126842F005
:1005400010021A604FF40053C4F202034FF4005239
:10055000C4F20202126822F003021A604FF4005340
:10056000C4F202034FF40052C4F20202126842F0D5
:1005700002021A604FF48053C4F202034FF4805217
:10058000C4F2020252685A604FF48053C4F202036C
:100590004FF48052C4F2020252685A604FF4805302
:1005A000C4F202034FF48052C4F20202526842F4D1
:1005B00080625A604FF48053C4F202034FF48052B9
:1005C000C4F20202526822F47C125A604FF4805343
:1005D000C4F202034FF48052C4F20202526842F4A1
:1005E000E8125A604FF48053C4F202034FF4805271
:1005F000C4F20202126842F080721A6000BF4FF427
:100600008053C4F202031B6803F00073002BF6D082
:100610004FF48053C4F202034FF48052C4F202023A
:10062000526822F003025A604FF48053C4F202036E
:100630004FF48052C4F20202526842F002025A6041
:1006400000BF4FF48053C4F202035B6803F00C0355
:10065000082BF6D107F10C07BD4680BC704700BFE0
:1006600080B582B000AF41F6C843C0F600037B609E
:1006700040F20003C2F200033B600BE07B681A68A3
:100680003B681A603B6803F104033B607B6803F13D
:1006900004037B603A6840F21003C2F200039A42FE
:1006A000ECD3094809494FF000028842B8BF40F82E
:1006B000042BFFF6FAAFFFF7A3FE00F00DF807F1E9
:1006C0000807BD4680BD0000100000208800002003
:1006D00080B400AFFEE700BF80B582B000AF4FF03E
:1006E00000037B6003E07B6803F101037B607A68B1
:1006F0004AF21F13C0F207039A42F4DD00F020F81B
:1007000000F062F900F0A8F800F0E6F940F23003DA
:10071000C2F200034FF000021A6000F045FA40F206
:100720003003C2F200031B68002BEFD1FFF794FDEA
:1007300000F0E4FF01F056F8FFF704FDFEE700BF0C
:1007400080B400AF4FF48053C4F202034FF4803200
:100750001A6000BF4FF48053C4F202031B6803F415
:100760000033002BF6D04FF40053C4F202034FF4D1
:100770000052C4F20202126842F002021A604FF400
:100780008053C4F202034FF48052C4F20202126892
:1007900042F400221A604FF48053C4F202034FF473
:1007A0004442C0F21D025A604FF48053C4F2020367
:1007B0004FF48052C4F20202126842F080721A6052
:1007C00000BF4FF48053C4F202031B6803F00073B0
:1007D000002BF6D04FF48053C4F202034FF4805242
:1007E000C4F20202526842F002025A6000BF4FF4A3
:1007F0008053C4F202035B6803F00803002BF6D0B9
:100800004FF48053C4F202034FF48052C4F2020248
:10081000D26942F4840242F00702DA614FF4805355
:10082000C4F202034FF48052C4F20202926942F40D
:10083000D05242F01D029A614FF48053C4F2020379
:100840004FF48052C4F20202526942F001025A612E
:10085000BD4680BC704700BF80B400AF4FF400625B
:10086000C4F201024FF40063C4F20103196843F2B9
:100870003F33C3F233330B4013604FF40062C4F2D2
:1008800001024FF40063C4F2010319684BF63033E0
:10089000CBF6B3330B4313604FF44063C4F2010350
:1008A0004FF44062C4F20102126822F04C4222F07E
:1008B000CC021A604FF44063C4F201034FF440626B
:1008C000C4F20102126842F03B4242F0B0021A60E8
:1008D0004FF44062C4F201024FF44063C4F20103DA
:1008E00059684FF6BB73C0F233330B4353604FF478
:1008F0004063C4F201034FF44062C4F20102526843
:1009000022F04C6222F440225A604FF48053C4F229
:1009100001034FF48052C4F20102126842F44C52B7
:1009200042F030021A604FF48053C4F201034FF4D6
:100930008052C4F20102126822F44C4222F0C0023A
:100940001A604FF48053C4F201034FF48052C4F292
:100950000102526822F440025A604FF48053C4F2FC
:1009600001034FF48052C4F20102526842F40002C3
:100970005A604FF48053C4F201034FF48052C4F222
:100980000102D26842F40052DA60BD4680BC704772
:1009900080B483B000AF0346FB714FF46143CEF2E5
:1009A000000397F907204FEA5212F97901F01F016D
:1009B0004FF0010000FA01F143F8221007F10C0793
:1009C000BD4680BC704700BF80B500AF4FF080438C
:1009D00045F6BF521A854FF080434FF47A729A85DC
:1009E0004FF080434FF001029A814FF080434FF067
:1009F00001021A804FF01C00FFF7CAFF80BD00BF44
:100A000080B400AF4FF080431B8A9BB203F0010318
:100A1000002B5ED04FF080434FF08042128A92B29A
:100A200022F0010292B21A824FF48053C4F2010301
:100A30004FF48052C4F20102D26882F00802DA60F8
:100A400040F22C03C2F200031A6840F20003C2F223
:100A5000000353F822304FF001021A6040F22C03D9
:100A6000C2F200031B68002B10DD40F22C03C2F21F
:100A700000031B6803F1FF3240F20003C2F20003DF
:100A800053F822304FF000021A6007E040F20003F2
:100A9000C2F20003DB684FF000021A6040F22C0340
:100AA000C2F200031B68032B07D140F22C03C2F2F1
:100AB00000034FF000021A600BE040F22C03C2F278
:100AC00000031B6803F1010240F22C03C2F2000391
:100AD0001A60BD4680BC704780B400AF4FF400631D
:100AE000C4F200034FF479421A854FF40063C4F254
:100AF00000034FF47A729A854FF40063C4F2000346
:100B000046F260021A834FF40063C4F2000346F217
:100B100060029A834FF40063C4F2000341F21112A1
:100B20001A844FF40063C4F200034FF001021A80EC
:100B30004FF40063C4F200034FF000029A864FF4B2
:100B40000063C4F200034FF000021A874FF4006301
:100B5000C4F200034FF000029A874FF40063C4F21E
:100B600000034FF00002A3F84020BD4680BC704750
:100B700080B483B000AF0346FB714FF46143CEF203
:100B8000000397F907204FEA5212F97901F01F018B
:100B90004FF0010000FA01F143F8221007F10C07B1
:100BA000BD4680BC704700BF80B500AF00F054F96F
:100BB00040F26803C2F200034FF0D4029A7140F28F
:100BC0006803C2F2000345F62942C3F68F529A60C9
:100BD00040F26803C2F200034FF07E52DA6040F246
:100BE0006803C2F200034CF6CD42C3F6CC521A6140
:100BF00040F26803C2F200034DF20A72C3F62342C8
:100C00005A6140F26803C2F200034FF07E529A61CB
:100C100040F23403C2F200034FF030029A7140F206
:100C20003403C2F2000341F26F22C3F683329A60AA
:100C300040F25003C2F200034FF01C029A7140F2DE
:100C40003403C2F200039B7918464FF020014FF0A5
:100C5000970200F033FB40F23403C2F200039B79A9
:100C600018464FF021014FF0000200F027FB40F240
:100C70003403C2F200039B7918464FF022014FF073
:100C8000080200F01BFB40F23403C2F200039B7920
:100C900018464FF023014FF0280200F00FFB40F2FE
:100CA0003403C2F200039B7918464FF024014FF041
:100CB000400200F003FB40F26803C2F200039B799C
:100CC00018464FF020014FF00F0200F0F7FA40F203
:100CD0006803C2F200039B7918464FF021014FF0E0
:100CE000000200F0EBFA40F26803C2F200039B79C5
:100CF00018464FF022014FF0000200F0DFFA40F2F8
:100D00006803C2F200039B7918464FF023014FF0AD
:100D1000200200F0D3FA40F26803C2F200039B798C
:100D200018464FF024014FF0000200F0C7FA40F2DD
:100D30005003C2F200039B7918464FF011014FF0A7
:100D4000800200F0BBFA40F25003C2F200039B792C
:100D500018464FF010014FF0010200F0AFFA4FF0CB
:100D60000003C4F201034FF00002C4F201029268D2
:100D700042F480529A604FF00003C4F201034FF036
:100D80000002C4F20102D26842F02202DA604FF49B
:100D90008063C4F201034FF48062C4F2010212685E
:100DA00042F038021A604FF48063C4F201034FF43A
:100DB0008062C4F20102926842F038029A604FF0F9
:100DC0000900FFF7D5FE4FF00A00FFF7D1FE4FF004
:100DD0001700FFF7CDFE80BD80B400AF4FF4B043E5
:100DE000C4F200039B8A9BB203F480424FF4B043E9
:100DF000C4F200039B8A9BB203F480531A434FF45E
:100E0000B043C4F200039B8A9BB203F480631A438D
:100E10004FF4B043C4F200039B8A9BB203F4007307
:100E20001A434FF4B043C4F200039B8A9BB203F40D
:100E300080731343002B09D040F23003C2F2000349
:100E40004FF001021A604FF0010301E04FF0000380
:100E50001846BD4680BC704780B400AF4FF4B04325
:100E6000C4F200034FF4B042C4F20002128892B2FE
:100E700022F0010292B21A804FF4B043C4F2000390
:100E80004FF4B042C4F20002128892B26FEA4242BA
:100E90006FEA524292B21A804FF4B043C4F2000398
:100EA0004FF4B042C4F20002128892B24FEA4242BA
:100EB0004FEA524292B21A804FF4B043C4F2000398
:100EC0004FF025021A844FF4B043C4F200034FF0F0
:100ED000A0029A834FF4B043C4F200034FF4B0422F
:100EE000C4F20002928892B242F0240292B29A8036
:100EF0004FF4B043C4F200034FF4B042C4F2000216
:100F0000128892B242F0010292B21A80BD4680BCB1
:100F1000704700BF98B500AF40F23403C2F200033F
:100F20009B7918464FF0290100F0A6FA03464FEAD4
:100F300003239AB240F23403C2F200031A8040F253
:100F40003403C2F200031C8840F23403C2F20003EF
:100F50009B7918464FF0280100F08EFA034622468E
:100F600013439AB240F23403C2F200031A8040F2F3
:100F70003403C2F200039B7918464FF02B0100F0B6
:100F80007BFA03464FEA03239AB240F23403C2F2DB
:100F900000035A8040F23403C2F200035C8840F23E
:100FA0003403C2F200039B7918464FF02A0100F087
:100FB00063FA0346224613439AB240F23403C2F264
:100FC00000035A8040F23403C2F200039B791846B2
:100FD0004FF02D0100F050FA03464FEA03239AB276
:100FE00040F23403C2F200039A8040F23403C2F2AA
:100FF00000039C8840F23403C2F200039B79184638
:101000004FF02C0100F038FA0346224613439AB2FF
:1010100040F23403C2F200039A8040F26803C2F245
:1010200000039B7918464FF0290100F025FA03468A
:101030004FEA03239AB240F26803C2F200031A8017
:1010400040F26803C2F200031C8840F26803C2F257
:1010500000039B7918464FF0280100F00DFA034673
:10106000224613439AB240F26803C2F200031A8088
:1010700040F26803C2F200039B7918464FF02B013F
:1010800000F0FAF903464FEA03239AB240F26803EC
:10109000C2F200035A8040F26803C2F200035C8887
:1010A00040F26803C2F200039B7918464FF02A0110
:1010B00000F0E2F90346224613439AB240F2680375
:1010C000C2F200035A8040F26803C2F200039B7927
:1010D00018464FF02D0100F0CFF903464FEA0323E5
:1010E0009AB240F26803C2F200039A8040F26803A9
:1010F000C2F200039C8840F26803C2F200039B79AD
:1011000018464FF02C0100F0B7F90346224613436E
:101110009AB240F26803C2F200039A8040F2500390
:10112000C2F200039B7918464FF0010100F0A4F9C8
:1011300003464FEA03239AB240F25003C2F200037F
:101140001A8040F25003C2F200031C8840F25003A0
:10115000C2F200039B7918464FF0020100F08CF9AF
:101160000346224613439AB240F25003C2F20003F0
:101170001A8040F25003C2F200039B7918464FF0E8
:10118000030100F079F903464FEA03239AB240F2D3
:101190005003C2F200035A8040F25003C2F200032F
:1011A0005C8840F25003C2F200039B7918464FF06E
:1011B000040100F061F90346224613439AB240F25B
:1011C0005003C2F200035A8040F25003C2F20003FF
:1011D0009B7918464FF0050100F04EF903464FEA9F
:1011E00003239AB240F25003C2F200039A8040F205
:1011F0005003C2F200039C8840F25003C2F2000385
:101200009B7918464FF0060100F036F90346224656
:1012100013439AB240F25003C2F200039A8098BD81
:1012200080B400AF4FF48063C4F201035B6903F044
:101230000803002B0BD04FF48063C4F201034FF47A
:101240008062C4F20102526942F008025A61BD464E
:1012500080BC704780B400AF4FF48063C4F20103D8
:101260005B6903F01003002B0BD04FF48063C4F2D2
:1012700001034FF48062C4F20102526942F010028D
:101280005A61BD4680BC704780B400AF4FF48063A4
:10129000C4F201035B6903F02003002B0BD04FF471
:1012A0008063C4F201034FF48062C4F20102526908
:1012B00042F020025A61BD4680BC704780B584B0C0
:1012C00000AF13460246FA710A46BA717B71BB79C8
:1012D0003B737B797B73FA7907F10C03104619464F
:1012E0004FF0020200F004F807F11007BD4680BD80
:1012F00080B586B000AF0346B9607A60FB7307E043
:10130000FFF76AFD0346002B02D0FFF7A5FDAFE013
:101310004FF4B043C4F200031B8B9BB203F00203F3
:10132000002BEDD14FF4B043C4F200034FF4B042B0
:10133000C4F20002128892B242F4807292B21A8011
:1013400007E0FFF749FD0346002B02D0FFF784FDBD
:101350008EE04FF4B043C4F200039B8A9BB203F0CB
:101360000103002BEDD04FF4B043C4F200039B8A7D
:101370009BB27B614FF4B043C4F20003FA7B92B29C
:101380001A8207E0FFF728FD0346002B02D0FFF783
:1013900063FD6DE04FF4B043C4F200039B8A9BB23F
:1013A00003F00203002BEDD04FF4B043C4F200036E
:1013B0009B8A9BB27B614FF4B043C4F200031B8B4A
:1013C0009BB27B611DE0FFF707FD0346002B03D0B6
:1013D000FFF742FD4CE000BF4FF4B043C4F20003FE
:1013E0009B8A9BB203F08003002BECD04FF4B043F8
:1013F000C4F20003BA6812781A82BB6803F10103D1
:10140000BB607B68002B0CBF00230123DBB27A6832
:1014100002F1FF327A60002BDDD107E0FFF7DCFC40
:101420000346002B02D0FFF717FD21E04FF4B04335
:10143000C4F200039B8A9BB203F08003002BEDD023
:101440004FF4B043C4F200039B8A9BB203F0040341
:10145000002BE3D04FF4B043C4F200034FF4B0428A
:10146000C4F20002128892B242F4007292B21A8060
:1014700007F11807BD4680BD80B584B000AF0246B5
:101480000B46FA71BB71F979BA7907F10C0308467A
:1014900011461A464FF0010300F006F83B7B184650
:1014A00007F11007BD4680BD80B584B000AF3A603B
:1014B0000246FA710A46BA717B7107E0FFF78CFCAD
:1014C0000346002B02D0FFF7C7FC12E14FF4B043F4
:1014D000C4F200031B8B9BB203F00203002BEDD17F
:1014E0004FF4B043C4F200034FF4B042C4F2000220
:1014F000128892B242F4807292B21A8007E0FFF72B
:101500006BFC0346002B02D0FFF7A6FCF1E04FF482
:10151000B043C4F200039B8A9BB203F00103002B8B
:10152000EDD04FF4B043C4F20003FA7992B21A82BC
:1015300007E0FFF751FC0346002B02D0FFF78CFCBD
:10154000D7E04FF4B043C4F200039B8A9BB203F090
:101550000203002BEDD04FF4B043C4F200031B8B09
:101560009BB2FB6007E0FFF737FC0346002B02D07D
:10157000FFF772FCBDE04FF4B043C4F200039B8A56
:101580009BB203F08003002BEDD04FF4B043C4F2C4
:101590000003BA7992B21A8207E0FFF71DFC0346F6
:1015A000002B02D0FFF758FCA3E04FF4B043C4F285
:1015B00000039B8A9BB203F00403002BEDD04FF491
:1015C000B043C4F200034FF4B042C4F200021288E8
:1015D00092B242F4807292B21A8007E0FFF7FCFBED
:1015E0000346002B02D0FFF737FC82E04FF4B043F4
:1015F000C4F200039B8A9BB203F00103002BEDD0E1
:101600004FF4B043C4F20003FA7942F00102D2B2BF
:101610001A8207E0FFF7E0FB0346002B02D0FFF73A
:101620001BFC66E04FF4B043C4F200039B8A9BB2FC
:1016300003F00203002BEDD04FF4B043C4F20003DB
:101640001B8B9BB2FB604FF4B043C4F200034FF41A
:10165000B042C4F20002128892B242F4806292B2A6
:101660001A8035E07B79012B16D14FF4B043C4F2D8
:1016700000034FF4B042C4F20002128892B222F486
:10168000806292B21A8007E0FFF7A6FB0346002BA8
:1016900003D0FFF7E1FB2CE000BF4FF4B043C4F2EE
:1016A00000039B8A9BB203F04003002BECD04FF465
:1016B000B043C4F200031B8A9BB2DAB23B681A70D3
:1016C0003B6803F101033B607B7903F1FF337B71DE
:1016D0007B79002BC6D14FF4B043C4F200034FF422
:1016E000B042C4F20002128892B242F4007292B286
:1016F0001A8007F11007BD4680BD00BF80B400AF5F
:101700004FF00803C4F202034FF002025A604FF098
:101710000803C4F2020342F24C42C4F201029A608E
:101720004FF00803C4F2020340F28402C2F2000246
:10173000DA604FF00803C4F202034FF4B4621A6097
:101740004FF00803C4F202034FF00802C4F2020291
:10175000126842F001021A604FF41053C4F2010300
:1017600040F20312C0F280029A604FF41053C4F2A8
:1017700001034FF48012DA624FF41053C4F20103F4
:101780004FF488725A634FF41053C4F201034FF4BC
:101790001052C4F20102126942F0E0621A614FF481
:1017A0001053C4F201034FF41052C4F20102D26884
:1017B00042F4E012DA604FF41053C4F201034FF424
:1017C00080725A604FF41053C4F201034FF4105268
:1017D000C4F20102926842F001029A60BD4680BCE8
:1017E000704700BF80B400AF4FF48843C4F20003D9
:1017F0004FF49C721A814FF48843C4F2000342F202
:101800000C029A81BD4680BC704700BF80F000404A
:1018100002E000BF81F0004142001FBF5FEA4103C8
:1018200092EA030F7FEA226C7FEA236C6AD04FEAC8
:101830001262D2EB1363C1BFD2184140484041400D
:10184000B8BF5B42192B88BF704710F0004F40F4BF
:10185000000020F07F4018BF404211F0004F41F4DB
:10186000000121F07F4118BF494292EA030F3FD0A7
:10187000A2F1010241FA03FC10EB0C00C3F12003BA
:1018800001FA03F100F0004302D5494260EB400049
:10189000B0F5000F13D3B0F1807F06D340084FEAB4
:1018A000310102F10102FE2A51D2B1F1004F40EBA9
:1018B000C25008BF20F0010040EA03007047490011
:1018C00040EB000010F4000FA2F10102EDD1B0FADC
:1018D00080FCACF1080CB2EB0C0200FA0CF0AABFD1
:1018E00000EBC25052421843BCBFD040184370476F
:1018F00092F0000F81F4000106BF80F40000013275
:10190000013BB5E74FEA41037FEA226C18BF7FEA4B
:10191000236C21D092EA030F04D092F0000F08BF8D
:101920000846704790EA010F1CBF0020704712F074
:101930007F4F04D1400028BF40F00040704712F1B3
:1019400000723CBF00F50000704700F0004343F018
:10195000FE4040F4000070477FEA226216BF08464E
:101960007FEA23630146420206BF5FEA412390EA11
:10197000010F40F4800070474FF0000304E000BF07
:1019800010F0004348BF40425FEA000C08BF7047B8
:1019900043F0964301464FF000001CE050EA01027C
:1019A00008BF70474FF000030AE000BF50EA010291
:1019B00008BF704711F0004302D5404261EB41017E
:1019C0005FEA010C02BF84460146002043F0B643A3
:1019D00008BFA3F18053A3F50003BCFA8CF2083AC8
:1019E000A3EBC25310DB01FA02FC634400FA02FCD1
:1019F000C2F12002BCF1004F20FA02F243EB0200D8
:101A000008BF20F00100704702F1200201FA02FC39
:101A1000C2F1200250EA4C0021FA02F243EB02002C
:101A200008BF20EADC7070474FF0FF0C1CEAD05270
:101A30001EBF1CEAD15392EA0C0F93EA0C0F6FD031
:101A40001A4480EA010C400218BF5FEA41211ED00F
:101A50004FF0006343EA501043EA5111A0FB0131FB
:101A60000CF00040B1F5000F3EBF490041EAD371D0
:101A70005B0040EA010062F17F02FD2A1DD8B3F14C
:101A8000004F40EBC25008BF20F00100704790F0BB
:101A9000000F0CF0004C08BF49024CEA502040EA0D
:101AA00051207F3AC2BFD2F1FF0340EAC2507047D3
:101AB00040F400004FF00003013A5DDC12F1190F11
:101AC000DCBF00F000407047C2F10002410021FA83
:101AD00002F1C2F1200200FA02FC5FEA310040F19B
:101AE000000053EA4C0308BF20EADC70704792F014
:101AF000000F00F0004C02BF400010F4000F013A4C
:101B0000F9D040EA0C0093F0000F01F0004C02BF46
:101B1000490011F4000F013BF9D041EA0C018FE7B5
:101B20000CEAD15392EA0C0F18BF93EA0C0F0AD0BB
:101B300030F0004C18BF31F0004CD8D180EA0100E1
:101B400000F00040704790F0000F17BF90F0004F7A
:101B5000084691F0000F91F0004F14D092EA0C0F5C
:101B600001D142020FD193EA0C0F03D14B0218BFEF
:101B7000084608D180EA010000F0004040F0FE4035
:101B800040F40000704740F0FE4040F440007047D1
:101B90004FF0FF0C1CEAD0521EBF1CEAD15392EA50
:101BA0000C0F93EA0C0F69D0A2EB030280EA010C40
:101BB00049024FEA402037D04FF0805343EA1111D9
:101BC00043EA10130CF000408B4238BF5B0042F137
:101BD0007D024FF4000C8B4224BF5B1A40EA0C00DC
:101BE000B3EB510F24BFA3EB510340EA5C00B3EB0E
:101BF000910F24BFA3EB910340EA9C00B3EBD10FFC
:101C000024BFA3EBD10340EADC001B0118BF5FEA4D
:101C10001C1CE0D1FD2A3FF650AF8B4240EBC25076
:101C200008BF20F0010070470CF0004C4CEA502037
:101C30007F32C2BFD2F1FF0340EAC250704740F486
:101C400000004FF00003013A37E792F0000F00F078
:101C5000004C02BF400010F4000F013AF9D040EAF6
:101C60000C0093F0000F01F0004C02BF490011F48A
:101C7000000F013BF9D041EA0C0195E70CEAD15382
:101C800092EA0C0F08D142027FF47DAF93EA0C0F69
:101C90007FF470AF084676E793EA0C0F04D14B024D
:101CA0003FF44CAF08466EE730F0004C18BF31F0FF
:101CB000004CCAD130F000427FF45CAF31F00043F9
:081CC0007FF43CAF5FE700BFB9
:101CC80084012142B08121428401224288012242BA
:0400000508000000EF
:00000001FF
