:020000040800F2
:100000005004002075050008E5050008B31000083D
:10001000E5050008E5050008E5050008000000000A
:10002000000000000000000000000000E5050008DE
:10003000E505000800000000E5050008E5050008EA
:10004000E5050008E5050008E5050008E5050008E8
:10005000E5050008E5050008E5050008E5050008D8
:10006000E5050008B1170008E5170008E5050008D8
:10007000E5050008E5050008E5050008E5050008B8
:10008000E5050008E5050008E5050008E5050008A8
:10009000E5050008E5050008E50500081918000851
:1000A000E5050008B90F0008E5050008E5050008AA
:1000B000C50F0008E1010008E5050008E505000896
:1000C000E5050008E5050008E5050008E505000868
:1000D000E5050008E5050008E5050008E505000858
:1000E000E5050008E5050008E5050008000000003A
:1000F0000000000000000000000000000000000000
:1001000000000000000000005FF808F180B582B038
:1001100000AF78607B684FF0040019464FF0000292
:1001200000F0BCFF0346002B00BF07F10807BD46E7
:1001300080BD00BF80B483B000AF0346FB714FF4B5
:100140006143CEF2000397F907204FEA5212F97982
:1001500001F01F014FF0010000FA01F143F82210F5
:1001600007F10C07BD4680BC704700BF80B500AFEB
:100170004FF48063C4F200034FF078021A854FF405
:100180008063C4F200034FF47A729A854FF480635F
:10019000C4F200034FF00002A3F840204FF4806344
:1001A000C4F200034FF4C0429A834FF48063C4F258
:1001B00000034FF480521A844FF48063C4F20003AA
:1001C0004FF001029A814FF48063C4F200034FF0B4
:1001D00001021A804FF01D00FFF7ACFF80BD00BF89
:1001E00080B400AF4FF48063C4F200031B8A9BB25B
:1001F00003F00103002B00F08A804FF48063C4F207
:1002000000034FF48062C4F20002128A92B222F01C
:10021000010292B21A8240F21403C2F200031B6878
:10022000022B41D140F21003C2F200031B684FF4CD
:10023000967202FB03F240F22403C2F200031B6831
:1002400092FBF3F240F21C03C2F200031B689A42D5
:100250001EDA4FF48063C4F200034FF48062C4F2EC
:100260000002B2F8402092B2002A06D140F22002E9
:10027000C2F20002126892B201E04FF00002A3F84D
:10028000402040F21C03C2F200034FF000021A604B
:1002900040F21C03C2F200031B6803F1010240F2AA
:1002A0001C03C2F200031A6040F21003C2F2000302
:1002B0001B684FF4967202FB03F240F21803C2F27D
:1002C00000031B689A4216DA4FF48063C4F20003FD
:1002D0004FF00002A3F840204FF48063C4F2000303
:1002E0004FF48062C4F20002128892B222F001023E
:1002F00092B21A800BE040F21803C2F200031B68AE
:1003000003F1010240F21803C2F200031A60BD4675
:1003100080BC704780B500AF4FF48053C4F2020335
:100320004FF48052C4F20202126842F001021A60D5
:100330004FF48052C4F202024FF48053C4F202031D
:1003400059684FF00003CFF6FF030B4053604FF4A2
:100350008053C4F202034FF48052C4F202021268C6
:1003600022F0847222F480321A604FF48053C4F277
:1003700002034FF48052C4F20202126822F4802277
:100380001A604FF48053C4F202034FF48052C4F257
:100390000202526822F4FE025A604FF48053C4F203
:1003A00002034FF41F029A6000F008F84FF46D4307
:1003B000CEF200034FF000629A6080BD80B500AFBE
:1003C00000F002F880BD00BF80B483B000AF4FF0F2
:1003D00000037B604FF000033B604FF48053C4F296
:1003E00002034FF48052C4F20202126842F48032D7
:1003F0001A604FF48053C4F202031B6803F4003305
:100400003B607B6803F101037B603B68002B03D1F9
:100410007B68B3F5A06FECD14FF48053C4F20203B4
:100420001B6803F40033002B03D04FF001033B6043
:1004300002E04FF000033B603B68012B40F09480EA
:100440004FF40053C4F202034FF40052C4F202020C
:10045000126842F010021A604FF40053C4F2020313
:100460004FF40052C4F20202126822F003021A6032
:100470004FF40053C4F202034FF40052C4F20202DC
:10048000126842F002021A604FF48053C4F2020371
:100490004FF48052C4F2020252685A604FF4805303
:1004A000C4F202034FF48052C4F2020252685A604E
:1004B0004FF48053C4F202034FF48052C4F202029C
:1004C000526842F480625A604FF48053C4F20203CF
:1004D0004FF48052C4F20202526822F47C125A6035
:1004E0004FF48053C4F202034FF48052C4F202026C
:1004F000526842F4E8125A604FF48053C4F2020387
:100500004FF48052C4F20202126842F080721A6004
:1005100000BF4FF48053C4F202031B6803F0007362
:10052000002BF6D04FF48053C4F202034FF48052F4
:10053000C4F20202526822F003025A604FF4805360
:10054000C4F202034FF48052C4F20202526842F035
:1005500002025A6000BF4FF48053C4F202035B688A
:1005600003F00C03082BF6D107F10C07BD4680BC45
:10057000704700BF80B582B000AF41F68053C0F62F
:1005800000037B6040F20003C2F200033B600BE01B
:100590007B681A683B681A603B6803F104033B60A0
:1005A0007B6803F104037B603A6840F21003C2F2F7
:1005B00000039A42ECD3094809494FF000028842EF
:1005C000B8BF40F8042BFFF6FAAFFFF7A3FE00F028
:1005D0000DF807F10807BD4680BD0000100000209F
:1005E0004C00002080B400AFFEE700BF80B582B0B1
:1005F00000AF4FF000037B6003E07B6803F1010371
:100600007B607A684AF21F13C0F207039A42F4DD56
:1006100000F056F800F0B4FC00F0DEF800F056FDF3
:1006200040F22C03C2F200034FF000021A6000F007
:10063000B5FD40F22C03C2F200031B68002BEFD182
:10064000FFF794FD01F022FB00F02CFF40F238038D
:10065000C2F200031B881BB2386841F67451C0F621
:1006600000011A4600F058FC3868FFF74FFD40F2D1
:100670003803C2F200035B881BB2386841F674513C
:10068000C0F600011A4600F047FC3868FFF73EFD4F
:1006900040F23803C2F200039B881BB2386841F66F
:1006A0007851C0F600011A4600F036FC3868FFF7B2
:1006B0002DFD4FF48053C4F201039B68C4E700BFD3
:1006C00080B400AF4FF48053C4F202034FF4803281
:1006D0001A6000BF4FF48053C4F202031B6803F496
:1006E0000033002BF6D04FF40053C4F202034FF452
:1006F0000052C4F20202126842F002021A604FF481
:100700008053C4F202034FF48052C4F20202126812
:1007100042F400221A604FF48053C4F202034FF4F3
:100720004442C0F21D025A604FF48053C4F20203E7
:100730004FF48052C4F20202126842F080721A60D2
:1007400000BF4FF48053C4F202031B6803F0007330
:10075000002BF6D04FF48053C4F202034FF48052C2
:10076000C4F20202526842F002025A6000BF4FF423
:100770008053C4F202035B6803F00803002BF6D039
:100780004FF48053C4F202034FF48052C4F20202C9
:10079000D26942F4840242F00702DA614FF48053D6
:1007A000C4F202034FF48052C4F20202926942F48E
:1007B000D05242F01D029A614FF48053C4F20203FA
:1007C0004FF48052C4F20202526942F001025A61AF
:1007D000BD4680BC704700BF80B400AF4FF40062DC
:1007E000C4F201024FF40063C4F2010319684FF22E
:1007F0003F33C3F233330B4013604FF40062C4F253
:1008000001024FF40063C4F2010319684FF630335C
:10081000CBF6B3330B4313604FF44063C4F20103D0
:100820004FF44062C4F20102126822F04C4222F0FE
:10083000CC021A604FF44063C4F201034FF44062EB
:10084000C4F20102126842F03B4242F0B0021A6068
:100850004FF44062C4F201024FF44063C4F201035A
:1008600059684FF6BB73C0F233330B4353604FF4F8
:100870004063C4F201034FF44062C4F201025268C3
:1008800022F04C6222F440225A604FF48053C4F2AA
:1008900001034FF48052C4F20102126842F44C5238
:1008A00042F030021A604FF48053C4F201034FF457
:1008B0008052C4F20102126822F44C4222F0C002BB
:1008C0001A604FF48053C4F201034FF48052C4F213
:1008D0000102526822F440025A604FF48053C4F27D
:1008E00001034FF48052C4F20102526842F4000244
:1008F0005A604FF48053C4F201034FF48052C4F2A3
:100900000102D26842F40052DA60BD4680BC7047F2
:1009100080B483B000AF78600B46FB707B68FA78D8
:100920001A704FF00103184607F10C07BD4680BC52
:10093000704700BF80B485B000AF786039604FF079
:100940000003FB600FE03B681A787B681A707B68D5
:1009500003F101037B603B6803F101033B60FB682B
:1009600003F10103FB603B681B78002BEBD1FB68B4
:10097000184607F11407BD4680BC704780B586B0A5
:1009800000AFF8607A603B600B46FB724FF00003EB
:100990007B617B6803F1FF337B603B68092B25D9C2
:1009A0003A684CF6CD43CCF6CC43A3FB02134FEA96
:1009B000D303FA7AF86811467A68FFF7DFFF7861A7
:1009C0007B69FA68D318FB6013E0FB7AF868194674
:1009D000FFF79EFFFB6803F10103FB607B6903F1F6
:1009E00001037B617B6803F1FF337B607B68002B35
:1009F000EBDC39684CF6CD43CCF6CC43A3FB0123AA
:100A00004FEAD30213464FEA83039B184FEA43038E
:100A1000CA1AD3B203F13003DBB2F8681946FFF704
:100A200077FF03467A69D3187B617B69184607F123
:100A30001807BD4680BD00BF80B586B000AFF86026
:100A40007A603B600B46FB724FF000037B613B68B2
:100A5000002B04DA3B68C3F100033B6101E03B6813
:100A60003B617B6803F1FF337B603B69092B2AD92B
:100A70003B68002B12DA3A694CF6CD43CCF6CC43F6
:100A8000A3FB02134FEAD303C3F10003FA7AF86819
:100A900011467A68FFF7D0FF78610FE03A694CF6AB
:100AA000CD43CCF6CC43A3FB02134FEAD303FA7A2F
:100AB000F86811467A68FFF7BFFF78617B69FA68CA
:100AC000D318FB602BE03B68002B15DA7B6803F141
:100AD000FF337B6010E0FB7AF8681946FFF718FFD8
:100AE000FB6803F10103FB607B6903F101037B6198
:100AF0007B6803F1FF337B607B68002BEBDC3B689A
:100B0000002B0CDAF8684FF02D01FFF701FF0346C8
:100B10007A69D3187B61FB6803F10103FB603969D3
:100B20004CF6CD43CCF6CC43A3FB01234FEAD302D2
:100B300013464FEA83039B184FEA4303CA1AD3B202
:100B400003F13003DBB2F8681946FFF7E1FE034614
:100B50007A69D3187B617B69184607F11807BD468F
:100B600080BD00BF80B588B002AFF8607A600A46E9
:100B7000FA72BB724FF000037B617B6803F1FF33B5
:100B80007B603B6A4FEA1313002B24D03B6A4FEA89
:100B90001311FA7ABB7A0091F86811467A68FFF768
:100BA000E1FF03467A69D3187B617B69FA68D31841
:100BB000FB6013E0FB7AF8681946FFF7A9FEFB68B3
:100BC00003F10103FB607B6903F101037B617B6837
:100BD00003F1FF337B607B68002BEBDC3B6A03F0A7
:100BE0000F03092B0CD83B6ADBB203F00F03DBB217
:100BF00003F13003DBB2F8681946FFF789FE1BE00A
:100C0000BB7A002B0CD03B6ADBB203F00F03DBB2E4
:100C100003F13703DBB2F8681946FFF779FE0BE002
:100C20003B6ADBB203F00F03DBB203F15703DBB225
:100C3000F8681946FFF76CFE7B6903F101037B61DD
:100C40007B69184607F11807BD4680BD80B58AB09C
:100C500002AFF860B9607A603B604FF00003BB619F
:100C60004FF000037B61FB68002B00F01C81FB68E8
:100C70004FF000021A7016E17B681B78252B10D00C
:100C80007B681A78FB681A70FB6803F10103FB604C
:100C90007B6803F101037B607B6903F101037B61E6
:100CA00002E17B6803F101031B78252B10D1FB685F
:100CB0004FF025021A70FB6803F10103FB607B68AB
:100CC00003F102037B607B6903F101037B61EBE0CD
:100CD0004FF02003FB774FF00003BB777B6803F1F5
:100CE00001037B607B681B78302B1BD14FF03003F6
:100CF000FB777B6803F101037B6013E0BB7F1A463F
:100D00004FEA8202D3184FEA4303DAB27B681B78BA
:100D1000D318DBB2A3F13003BB777B6803F1010387
:100D20007B6000E000BF7B681B782F2B03D97B68BA
:100D30001B78392BE2D9BA7F7B69D3181A46BB6876
:100D40009A4205D9BB68DAB27B69DBB2D31ABB77AA
:100D50007B681B78A3F15803202B00F2948001A23A
:100D600052F823F0390E0008870E0008870E00089D
:100D7000870E0008870E0008870E0008870E0008FF
:100D8000870E0008870E0008870E0008870E0008EF
:100D90006F0E0008E90D0008870E0008870E000896
:100DA000870E0008870E0008E90D0008870E00086E
:100DB000870E0008870E0008870E0008870E0008BF
:100DC000870E0008870E0008870E0008870E0008AF
:100DD000590E0008870E0008010E0008870E000853
:100DE000870E0008190E0008BA7F3B6803F1040162
:100DF00039601B68F97FF868FFF71EFEB86145E0AF
:100E0000BA7F3B6803F1040139601B68F97FF86819
:100E1000FFF7B4FDB86139E0BA7F3B6803F1040124
:100E200039601968FB7F0091F86819464FF000039C
:100E3000FFF798FEB86129E0BA7F3B6803F104012F
:100E400039601968FB7F0091F86819464FF001037B
:100E5000FFF788FEB86119E03B6803F104023A60CD
:100E60001B68F8681946FFF765FDB8610EE03B683E
:100E700003F104023A601B68DBB2F8681946FFF719
:100E800047FDB86102E04FF0FF332CE07B6803F1CF
:100E900001037B60BB69FA68D318FB607A69BB69A0
:100EA000D3187B6100E000BF7B681B78002B04D067
:100EB0007A69BB689A42FFF4DFAE7A69BB689A42EE
:100EC00004D2FB684FF000021A700BE0FB6803F1DC
:100ED000FF33FB60FB684FF000021A707B6903F17F
:100EE000FF337B617B69184607F12007BD4680BD53
:100EF00080B584B000AFF860B9607A60F8684FF0F0
:100F00006401BA687B68FFF7A1FE0346184607F143
:100F10001007BD4680BD00BF0EB480B585B000AFE0
:100F2000786007F12003BB607868F969BA68FFF759
:100F3000DFFFF860FB68184607F11407BD46BDE8FF
:100F4000804003B0704700BF80B483B000AF034659
:100F5000FB714FF46143CEF2000397F907204FEA8B
:100F60005212F97901F01F014FF0010000FA01F16E
:100F700043F8221007F10C07BD4680BC704700BF44
:100F800080B500AF4FF0804345F6BF521A854FF051
:100F900080434FF47A729A854FF080434FF00102FC
:100FA0009A814FF080434FF001021A804FF01C00ED
:100FB000FFF7CAFF80BD00BF80B400AFBD4680BC54
:100FC000704700BF80B400AF4FF080431B8A9BB2D4
:100FD00003F00103002B5ED04FF080434FF08042BE
:100FE000128A92B222F0010292B21A824FF4805316
:100FF000C4F201034FF48052C4F20102D26882F0BD
:101000000802DA6040F22803C2F200031A6840F2D4
:101010000003C2F2000353F822304FF001021A60BD
:1010200040F22803C2F200031B68002B10DD40F2DF
:101030002803C2F200031B6803F1FF3240F20003F1
:10104000C2F2000353F822304FF000021A6007E0AA
:1010500040F20003C2F20003DB684FF000021A60A6
:1010600040F22803C2F200031B68032B07D140F2B1
:101070002803C2F200034FF000021A600BE040F2B6
:101080002803C2F200031B6803F1010240F22803A7
:10109000C2F200031A60BD4680BC7047ABBE00F0D0
:1010A00002B800207047002A00F001801060012083
:1010B000704706980188044A914240F0038004304A
:1010C00006907047FEE70000ABBE000080B400AFA2
:1010D0004FF40063C4F200034FF479421A854FF4D1
:1010E0000063C4F200034FF47A729A854FF40063F0
:1010F000C4F2000346F260021A834FF40063C4F2A4
:10110000000346F260029A834FF40063C4F20003C6
:1011100041F211121A844FF40063C4F200034FF03D
:1011200001021A804FF40063C4F200034FF0000282
:101130009A864FF40063C4F200034FF000021A874E
:101140004FF40063C4F200034FF000029A874FF49B
:101150000063C4F200034FF00002A3F84020BD4634
:1011600080BC704780B483B000AF0346FB714FF47E
:101170006143CEF2000397F907204FEA5212F97942
:1011800001F01F014FF0010000FA01F143F82210B5
:1011900007F10C07BD4680BC704700BF80B500AFAB
:1011A00000F022F940F24403C2F200034FF0D402EF
:1011B0009A7140F23003C2F200034FF030029A718C
:1011C00040F23803C2F200034FF01C029A7140F261
:1011D0003003C2F200039B7918464FF020014FF014
:1011E000970200F033FB40F23003C2F200039B7918
:1011F00018464FF021014FF0000200F027FB40F2AB
:101200003003C2F200039B7918464FF022014FF0E1
:10121000080200F01BFB40F23003C2F200039B798E
:1012200018464FF023014FF0280200F00FFB40F268
:101230003003C2F200039B7918464FF024014FF0AF
:10124000400200F003FB40F24403C2F200039B792A
:1012500018464FF020014FF00F0200F0F7FA40F26D
:101260004403C2F200039B7918464FF021014FF06E
:10127000000200F0EBFA40F24403C2F200039B7953
:1012800018464FF022014FF0000200F0DFFA40F262
:101290004403C2F200039B7918464FF023014FF03C
:1012A000200200F0D3FA40F24403C2F200039B791B
:1012B00018464FF024014FF0000200F0C7FA40F248
:1012C0003803C2F200039B7918464FF011014FF02A
:1012D000800200F0BBFA40F23803C2F200039B79AF
:1012E00018464FF010014FF0010200F0AFFA4FF036
:1012F0000003C4F201034FF00002C4F2010292683D
:1013000042F480529A604FF00003C4F201034FF0A0
:101310000002C4F20102D26842F02202DA604FF405
:101320008063C4F201034FF48062C4F201021268C8
:1013300042F038021A604FF48063C4F201034FF4A4
:101340008062C4F20102926842F038029A604FF063
:101350000900FFF707FF4FF00A00FFF703FF4FF008
:101360001700FFF7FFFE80BD80B400AF4FF4B0431D
:10137000C4F200039B8A9BB203F480424FF4B04353
:10138000C4F200039B8A9BB203F480531A434FF4C8
:10139000B043C4F200039B8A9BB203F480631A43F8
:1013A0004FF4B043C4F200039B8A9BB203F4007372
:1013B0001A434FF4B043C4F200039B8A9BB203F478
:1013C00080731343002B09D040F22C03C2F20003B8
:1013D0004FF001021A604FF0010301E04FF00003EB
:1013E0001846BD4680BC704780B400AF4FF4B04390
:1013F000C4F200034FF4B042C4F20002128892B269
:1014000022F0010292B21A804FF4B043C4F20003FA
:101410004FF4B042C4F20002128892B26FEA424224
:101420006FEA524292B21A804FF4B043C4F2000302
:101430004FF4B042C4F20002128892B24FEA424224
:101440004FEA524292B21A804FF4B043C4F2000302
:101450004FF025021A844FF4B043C4F200034FF05A
:10146000A0029A834FF4B043C4F200034FF4B04299
:10147000C4F20002928892B242F0240292B29A80A0
:101480004FF4B043C4F200034FF4B042C4F2000280
:10149000128892B242F0010292B21A80BD4680BC1C
:1014A000704700BF98B500AF40F23003C2F20003AE
:1014B0009B7918464FF0290100F0A6FA03464FEA3F
:1014C00003239AB240F23003C2F200031A8040F2C2
:1014D0003003C2F200031C8840F23003C2F2000362
:1014E0009B7918464FF0280100F08EFA03462246F9
:1014F00013439AB240F23003C2F200031A8040F262
:101500003003C2F200039B7918464FF02B0100F024
:101510007BFA03464FEA03239AB240F23003C2F249
:1015200000035A8040F23003C2F200035C8840F2AC
:101530003003C2F200039B7918464FF02A0100F0F5
:1015400063FA0346224613439AB240F23003C2F2D2
:1015500000035A8040F23003C2F200039B79184620
:101560004FF02D0100F050FA03464FEA03239AB2E0
:1015700040F23003C2F200039A8040F23003C2F21C
:1015800000039C8840F23003C2F200039B791846A6
:101590004FF02C0100F038FA0346224613439AB26A
:1015A00040F23003C2F200039A8040F24403C2F2D8
:1015B00000039B7918464FF0290100F025FA0346F5
:1015C0004FEA03239AB240F24403C2F200031A80A6
:1015D00040F24403C2F200031C8840F24403C2F20A
:1015E00000039B7918464FF0280100F00DFA0346DE
:1015F000224613439AB240F24403C2F200031A8017
:1016000040F24403C2F200039B7918464FF02B01CD
:1016100000F0FAF903464FEA03239AB240F244037A
:10162000C2F200035A8040F24403C2F200035C8815
:1016300040F24403C2F200039B7918464FF02A019E
:1016400000F0E2F90346224613439AB240F2440303
:10165000C2F200035A8040F24403C2F200039B79B5
:1016600018464FF02D0100F0CFF903464FEA03234F
:101670009AB240F24403C2F200039A8040F244035B
:10168000C2F200039C8840F24403C2F200039B793B
:1016900018464FF02C0100F0B7F9034622461343D9
:1016A0009AB240F24403C2F200039A8040F2380337
:1016B000C2F200039B7918464FF0010100F0A4F933
:1016C00003464FEA03239AB240F23803C2F2000302
:1016D0001A8040F23803C2F200031C8840F238033B
:1016E000C2F200039B7918464FF0020100F08CF91A
:1016F0000346224613439AB240F23803C2F2000373
:101700001A8040F23803C2F200039B7918464FF06A
:10171000030100F079F903464FEA03239AB240F23D
:101720003803C2F200035A8040F23803C2F20003C9
:101730005C8840F23803C2F200039B7918464FF0F0
:10174000040100F061F90346224613439AB240F2C5
:101750003803C2F200035A8040F23803C2F2000399
:101760009B7918464FF0050100F04EF903464FEA09
:1017700003239AB240F23803C2F200039A8040F287
:101780003803C2F200039C8840F23803C2F200031F
:101790009B7918464FF0060100F036F903462246C1
:1017A00013439AB240F23803C2F200039A8098BD04
:1017B00080B400AF4FF48063C4F201035B6903F0AF
:1017C0000803002B0BD04FF48063C4F201034FF4E5
:1017D0008062C4F20102526942F008025A61BD46B9
:1017E00080BC704780B400AF4FF48063C4F2010343
:1017F0005B6903F01003002B0BD04FF48063C4F23D
:1018000001034FF48062C4F20102526942F01002F7
:101810005A61BD4680BC704780B400AF4FF480630E
:10182000C4F201035B6903F02003002B0BD04FF4DB
:101830008063C4F201034FF48062C4F20102526972
:1018400042F020025A61BD4680BC704780B584B02A
:1018500000AF13460246FA710A46BA717B71BB7932
:101860003B737B797B73FA7907F10C0310461946B9
:101870004FF0020200F004F807F11007BD4680BDEA
:1018800080B586B000AF0346B9607A60FB7307E0AD
:10189000FFF76AFD0346002B02D0FFF7A5FDAFE07E
:1018A0004FF4B043C4F200031B8B9BB203F002035E
:1018B000002BEDD14FF4B043C4F200034FF4B0421B
:1018C000C4F20002128892B242F4807292B21A807C
:1018D00007E0FFF749FD0346002B02D0FFF784FD28
:1018E0008EE04FF4B043C4F200039B8A9BB203F036
:1018F0000103002BEDD04FF4B043C4F200039B8AE8
:101900009BB27B614FF4B043C4F20003FA7B92B206
:101910001A8207E0FFF728FD0346002B02D0FFF7ED
:1019200063FD6DE04FF4B043C4F200039B8A9BB2A9
:1019300003F00203002BEDD04FF4B043C4F20003D8
:101940009B8A9BB27B614FF4B043C4F200031B8BB4
:101950009BB27B611DE0FFF707FD0346002B03D020
:10196000FFF742FD4CE000BF4FF4B043C4F2000368
:101970009B8A9BB203F08003002BECD04FF4B04362
:10198000C4F20003BA6812781A82BB6803F101033B
:10199000BB607B68002B0CBF00230123DBB27A689D
:1019A00002F1FF327A60002BDDD107E0FFF7DCFCAB
:1019B0000346002B02D0FFF717FD21E04FF4B043A0
:1019C000C4F200039B8A9BB203F08003002BEDD08E
:1019D0004FF4B043C4F200039B8A9BB203F00403AC
:1019E000002BE3D04FF4B043C4F200034FF4B042F5
:1019F000C4F20002128892B242F4007292B21A80CB
:101A000007F11807BD4680BD80B584B000AF02461F
:101A10000B46FA71BB71F979BA7907F10C030846E4
:101A200011461A464FF0010300F006F83B7B1846BA
:101A300007F11007BD4680BD80B584B000AF3A60A5
:101A40000246FA710A46BA717B7107E0FFF78CFC17
:101A50000346002B02D0FFF7C7FC12E14FF4B0435E
:101A6000C4F200031B8B9BB203F00203002BEDD1E9
:101A70004FF4B043C4F200034FF4B042C4F200028A
:101A8000128892B242F4807292B21A8007E0FFF795
:101A90006BFC0346002B02D0FFF7A6FCF1E04FF4ED
:101AA000B043C4F200039B8A9BB203F00103002BF6
:101AB000EDD04FF4B043C4F20003FA7992B21A8227
:101AC00007E0FFF751FC0346002B02D0FFF78CFC28
:101AD000D7E04FF4B043C4F200039B8A9BB203F0FB
:101AE0000203002BEDD04FF4B043C4F200031B8B74
:101AF0009BB2FB6007E0FFF737FC0346002B02D0E8
:101B0000FFF772FCBDE04FF4B043C4F200039B8AC0
:101B10009BB203F08003002BEDD04FF4B043C4F22E
:101B20000003BA7992B21A8207E0FFF71DFC034660
:101B3000002B02D0FFF758FCA3E04FF4B043C4F2EF
:101B400000039B8A9BB203F00403002BEDD04FF4FB
:101B5000B043C4F200034FF4B042C4F20002128852
:101B600092B242F4807292B21A8007E0FFF7FCFB57
:101B70000346002B02D0FFF737FC82E04FF4B0435E
:101B8000C4F200039B8A9BB203F00103002BEDD04B
:101B90004FF4B043C4F20003FA7942F00102D2B22A
:101BA0001A8207E0FFF7E0FB0346002B02D0FFF7A5
:101BB0001BFC66E04FF4B043C4F200039B8A9BB267
:101BC00003F00203002BEDD04FF4B043C4F2000346
:101BD0001B8B9BB2FB604FF4B043C4F200034FF485
:101BE000B042C4F20002128892B242F4806292B211
:101BF0001A8035E07B79012B16D14FF4B043C4F243
:101C000000034FF4B042C4F20002128892B222F4F0
:101C1000806292B21A8007E0FFF7A6FB0346002B12
:101C200003D0FFF7E1FB2CE000BF4FF4B043C4F258
:101C300000039B8A9BB203F04003002BECD04FF4CF
:101C4000B043C4F200031B8A9BB2DAB23B681A703D
:101C50003B6803F101033B607B7903F1FF337B7148
:101C60007B79002BC6D14FF4B043C4F200034FF48C
:101C7000B042C4F20002128892B242F4007292B2F0
:101C80001A8007F11007BD4680BD00BF80B400AFC9
:101C90004FF00803C4F202034FF002025A604FF003
:101CA0000803C4F2020342F24C42C4F201029A60F9
:101CB0004FF00803C4F2020340F24002C2F20002F5
:101CC000DA604FF00803C4F202034FF4B4621A6002
:101CD0004FF00803C4F202034FF00802C4F20202FC
:101CE000126842F001021A604FF41053C4F201036B
:101CF00040F20312C0F280029A604FF41053C4F213
:101D000001034FF48012DA624FF41053C4F201035E
:101D10004FF488725A634FF41053C4F201034FF426
:101D20001052C4F20102126942F0E0621A614FF4EB
:101D30001053C4F201034FF41052C4F20102D268EE
:101D400042F4E012DA604FF41053C4F201034FF48E
:101D500080725A604FF41053C4F201034FF41052D2
:101D6000C4F20102926842F001029A60BD4680BC52
:101D7000704700BF256420002564200D0A00000084
:101D800084012142B0812142840122428801224201
:0400000508000000EF
:00000001FF
