:020000040800F2
:10000000300400209D0600080D0700080D070008B9
:100010000D0700080D0700080D070008000000008C
:100020000000000000000000000000000D070008B4
:100030000D070008000000000D0700080D0700086C
:100040000D0700080D0700080D0700080D07000840
:100050000D0700080D0700080D0700080D07000830
:100060000D0700080D0700080D0700080D07000820
:100070000D0700080D0700080D0700080D07000810
:100080000D0700080D0700080D0700080D07000800
:100090000D0700080D0700080D0700080D070008F0
:1000A0000D070008310A00080D0700080D070008B9
:1000B0003D0A0008B90100080D0700080D070008F7
:1000C0000D0700080D0700080D0700080D070008C0
:1000D0000D0700080D0700080D0700080D070008B0
:1000E0000D0700080D0700080D07000800000000BC
:1000F0000000000000000000000000000000000000
:1001000000000000000000005FF808F180B483B038
:1001100000AF0346FB714FF46143CEF2000397F941
:1001200007204FEA5212F97901F01F014FF0010048
:1001300000FA01F143F8221007F10C07BD4680BC1C
:10014000704700BF80B500AF4FF48063C4F2000376
:100150004FF078021A854FF48063C4F200034FF425
:100160007A729A854FF48063C4F200034FF0000264
:10017000A3F840204FF48063C4F200034FF4C04260
:100180009A834FF48063C4F200034FF480521A84C0
:100190004FF48063C4F200034FF001029A814FF4E0
:1001A0008063C4F200034FF001021A804FF01D007B
:1001B000FFF7ACFF80BD00BF80B400AF4FF4806399
:1001C000C4F200031B8A9BB203F00103002B00F072
:1001D0008A804FF48063C4F200034FF48062C4F25B
:1001E0000002128A92B222F0010292B21A8240F206
:1001F0001803C2F200031B68022B41D140F2140322
:10020000C2F200031B684FF4967202FB03F240F245
:100210002803C2F200031B6892FBF3F240F22003B2
:10022000C2F200031B689A421EDA4FF48063C4F2E4
:1002300000034FF48062C4F20002B2F8402092B290
:10024000002A06D140F22402C2F20002126892B2E1
:1002500001E04FF00002A3F8402040F22003C2F278
:1002600000034FF000021A6040F22003C2F20003C4
:100270001B6803F1010240F22003C2F200031A607E
:1002800040F21403C2F200031B684FF4967202FBA3
:1002900003F240F21C03C2F200031B689A4216DA12
:1002A0004FF48063C4F200034FF00002A3F8402033
:1002B0004FF48063C4F200034FF48062C4F2000282
:1002C000128892B222F0010292B21A800BE040F240
:1002D0001C03C2F200031B6803F1010240F21C037D
:1002E000C2F200031A60BD4680BC704780B489B07A
:1002F00000AFF860B9607A603B604FF42243C0F20F
:100300004A43FB614FF45453C0F20C03BB61FB68DA
:100310007B6140F21803C2F20003BA681A6040F22F
:100320001403C2F200037A681A6040F21C03C2F29E
:1003300000034FF000021A603B684FEA430240F2AC
:100340002803C2F200031A6040F22003C2F2000345
:100350004FF000021A60BB68002B16D14FF4806387
:10036000C4F200034FF00002A3F840204FF4806372
:10037000C4F200034FF48062C4F20002128892B209
:1003800022F0010292B21A8043E04FF48063C4F27B
:100390000003F969BA69B1FBF2F292B202F1FF32DD
:1003A00092B21A854FF48063C4F20003B9697A6986
:1003B000B1FBF2F292B202F1FF3292B29A854FF49F
:1003C0008063C4F20003B9697A69B1FBF2F202F109
:1003D000FF324FEA520292B2A3F840204FF48063FA
:1003E000C4F20003B3F840309BB21A4640F2240333
:1003F000C2F200031A604FF48063C4F200034FF4AA
:100400008062C4F20002128892B242F0010292B2FB
:100410001A8007F12407BD4680BC704780B400AF46
:1004200000BF4FF48063C4F200031B889BB203F04B
:100430000103002BF5D1BD4680BC704780B500AFED
:100440004FF48053C4F202034FF48052C4F202020C
:10045000126842F001021A604FF48052C4F20202A4
:100460004FF48053C4F2020359684FF00003CFF6F3
:10047000FF030B4053604FF48053C4F202034FF468
:100480008052C4F20202126822F0847222F4803296
:100490001A604FF48053C4F202034FF48052C4F246
:1004A0000202126822F480221A604FF48053C4F2D0
:1004B00002034FF48052C4F20202526822F4FE0298
:1004C0005A604FF48053C4F202034FF41F029A6043
:1004D00000F008F84FF46D43CEF200034FF00062D5
:1004E0009A6080BD80B500AF00F002F880BD00BF0B
:1004F00080B483B000AF4FF000037B604FF0000387
:100500003B604FF48053C4F202034FF48052C4F2B4
:100510000202126842F480321A604FF48053C4F22F
:1005200002031B6803F400333B607B6803F10103A3
:100530007B603B68002B03D17B68B3F5A06FECD1E7
:100540004FF48053C4F202031B6803F40033002B02
:1005500003D04FF001033B6002E04FF000033B602B
:100560003B68012B40F094804FF40053C4F2020327
:100570004FF40052C4F20202126842F010021A60F4
:100580004FF40053C4F202034FF40052C4F20202CB
:10059000126822F003021A604FF40053C4F20203FF
:1005A0004FF40052C4F20202126842F002021A60D2
:1005B0004FF48053C4F202034FF48052C4F202029B
:1005C00052685A604FF48053C4F202034FF48052D1
:1005D000C4F2020252685A604FF48053C4F202031C
:1005E0004FF48052C4F20202526842F480625A60B0
:1005F0004FF48053C4F202034FF48052C4F202025B
:10060000526822F47C125A604FF48053C4F2020301
:100610004FF48052C4F20202526842F4E8125A6067
:100620004FF48053C4F202034FF48052C4F202022A
:10063000126842F080721A6000BF4FF48053C4F217
:1006400002031B6803F00073002BF6D04FF48053B5
:10065000C4F202034FF48052C4F20202526822F044
:1006600003025A604FF48053C4F202034FF48052E5
:10067000C4F20202526842F002025A6000BF4FF414
:100680008053C4F202035B6803F00C03082BF6D11D
:1006900007F10C07BD4680BC704700BF80B582B033
:1006A00000AF40F60863C0F600037B6040F2000331
:1006B000C2F200033B600BE07B681A683B681A607B
:1006C0003B6803F104033B607B6803F104037B6038
:1006D0003A6840F21403C2F200039A42ECD309488C
:1006E00009494FF000028842B8BF40F8042BFFF6DA
:1006F000FAAFFFF7A3FE00F00DF807F10807BD46BB
:1007000080BD0000140000203000002080B400AF45
:10071000FEE700BF80B582B000AF00F035F800F012
:100720006BF900F0B1F800F0F5F900F03FFAFFF7CF
:1007300009FD4FF47A704FF002014FF001024FF0C3
:100740000203FFF7D3FDFFF769FE4FF4FA704FF095
:1007500002014FF001024FF00403FFF7C7FD00E074
:1007600000BF4FF48053C4F201039B6803F40053AD
:10077000002BF5D14FF000004FF000014FF00002C8
:10078000FFF7B4FDECE700BF80B400AF4FF4805337
:10079000C4F202034FF480321A6000BF4FF480535A
:1007A000C4F202031B6803F40033002BF6D04FF4AD
:1007B0000053C4F202034FF40052C4F20202126862
:1007C00042F002021A604FF48053C4F202034FF465
:1007D0008052C4F20202126842F400221A604FF4FE
:1007E0008053C4F202034FF44442C0F21D025A6027
:1007F0004FF48053C4F202034FF48052C4F2020259
:10080000126842F080721A6000BF4FF48053C4F245
:1008100002031B6803F00073002BF6D04FF48053E3
:10082000C4F202034FF48052C4F20202526842F052
:1008300002025A6000BF4FF48053C4F202035B68A7
:1008400003F00803002BF6D04FF48053C4F20203E8
:100850004FF48052C4F20202D26942F4840242F0A0
:100860000702DA614FF48053C4F202034FF480525E
:10087000C4F20202926942F4D05242F01C029A6120
:10088000BD4680BC704700BF80B400AF4FF400622B
:10089000C4F201024FF40063C4F2010319684FF27D
:1008A0003F33C3F233330B4013604FF40062C4F2A2
:1008B00001024FF40063C4F2010319684FF63033AC
:1008C000CBF6B3330B4313604FF44063C4F2010320
:1008D0004FF44062C4F20102126822F04C4222F04E
:1008E000CC021A604FF44063C4F201034FF440623B
:1008F000C4F20102126842F03B4242F0B0021A60B8
:100900004FF44062C4F201024FF44063C4F20103A9
:1009100059684FF6BB73C0F233330B4353604FF447
:100920004063C4F201034FF44062C4F20102526812
:1009300022F04C6222F440225A604FF48053C4F2F9
:1009400001034FF48052C4F20102126842F44C5287
:1009500042F030021A604FF48053C4F201034FF4A6
:100960008052C4F20102126822F44C4222F0C0020A
:100970001A604FF48053C4F201034FF48052C4F262
:100980000102526822F440025A604FF48053C4F2CC
:1009900001034FF48052C4F20102526842F4000293
:1009A0005A604FF48053C4F201034FF48052C4F2F2
:1009B0000102D26842F40052DA60BD4680BC704742
:1009C00080B483B000AF0346FB714FF46143CEF2B5
:1009D000000397F907204FEA5212F97901F01F013D
:1009E0004FF0010000FA01F143F8221007F10C0763
:1009F000BD4680BC704700BF80B500AF4FF080435C
:100A000045F6BF521A854FF080434FF47A729A85AB
:100A10004FF080434FF001029A814FF080434FF036
:100A200001021A804FF01C00FFF7CAFF80BD00BF13
:100A300080B400AFBD4680BC704700BF80B400AF3B
:100A40004FF080431B8A9BB203F00103002B5ED062
:100A50004FF080434FF08042128A92B222F001029E
:100A600092B21A824FF48053C4F201034FF48052C1
:100A7000C4F20102D26882F00802DA6040F22C036C
:100A8000C2F200031A6840F20003C2F2000353F8F6
:100A900022304FF001021A6040F22C03C2F2000330
:100AA0001B68002B10DD40F22C03C2F200031B6810
:100AB00003F1FF3240F20003C2F2000353F8223088
:100AC0004FF000021A6007E040F20003C2F2000398
:100AD000DB684FF000021A6040F22C03C2F2000300
:100AE0001B68032B07D140F22C03C2F200034FF026
:100AF00000021A600BE040F22C03C2F200031B68F4
:100B000003F1010240F22C03C2F200031A60BD4659
:100B100080BC704780B400AF4FF40063C4F20003A0
:100B20004FF479421A854FF40063C4F200034FF486
:100B30007A729A854FF40063C4F2000346F26002B1
:100B40001A834FF40063C4F2000346F260029A83F2
:100B50004FF40063C4F2000341F211121A844FF4FF
:100B60000063C4F200034FF001021A804FF40063E7
:100B7000C4F200034FF000029A864FF40063C4F2FF
:100B800000034FF000021A874FF40063C4F2000321
:100B90004FF000029A874FF40063C4F200034FF055
:100BA0000002A3F84020BD4680BC704780B584B0E9
:100BB00000AF4FF4B043C4F200034FF4B042C4F2AC
:100BC0000002128892B26FEA42426FEA524292B237
:100BD0001A804FF4B043C4F200034FF4B042C4F2A1
:100BE0000002128892B24FEA42424FEA524292B257
:100BF0001A804FF4B043C4F200034FF025021A8468
:100C00004FF4B043C4F200034FF0A0029A834FF4B4
:100C1000B043C4F200034FF4B042C4F20002928821
:100C200092B242F0240292B29A804FF4B043C4F2DE
:100C300000034FF4B042C4F20002128892B242F0B4
:100C4000010292B21A8040F6FC53C0F6000307F18D
:100C50000C021B88138040F21103C2F200031B78C0
:100C6000DBB21A4607F10C03104619464FF0020298
:100C700000F032F840F60063C0F6000307F1080206
:100C80001B88138040F21103C2F200031B78DBB211
:100C90001A4607F10803104619464FF0020200F009
:100CA0001BF840F60463C0F6000307F104021B883A
:100CB000138040F21203C2F200031B78DBB21A4623
:100CC00007F10403104619464FF0020200F004F841
:100CD00007F11007BD4680BD80B487B000AF034662
:100CE000B9607A60FB734FF4B043C4F200034FF471
:100CF000B042C4F20002128892B242F4807292B200
:100D00001A8000BF4FF4B043C4F200039B8A9BB229
:100D100003F00103002BF5D04FF4B043C4F20003FD
:100D20009B8A9BB27B614FF4B043C4F20003FA7B11
:100D300092B21A8200BF4FF4B043C4F200039B8A00
:100D40009BB203F00203002BF5D04FF4B043C4F282
:100D500000039B8A9BB27B614FF4B043C4F2000353
:100D60001B8B9BB27B6115E000BF4FF4B043C4F214
:100D700000039B8A9BB203F08003002BF5D04FF455
:100D8000B043C4F20003BA6812781A82BB6803F158
:100D90000103BB607B68002B0CBF00230123DBB287
:100DA0007A6802F1FF327A60002BDDD100BF4FF488
:100DB000B043C4F200039B8A9BB203F08003002B74
:100DC000F5D04FF4B043C4F200039B8A9BB203F00A
:100DD0000403002BEBD04FF4B043C4F200034FF4F4
:100DE000B042C4F20002128892B242F4007292B28F
:100DF0001A8007F11C07BD4680BC70472097000091
:080E00002308000020FF0000A0
:100E080084012142B0812142840122428801224288
:040E18001C30D400B6
:0400000508000000EF
:00000001FF
