:020000040800F2
:1000000000090020CD0A00083D0B00083D0B000848
:100010003D0B00083D0B00083D0B000800000000F0
:100020000000000000000000000000003D0B000880
:100030003D0B0008000000003D0B00083D0B0008D0
:100040003D0B00083D0B00083D0B00083D0B000870
:100050003D0B00083D0B00083D0B00083D0B000860
:100060003D0B0008C11D0008F51D00083D0B0008F0
:100070003D0B00083D0B00083D0B00083D0B000840
:100080003D0B00083D0B00083D0B00083D0B000830
:100090003D0B00083D0B00083D0B0008291E000821
:1000A0003D0B0008E90100083D0B00083D0B00086E
:1000B000F5150008390700083D0B00083D0B000846
:1000C0003D0B00083D0B00083D0B00083D0B0008F0
:1000D0003D0B00083D0B0008812500083D0B000882
:1000E000C51400083D0B00083D0B0008000000008F
:1000F0000000000000000000000000000000000000
:1001000000000000000000005FF808F180B483B038
:1001100000AF0346FB714FF46143CEF2000397F941
:1001200007204FEA5212F97901F01F014FF0010048
:1001300000FA01F143F8221007F10C07BD4680BC1C
:10014000704700BF80B500AF40F28443C2F20003A5
:100150004FF07E521A6040F28443C2F200034CF624
:10016000CD42C3F6CC525A6040F28443C2F200033F
:100170004DF20A72C3F623429A6040F28443C2F2FF
:1001800000034FF07E52DA6040F28443C2F2000373
:100190004FF07E521A6140F24843C2F200034FF022
:1001A000C8021A604FF43053C4F2010341F61F42F3
:1001B0001A854FF43053C4F201034FF064029A855C
:1001C0004FF43053C4F201034FF001029A814FF40F
:1001D0003053C4F201034FF001021A804FF01900AE
:1001E000FFF794FF80BD00BFB0B58CB000AF4FF4F7
:1001F0003053C4F201031B8A9BB203F00103002BAE
:1002000000F0AE8101F056FC40F27843C2F20003E8
:100210001B881BB2184603F065FB024640F2784388
:10022000C2F200039B681046194603F0AFFB034679
:10023000FB6240F27843C2F200035B881BB21846AF
:1002400003F050FB024640F27843C2F200039B6881
:100250001046194603F09AFB0346BB6240F278430E
:10026000C2F200039B881BB2184603F03BFB024618
:1002700040F27843C2F200039B681046194603F02F
:1002800085FB03467B62F86AF96A03F07FFB03464D
:100290003B62B86AB96A03F079FB0346FB61786A8E
:1002A000796A03F073FB0346BB61386AB96903F0EE
:1002B00065FA0346184602F01DFF02460B4610463B
:1002C000194602F025FC02460B461046194603F07B
:1002D000FFF903467B61B86A796903F00BFC0346BA
:1002E0007B61786902F006FF02460B46104619460C
:1002F00002F056FA02460B46104619464FF000022D
:100300004FF40043C4F2660302F048FF02460B4676
:100310001046194694A3D3E9002303F069F8024676
:100320000B461046194603F0D3F903463B6140F2F1
:10033000A443C2F200031B881BB2184603F0D2FA92
:10034000024640F2A443C2F200039B6810461946DD
:1003500003F01CFB0346386919464DF20A72C3F6D6
:10036000234200F005F9024640F24C43C2F200037A
:100370001A6040F24C43C2F200031B6883F0004352
:10038000FB6040F28443C2F200031B681846F96820
:1003900003F0FCFA03461C4640F28443C2F2000319
:1003A0009D6840F25043C2F200031B68F86819468A
:1003B00003F0E2F903462846194603F0E7FA03463C
:1003C0001A4640F28443C2F20003DB681046194625
:1003D00003F0DCFA03462046194603F0CFF9034642
:1003E0001C4640F28443C2F200035D6840F2504371
:1003F000C2F200031B681846F96803F0BFF9034610
:100400002846194603F0C2FA03461A4640F28443CE
:10041000C2F200031B691046194603F06BFB03464A
:100420002046194603F0AAF90346BB6040F2484350
:10043000C2F200031B68184603F054FA034618463C
:10044000B96803F099F9034618464FF00001C4F269
:10045000483103F039FC0346002B02D04FF0C803AB
:1004600011E040F24843C2F200031B68184603F053
:1004700039FA03461846B96803F07EF90346184670
:1004800003F04AFC03467B6040F24843C2F200039B
:100490001B68184603F026FA03461846B96803F0AD
:1004A0006DF9034618464FF40041C4F2BB4103F016
:1004B00029FC0346002B02D040F2DC5311E040F24D
:1004C0004843C2F200031B68184603F00BFA0346C8
:1004D0001846B96803F052F90346184603F01CFCAD
:1004E00003463B6040F24843C2F200031A687B684F
:1004F000D31A4FF00100194601F034F940F2484395
:10050000C2F200031A687B68D31A4FF00200194642
:1005100001F028F940F24843C2F200031A683B6830
:10052000D3184FF00300194601F01CF940F248437C
:10053000C2F200031A683B68D3184FF00400194652
:1005400001F010F94FF43053C4F201034FF430526C
:10055000C4F20102128A92B222F0010292B21A820D
:1005600007F13007BD46B0BDF1D4C853FB210940A7
:1005700080B586B000AFF860B9607A604FF07C5308
:100580007B6140F25443C2F200031B68F8681946CD
:1005900003F0F2F803461846796903F0F7F90346C9
:1005A0001846796903F0F2F903461A4640F2A0436F
:1005B000C2F200031A6040F2A043C2F200031B68BB
:1005C0001846796803F0E2F903461A4640F2B4434C
:1005D000C2F200031B681046194603F0CFF8034629
:1005E0001A4640F2B443C2F200031A6040F2544388
:1005F000C2F200031B68F868194603F0BDF8034611
:100600001846194603F0BAF803461846796903F00C
:10061000BDF903461A4640F2B443C2F200031B6818
:100620001046194603F0AAF803461846B96803F0C5
:10063000A5F803461A4640F2B043C2F200031A601E
:1006400040F2B043C2F200031B681846796803F019
:100650009DF903461A4640F25443C2F200031B6858
:100660001046194603F08AF803461A4640F25443EE
:10067000C2F200031A6040F25443C2F200031B6846
:10068000184607F11807BD4680BD00BF80B483B08F
:1006900000AF0346FB714FF46143CEF2000397F9BC
:1006A00007204FEA5212F97901F01F014FF00100C3
:1006B00000FA01F143F8221007F10C07BD4680BC97
:1006C000704700BF80B500AF4FF48063C4F20003F1
:1006D0004FF078021A854FF48063C4F200034FF4A0
:1006E0007A729A854FF48063C4F200034FF00002DF
:1006F000A3F840204FF48063C4F200034FF4C042DB
:100700009A834FF48063C4F200034FF480521A843A
:100710004FF48063C4F200034FF001029A814FF45A
:100720008063C4F200034FF001021A804FF01D00F5
:10073000FFF7ACFF80BD00BF80B400AF4FF4806313
:10074000C4F200031B8A9BB203F00103002B00F0EC
:100750008A804FF48063C4F200034FF48062C4F2D5
:100760000002128A92B222F0010292B21A8240F280
:100770005C43C2F200031B68022B41D140F2584394
:10078000C2F200031B684FF4967202FB03F240F2C0
:100790006C43C2F200031B6892FBF3F240F2644325
:1007A000C2F200031B689A421EDA4FF48063C4F25F
:1007B00000034FF48062C4F20002B2F8402092B20B
:1007C000002A06D140F26842C2F20002126892B2D8
:1007D00001E04FF00002A3F8402040F26443C2F26F
:1007E00000034FF000021A6040F26443C2F20003BB
:1007F0001B6803F1010240F26443C2F200031A6075
:1008000040F25843C2F200031B684FF4967202FB99
:1008100003F240F26043C2F200031B689A4216DA08
:100820004FF48063C4F200034FF00002A3F84020AD
:100830004FF48063C4F200034FF48062C4F20002FC
:10084000128892B222F0010292B21A800BE040F2BA
:100850006043C2F200031B6803F1010240F26043EF
:10086000C2F200031A60BD4680BC704780B500AF7D
:100870004FF48053C4F202034FF48052C4F20202D8
:10088000126842F001021A604FF48052C4F2020270
:100890004FF48053C4F2020359684FF00003CFF6BF
:1008A000FF030B4053604FF48053C4F202034FF434
:1008B0008052C4F20202126822F0847222F4803262
:1008C0001A604FF48053C4F202034FF48052C4F212
:1008D0000202126822F480221A604FF48053C4F29C
:1008E00002034FF48052C4F20202526822F4FE0264
:1008F0005A604FF48053C4F202034FF41F029A600F
:1009000000F008F84FF46D43CEF200034FF00062A0
:100910009A6080BD80B500AF00F002F880BD00BFD6
:1009200080B483B000AF4FF000037B604FF0000352
:100930003B604FF48053C4F202034FF48052C4F280
:100940000202126842F480321A604FF48053C4F2FB
:1009500002031B6803F400333B607B6803F101036F
:100960007B603B68002B03D17B68B3F5A06FECD1B3
:100970004FF48053C4F202031B6803F40033002BCE
:1009800003D04FF001033B6002E04FF000033B60F7
:100990003B68012B40F094804FF40053C4F20203F3
:1009A0004FF40052C4F20202126842F010021A60C0
:1009B0004FF40053C4F202034FF40052C4F2020297
:1009C000126822F003021A604FF40053C4F20203CB
:1009D0004FF40052C4F20202126842F002021A609E
:1009E0004FF48053C4F202034FF48052C4F2020267
:1009F00052685A604FF48053C4F202034FF480529D
:100A0000C4F2020252685A604FF48053C4F20203E7
:100A10004FF48052C4F20202526842F480625A607B
:100A20004FF48053C4F202034FF48052C4F2020226
:100A3000526822F47C125A604FF48053C4F20203CD
:100A40004FF48052C4F20202526842F4E8125A6033
:100A50004FF48053C4F202034FF48052C4F20202F6
:100A6000126842F080721A6000BF4FF48053C4F2E3
:100A700002031B6803F00073002BF6D04FF4805381
:100A8000C4F202034FF48052C4F20202526822F010
:100A900003025A604FF48053C4F202034FF48052B1
:100AA000C4F20202526842F002025A6000BF4FF4E0
:100AB0008053C4F202035B6803F00C03082BF6D1E9
:100AC00007F10C07BD4680BC704700BF80B582B0FF
:100AD00000AF43F60063C0F600037B6040F2000302
:100AE000C2F200033B600BE07B681A683B681A6047
:100AF0003B6803F104033B607B6803F104037B6004
:100B00003A6840F24843C2F200039A42ECD30948E3
:100B100009494FF000028842B8BF40F8042BFFF6A5
:100B2000FAAFFFF7A3FE00F00DF807F10807BD4686
:100B300080BD000048040020FC04002080B400AF09
:100B4000FEE700BF80B582B000AF4FF000037B60CE
:100B500003E07B6803F101037B607A684AF21F13AC
:100B6000C0F207039A42F4DD00F028F800F026FDF9
:100B700000F0B0F800F0AAFD40F27443C2F20003A6
:100B80004FF000021A6000F03BFE40F27443C2F2E4
:100B900000031B68002BEFD1FFF794FD01F07EFBF3
:100BA00001F03AFC00F06AFCFFF7CCFA43F6705013
:100BB000C0F6000001F068FCFEE700BF80B400AFA3
:100BC0004FF48053C4F202034FF480321A6000BF26
:100BD0004FF48053C4F202031B6803F40033002B6C
:100BE000F6D04FF40053C4F202034FF40052C4F2A3
:100BF0000202126842F002021A604FF48053C4F2FB
:100C000002034FF48052C4F20202126842F400223E
:100C10001A604FF48053C4F202034FF44442C0F20E
:100C20001D025A604FF48053C4F202034FF4805205
:100C3000C4F20202126842F080721A6000BF4FF4E0
:100C40008053C4F202031B6803F00073002BF6D03C
:100C50004FF48053C4F202034FF48052C4F20202F4
:100C6000526842F002025A6000BF4FF48053C4F24F
:100C700002035B6803F00803002BF6D04FF48053A7
:100C8000C4F202034FF48052C4F20202D26942F469
:100C9000840242F00702DA614FF48053C4F2020387
:100CA0004FF48052C4F20202926942F4D05242F0F0
:100CB0001D029A614FF48053C4F202034FF4805234
:100CC000C4F20202526942F001025A61BD4680BC80
:100CD000704700BF80B400AF4FF40062C4F201025D
:100CE0004FF40063C4F20103196843F23F33C3F2C7
:100CF00033330B4013604FF40062C4F201024FF42F
:100D00000063C4F20103196848F63033CBF6B333FD
:100D10000B4313604FF44063C4F201034FF440628D
:100D2000C4F20102126822F04C4222F0CC021A6096
:100D30004FF44063C4F201034FF44062C4F2010275
:100D4000126842F03B4242F0B0021A604FF4406237
:100D5000C4F201024FF44063C4F2010359684FF634
:100D6000BB73C0F233330B4353604FF44063C4F2A0
:100D700001034FF44062C4F20102526822F04C6257
:100D800022F440225A604FF48053C4F201034FF41E
:100D90008052C4F20102126842F44C5242F0300216
:100DA0001A604FF48053C4F201034FF48052C4F22E
:100DB0000102126822F44C4222F0C0021A604FF481
:100DC0008053C4F201034FF48052C4F2010252680E
:100DD00022F440025A604FF48053C4F201034FF4EE
:100DE0008052C4F20102526842F400025A604FF489
:100DF0008053C4F201034FF48052C4F20102D2685E
:100E000042F40052DA60BD4680BC704780B483B0C3
:100E100000AF78600B46FB707B68FA781A704FF071
:100E20000103184607F10C07BD4680BC704700BFA0
:100E300080B485B000AF786039604FF00003FB608C
:100E40000FE03B681A787B681A707B6803F1010336
:100E50007B603B6803F101033B60FB6803F1010326
:100E6000FB603B681B78002BEBD1FB68184607F151
:100E70001407BD4680BC704780B586B000AFF860EF
:100E80007A603B600B46FB724FF000037B617B682E
:100E900003F1FF337B603B68092B25D93A684CF698
:100EA000CD43CCF6CC43A3FB02134FEAD303FA7A2B
:100EB000F86811467A68FFF7DFFF78617B69FA68A6
:100EC000D318FB6013E0FB7AF8681946FFF79EFF22
:100ED000FB6803F10103FB607B6903F101037B61A4
:100EE0007B6803F1FF337B607B68002BEBDC3968A8
:100EF0004CF6CD43CCF6CC43A3FB01234FEAD302FF
:100F000013464FEA83039B184FEA4303CA1AD3B22E
:100F100003F13003DBB2F8681946FFF777FF0346A9
:100F20007A69D3187B617B69184607F11807BD46BB
:100F300080BD00BF80B586B000AFF8607A603B60CE
:100F40000B46FB724FF000037B613B68002B04DA19
:100F50003B68C3F100033B6101E03B683B617B6898
:100F600003F1FF337B603B69092B2AD93B68002BD7
:100F700012DA3A694CF6CD43CCF6CC43A3FB02130C
:100F80004FEAD303C3F10003FA7AF86811467A688E
:100F9000FFF7D0FF78610FE03A694CF6CD43CCF60D
:100FA000CC43A3FB02134FEAD303FA7AF868114645
:100FB0007A68FFF7BFFF78617B69FA68D318FB6036
:100FC0002BE03B68002B15DA7B6803F1FF337B6075
:100FD00010E0FB7AF8681946FFF718FFFB6803F189
:100FE0000103FB607B6903F101037B617B6803F113
:100FF000FF337B607B68002BEBDC3B68002B0CDA5B
:10100000F8684FF02D01FFF701FF03467A69D31806
:101010007B61FB6803F10103FB6039694CF6CD434A
:10102000CCF6CC43A3FB01234FEAD30213464FEA8D
:1010300083039B184FEA4303CA1AD3B203F1300368
:10104000DBB2F8681946FFF7E1FE03467A69D31868
:101050007B617B69184607F11807BD4680BD00BF5C
:1010600080B588B002AFF8607A600A46FA72BB7247
:101070004FF000037B617B6803F1FF337B603B6AC9
:101080004FEA1313002B24D03B6A4FEA1311FA7A6C
:10109000BB7A0091F86811467A68FFF7E1FF0346D2
:1010A0007A69D3187B617B69FA68D318FB6013E017
:1010B000FB7AF8681946FFF7A9FEFB6803F1010304
:1010C000FB607B6903F101037B617B6803F1FF3304
:1010D0007B607B68002BEBDC3B6A03F00F03092B82
:1010E0000CD83B6ADBB203F00F03DBB203F1300331
:1010F000DBB2F8681946FFF789FE1BE0BB7A002BCC
:101100000CD03B6ADBB203F00F03DBB203F1370311
:10111000DBB2F8681946FFF779FE0BE03B6ADBB2F9
:1011200003F00F03DBB203F15703DBB2F868194693
:10113000FFF76CFE7B6903F101037B617B69184655
:1011400007F11807BD4680BD80B58AB002AFF860D0
:10115000B9607A603B604FF00003BB614FF0000361
:101160007B61FB68002B00F01C81FB684FF00002E4
:101170001A7016E17B681B78252B10D07B681A78D3
:10118000FB681A70FB6803F10103FB607B6803F1E5
:1011900001037B607B6903F101037B6102E17B68F2
:1011A00003F101031B78252B10D1FB684FF02502BA
:1011B0001A70FB6803F10103FB607B6803F1020313
:1011C0007B607B6903F101037B61EBE04FF020035F
:1011D000FB774FF00003BB777B6803F101037B6073
:1011E0007B681B78302B1BD14FF03003FB777B687B
:1011F00003F101037B6013E0BB7F1A464FEA8202D2
:10120000D3184FEA4303DAB27B681B78D318DBB2FA
:10121000A3F13003BB777B6803F101037B6000E03F
:1012200000BF7B681B782F2B03D97B681B78392B79
:10123000E2D9BA7F7B69D3181A46BB689A4205D9AE
:10124000BB68DAB27B69DBB2D31ABB777B681B78E9
:10125000A3F15803202B00F2948001A252F823F04E
:101260003513000883130008831300088313000854
:1012700083130008831300088313000883130008F6
:101280008313000883130008831300086B130008FE
:10129000E512000883130008831300088313000875
:1012A00083130008E5120008831300088313000865
:1012B00083130008831300088313000883130008B6
:1012C00083130008831300088313000855130008D4
:1012D00083130008FD12000883130008831300081D
:1012E00015130008BA7F3B6803F1040139601B68DD
:1012F000F97FF868FFF71EFEB86145E0BA7F3B68EA
:1013000003F1040139601B68F97FF868FFF7B4FD49
:10131000B86139E0BA7F3B6803F1040139601968AC
:10132000FB7F0091F86819464FF00003FFF798FE25
:10133000B86129E0BA7F3B6803F10401396019689C
:10134000FB7F0091F86819464FF00103FFF788FE14
:10135000B86119E03B6803F104023A601B68F86861
:101360001946FFF765FDB8610EE03B6803F1040222
:101370003A601B68DBB2F8681946FFF747FDB861B1
:1013800002E04FF0FF332CE07B6803F101037B6048
:10139000BB69FA68D318FB607A69BB69D3187B61B3
:1013A00000E000BF7B681B78002B04D07A69BB6823
:1013B0009A42FFF4DFAE7A69BB689A4204D2FB68B6
:1013C0004FF000021A700BE0FB6803F1FF33FB6083
:1013D000FB684FF000021A707B6903F1FF337B61F9
:1013E0007B69184607F12007BD4680BD80B584B0F3
:1013F00000AFF860B9607A60F8684FF06401BA68CD
:101400007B68FFF7A1FE0346184607F11007BD46AB
:1014100080BD00BF0EB480B585B000AF786007F125
:101420002003BB607868F969BA68FFF7DFFFF860EE
:10143000FB68184607F11407BD46BDE8804003B0BD
:10144000704700BF80B483B000AF0346FB714FF418
:101450006143CEF2000397F907204FEA5212F9795F
:1014600001F01F014FF0010000FA01F143F82210D2
:1014700007F10C07BD4680BC704700BF80B500AFC8
:101480004FF00003C4F201034FF480525A614FF44D
:101490008063C4F201034FF400421A604FF480638A
:1014A000C4F201034FF40042DA604FF48063C4F2E7
:1014B00001034FF400429A604FF02800FFF7C2FF8B
:1014C00080BD00BF80B483B000AF4FF000037B60ED
:1014D0004FF48063C4F201035B6903F40043002B03
:1014E0004BD04FF44063C4F201039B6803F4004304
:1014F000002B0AD04FF080439B8C9BB21A4640F2DF
:10150000DC43C2F200031A602BE040F2DC43C2F27B
:1015100000031B68002B24DD4FF080439B8C9BB2A3
:101520007B6040F2DC43C2F200031A687B689A4297
:1015300005DD7B6803F57F4303F1FF037B6040F229
:10154000DC43C2F200031B687A68D21A40F23043CF
:10155000C2F200031B68D21A40F2BC43C2F200037D
:101560001A604FF48063C4F201034FF48062C4F246
:101570000102526942F400425A6107F10C07BD466C
:1015800080BC704780B483B000AF0346FB714FF45A
:101590006143CEF2000397F907204FEA5212F9791E
:1015A00001F01F014FF0010000FA01F143F8221091
:1015B00007F10C07BD4680BC704700BF80B500AF87
:1015C0004FF080434FF08C021A854FF080434FF666
:1015D000FF729A854FF080434FF001029A814FF0DD
:1015E00080434FF001021A804FF01C00FFF7CAFF42
:1015F00080BD00BF80B400AF4FF080431B8A9BB218
:1016000003F00103002B5ED04FF080434FF0804287
:10161000128A92B222F0010292B21A824FF48053DF
:10162000C4F201034FF48052C4F20102D26882F086
:101630000802DA6040F27043C2F200031A6840F216
:101640003443C2F2000353F822304FF001021A6013
:1016500040F27043C2F200031B68002B10DD40F221
:101660007043C2F200031B6803F1FF3240F23443BF
:10167000C2F2000353F822304FF000021A6007E074
:1016800040F23443C2F20003DB684FF000021A60FC
:1016900040F27043C2F200031B68032B07D140F2F3
:1016A0007043C2F200034FF000021A600BE040F2F8
:1016B0007043C2F200031B6803F1010240F2704361
:1016C000C2F200031A60BD4680BC704780B400AF10
:1016D0004FF40063C4F200034FF6FF721A854FF413
:1016E0000063C4F2000342F210729A854FF4006363
:1016F000C4F2000346F260021A834FF40063C4F29E
:10170000000346F260029A834FF40063C4F20003C0
:1017100041F211121A844FF40063C4F200034FF037
:1017200001021A804FF40063C4F200034FF000027C
:101730009A864FF40063C4F200034FF000021A8748
:101740004FF40063C4F200034FF000029A874FF495
:101750000063C4F200034FF00002A3F84020BD462E
:1017600080BC704780B483B000AF786039603A685D
:1017700040F6CC439A423DD87B6803F1FF33032BFC
:1017800039D801A252F823F099170008AF170008C2
:10179000C5170008DB1700084FF40063C4F200030C
:1017A0003A6892B202F6CC4292B29A8623E04FF4A3
:1017B0000063C4F200033A6892B202F6CC4292B2DD
:1017C0001A8718E04FF40063C4F200033A6892B23B
:1017D00002F6CC4292B29A870DE04FF40063C4F255
:1017E00000033A6892B202F6CC4292B2A3F84020CB
:1017F00000BF00E000BF07F10C07BD4680BC70478A
:1018000080B500AF00F0F8F840F2A443C2F2000344
:101810004FF0D4029A7140F2A443C2F2000345F69D
:101820002942C3F68F529A6040F27843C2F2000315
:101830004FF030029A7140F27843C2F2000341F255
:101840006F22C3F683129A6040F29843C2F20003FB
:101850004FF01C029A7140F27843C2F200039B7968
:1018600018464FF020014FF0970200F0F7FA40F2CF
:101870007843C2F200039B7918464FF021014FF0E4
:10188000000200F0EBFA40F27843C2F200039B79C9
:1018900018464FF022014FF0080200F0DFFA40F244
:1018A0007843C2F200039B7918464FF023014FF0B2
:1018B000280200F0D3FA40F27843C2F200039B7989
:1018C00018464FF024014FF0400200F0C7FA40F2F2
:1018D000A443C2F200039B7918464FF020014FF059
:1018E0000F0200F0BBFA40F2A443C2F200039B795E
:1018F00018464FF021014FF0000200F0AFFA40F21D
:10190000A443C2F200039B7918464FF022014FF026
:10191000000200F0A3FA40F2A443C2F200039B7954
:1019200018464FF023014FF0200200F097FA40F2E2
:10193000A443C2F200039B7918464FF024014FF0F4
:10194000000200F08BFA40F29843C2F200039B7948
:1019500018464FF011014FF0800200F07FFA40F27C
:101960009843C2F200039B7918464FF010014FF0E4
:10197000010200F073FA80BD80B400AF4FF4B043B1
:10198000C4F200039B8A9BB203F480424FF4B0433D
:10199000C4F200039B8A9BB203F480531A434FF4B2
:1019A000B043C4F200039B8A9BB203F480631A43E2
:1019B0004FF4B043C4F200039B8A9BB203F400735C
:1019C0001A434FF4B043C4F200039B8A9BB203F462
:1019D00080731343002B09D040F27443C2F200031A
:1019E0004FF001021A604FF0010301E04FF00003D5
:1019F0001846BD4680BC704780B400AF4FF4B0437A
:101A0000C4F200034FF4B042C4F20002128892B252
:101A100022F0010292B21A804FF4B043C4F20003E4
:101A20004FF4B042C4F20002128892B26FEA42420E
:101A30006FEA524292B21A804FF4B043C4F20003EC
:101A40004FF4B042C4F20002128892B24FEA42420E
:101A50004FEA524292B21A804FF4B043C4F20003EC
:101A60004FF025021A844FF4B043C4F200034FF044
:101A7000A0029A834FF4B043C4F200034FF4B04283
:101A8000C4F20002928892B242F0240292B29A808A
:101A90004FF4B043C4F200034FF4B042C4F200026A
:101AA000128892B242F0010292B21A80BD4680BC06
:101AB000704700BF98B500AF40F27843C2F2000310
:101AC0009B7918464FF0290100F0A6FA03464FEA29
:101AD00003239AB240F27843C2F200031A8040F224
:101AE0007843C2F200031C8840F27843C2F200033C
:101AF0009B7918464FF0280100F08EFA03462246E3
:101B000013439AB240F27843C2F200031A8040F2C3
:101B10007843C2F200039B7918464FF02B0100F086
:101B20007BFA03464FEA03239AB240F27843C2F2AB
:101B300000035A8040F27843C2F200035C8840F20E
:101B40007843C2F200039B7918464FF02A0100F057
:101B500063FA0346224613439AB240F27843C2F234
:101B600000035A8040F27843C2F200039B79184682
:101B70004FF02D0100F050FA03464FEA03239AB2CA
:101B800040F27843C2F200039A8040F27843C2F2F6
:101B900000039C8840F27843C2F200039B79184608
:101BA0004FF02C0100F038FA0346224613439AB254
:101BB00040F27843C2F200039A8040F2A443C2F29A
:101BC00000039B7918464FF0290100F025FA0346DF
:101BD0004FEA03239AB240F2A443C2F200031A80F0
:101BE00040F2A443C2F200031C8840F2A443C2F2B4
:101BF00000039B7918464FF0280100F00DFA0346C8
:101C0000224613439AB240F2A443C2F200031A8060
:101C100040F2A443C2F200039B7918464FF02B0117
:101C200000F0FAF903464FEA03239AB240F2A443C4
:101C3000C2F200035A8040F2A443C2F200035C885F
:101C400040F2A443C2F200039B7918464FF02A01E8
:101C500000F0E2F90346224613439AB240F2A4434D
:101C6000C2F200035A8040F2A443C2F200039B79FF
:101C700018464FF02D0100F0CFF903464FEA032339
:101C80009AB240F2A443C2F200039A8040F2A44305
:101C9000C2F200039C8840F2A443C2F200039B7985
:101CA00018464FF02C0100F0B7F9034622461343C3
:101CB0009AB240F2A443C2F200039A8040F29843E1
:101CC000C2F200039B7918464FF0010100F0A4F91D
:101CD00003464FEA03239AB240F29843C2F200034C
:101CE0001A8040F29843C2F200031C8840F29843E5
:101CF000C2F200039B7918464FF0020100F08CF904
:101D00000346224613439AB240F29843C2F20003BC
:101D10001A8040F29843C2F200039B7918464FF0B4
:101D2000030100F079F903464FEA03239AB240F227
:101D30009843C2F200035A8040F29843C2F2000373
:101D40005C8840F29843C2F200039B7918464FF03A
:101D5000040100F061F90346224613439AB240F2AF
:101D60009843C2F200035A8040F29843C2F2000343
:101D70009B7918464FF0050100F04EF903464FEAF3
:101D800003239AB240F29843C2F200039A8040F2D1
:101D90009843C2F200039C8840F29843C2F20003C9
:101DA0009B7918464FF0060100F036F903462246AB
:101DB00013439AB240F29843C2F200039A8098BD4E
:101DC00080B400AF4FF48063C4F201035B6903F099
:101DD0000803002B0BD04FF48063C4F201034FF4CF
:101DE0008062C4F20102526942F008025A61BD46A3
:101DF00080BC704780B400AF4FF48063C4F201032D
:101E00005B6903F01003002B0BD04FF48063C4F226
:101E100001034FF48062C4F20102526942F01002E1
:101E20005A61BD4680BC704780B400AF4FF48063F8
:101E3000C4F201035B6903F02003002B0BD04FF4C5
:101E40008063C4F201034FF48062C4F2010252695C
:101E500042F020025A61BD4680BC704780B584B014
:101E600000AF13460246FA710A46BA717B71BB791C
:101E70003B737B797B73FA7907F10C0310461946A3
:101E80004FF0020200F004F807F11007BD4680BDD4
:101E900080B586B000AF0346B9607A60FB7307E097
:101EA000FFF76AFD0346002B02D0FFF7A5FDAFE068
:101EB0004FF4B043C4F200031B8B9BB203F0020348
:101EC000002BEDD14FF4B043C4F200034FF4B04205
:101ED000C4F20002128892B242F4807292B21A8066
:101EE00007E0FFF749FD0346002B02D0FFF784FD12
:101EF0008EE04FF4B043C4F200039B8A9BB203F020
:101F00000103002BEDD04FF4B043C4F200039B8AD1
:101F10009BB27B614FF4B043C4F20003FA7B92B2F0
:101F20001A8207E0FFF728FD0346002B02D0FFF7D7
:101F300063FD6DE04FF4B043C4F200039B8A9BB293
:101F400003F00203002BEDD04FF4B043C4F20003C2
:101F50009B8A9BB27B614FF4B043C4F200031B8B9E
:101F60009BB27B611DE0FFF707FD0346002B03D00A
:101F7000FFF742FD4CE000BF4FF4B043C4F2000352
:101F80009B8A9BB203F08003002BECD04FF4B0434C
:101F9000C4F20003BA6812781A82BB6803F1010325
:101FA000BB607B68002B0CBF00230123DBB27A6887
:101FB00002F1FF327A60002BDDD107E0FFF7DCFC95
:101FC0000346002B02D0FFF717FD21E04FF4B0438A
:101FD000C4F200039B8A9BB203F08003002BEDD078
:101FE0004FF4B043C4F200039B8A9BB203F0040396
:101FF000002BE3D04FF4B043C4F200034FF4B042DF
:10200000C4F20002128892B242F4007292B21A80B4
:1020100007F11807BD4680BD80B584B000AF024609
:102020000B46FA71BB71F979BA7907F10C030846CE
:1020300011461A464FF0010300F006F83B7B1846A4
:1020400007F11007BD4680BD80B584B000AF3A608F
:102050000246FA710A46BA717B7107E0FFF78CFC01
:102060000346002B02D0FFF7C7FC12E14FF4B04348
:10207000C4F200031B8B9BB203F00203002BEDD1D3
:102080004FF4B043C4F200034FF4B042C4F2000274
:10209000128892B242F4807292B21A8007E0FFF77F
:1020A0006BFC0346002B02D0FFF7A6FCF1E04FF4D7
:1020B000B043C4F200039B8A9BB203F00103002BE0
:1020C000EDD04FF4B043C4F20003FA7992B21A8211
:1020D00007E0FFF751FC0346002B02D0FFF78CFC12
:1020E000D7E04FF4B043C4F200039B8A9BB203F0E5
:1020F0000203002BEDD04FF4B043C4F200031B8B5E
:102100009BB2FB6007E0FFF737FC0346002B02D0D1
:10211000FFF772FCBDE04FF4B043C4F200039B8AAA
:102120009BB203F08003002BEDD04FF4B043C4F218
:102130000003BA7992B21A8207E0FFF71DFC03464A
:10214000002B02D0FFF758FCA3E04FF4B043C4F2D9
:1021500000039B8A9BB203F00403002BEDD04FF4E5
:10216000B043C4F200034FF4B042C4F2000212883C
:1021700092B242F4807292B21A8007E0FFF7FCFB41
:102180000346002B02D0FFF737FC82E04FF4B04348
:10219000C4F200039B8A9BB203F00103002BEDD035
:1021A0004FF4B043C4F20003FA7942F00102D2B214
:1021B0001A8207E0FFF7E0FB0346002B02D0FFF78F
:1021C0001BFC66E04FF4B043C4F200039B8A9BB251
:1021D00003F00203002BEDD04FF4B043C4F2000330
:1021E0001B8B9BB2FB604FF4B043C4F200034FF46F
:1021F000B042C4F20002128892B242F4806292B2FB
:102200001A8035E07B79012B16D14FF4B043C4F22C
:1022100000034FF4B042C4F20002128892B222F4DA
:10222000806292B21A8007E0FFF7A6FB0346002BFC
:1022300003D0FFF7E1FB2CE000BF4FF4B043C4F242
:1022400000039B8A9BB203F04003002BECD04FF4B9
:10225000B043C4F200031B8A9BB2DAB23B681A7027
:102260003B6803F101033B607B7903F1FF337B7132
:102270007B79002BC6D14FF4B043C4F200034FF476
:10228000B042C4F20002128892B242F4007292B2DA
:102290001A8007F11007BD4680BD00BF80B400AFB3
:1022A0004FF00803C4F202034FF002025A604FF0ED
:1022B0000803C4F2020342F24C42C4F201029A60E3
:1022C0004FF00803C4F2020340F2B842C2F2000227
:1022D000DA604FF00803C4F202034FF4B4621A60EC
:1022E0004FF00803C4F202034FF00802C4F20202E6
:1022F000126842F001021A604FF41053C4F2010355
:1023000040F20312C0F280029A604FF41053C4F2FC
:1023100001034FF48012DA624FF41053C4F2010348
:102320004FF488725A634FF41053C4F201034FF410
:102330001052C4F20102126942F0E0621A614FF4D5
:102340001053C4F201034FF41052C4F20102D268D8
:1023500042F4E012DA604FF41053C4F201034FF478
:1023600080725A604FF41053C4F201034FF41052BC
:10237000C4F20102926842F001029A60BD4680BC3C
:10238000704700BF80B483B000AF0346FB714FF4C9
:102390006143CEF2000397F907204FEA5212F97910
:1023A00001F01F014FF0010000FA01F143F8221083
:1023B00007F10C07BD4680BC704700BF80B483B0F6
:1023C00000AF03463960FB7197F90730002B10DA34
:1023D0004FF46D43CEF20003FA7902F00F02A2F13E
:1023E00004013A68D2B24FEA0212D2B25B181A76EE
:1023F0000DE04FF46143CEF2000397F907103A68FD
:10240000D2B24FEA0212D2B25B1883F8002307F16E
:102410000C07BD4680BC704780B500AF4FF026006A
:102420004FF01A01FFF7CAFF4FF48843C4F20003CC
:102430004FF49C721A814FF48843C4F2000342F2B5
:102440002C029A814FF02600FFF79CFF80BD00BF51
:1024500080B483B000AF0346FB7100BF4FF48843E4
:10246000C4F200031B889BB203F08003002BF5D05D
:102470004FF48843C4F20003FA7992B29A8007F1CC
:102480000C07BD4680BC704780B582B000AF786055
:1024900008E07B681B781846FFF7DAFF7B6803F1DA
:1024A00001037B607B681B78002BF2D107F10807E2
:1024B000BD4680BD2DE9F0419EB004AF40F24843D7
:1024C000C2F200031D6840F28443C2F200031B689D
:1024D00018464FF00001C4F2C82101F057FA034634
:1024E000184601F019FC044640F28443C2F200038E
:1024F0005B6818464FF00001C4F2C82101F046FAAB
:102500000346184601F008FC804640F28443C2F2BC
:1025100000039B6818464FF00001C4F2C82101F087
:1025200035FA0346184601F0F7FB064640F24C43E5
:10253000C2F200031B6818464FF00001C4F2C82124
:1025400001F024FA0346184601F0E6FB024607F1C3
:102550000403CDF8008001960292184643F6885194
:10256000C0F600012A462346FEF754FF07F1040394
:102570001846FFF789FF07F16807BD46BDE8F081FF
:1025800080B582B000AF4FF48843C4F200031B88CB
:102590009BB203F02003002B00F0F0804FF488433F
:1025A000C4F200039B889BB2FB71FB7903F1FF33FC
:1025B000072B00F2E18001A252F823F0DD2500088C
:1025C000F7250008112600084D2600088926000876
:1025D000C5260008012700083D27000840F24843AF
:1025E000C2F200031B6803F1640240F24843C2F2E6
:1025F00000031A60C0E040F24843C2F200031B68C7
:10260000A3F1640240F24843C2F200031A60B3E04F
:1026100040F28443C2F200031B68184600F06AFDD2
:1026200002460B461046194657A3D3E9002300F093
:1026300003FC02460B461046194601F049F80246D3
:1026400040F28443C2F200031A6095E040F28443F2
:10265000C2F200031B68184600F04CFD02460B4610
:102660001046194648A3D3E9002300F0E3FB0246D5
:102670000B461046194601F02BF8024640F28443FF
:10268000C2F200031A6077E040F28443C2F2000312
:102690005B68184600F02EFD02460B4610461946B0
:1026A0003BA3D3E9002300F0C7FB02460B461046CC
:1026B000194601F00DF8024640F28443C2F20003CD
:1026C0005A6059E040F28443C2F200035B68184646
:1026D00000F010FD02460B46104619462CA3D3E924
:1026E000002300F0A7FB02460B461046194600F0F7
:1026F000EFFF024640F28443C2F200035A603BE01F
:1027000040F28443C2F200039B68184600F0F2FCDA
:1027100002460B46104619461FA3D3E9002300F0DA
:102720008BFB02460B461046194600F0D1FF0246CD
:1027300040F28443C2F200039A601DE040F28443F9
:10274000C2F200039B68184600F0D4FC02460B4618
:102750001046194610A3D3E9002300F06BFB024694
:102760000B461046194600F0B3FF024640F2844380
:10277000C2F200039A6000BFFFF79CFE07F1080752
:10278000BD4680BDAFF300809A9999999999B93F58
:102790007B14AE47E17A843FFCA9F1D24D62503FF1
:1027A0002DE9F84F4FF6FF7321F00046C4F20F43B6
:1027B0009E4288468A4681461BDD0020C7F6F0709F
:1027C00086424B4600F3BE8000F0B98042F2FB180F
:1027D000414642F61859CBF6F978C3F6F971C5F2BD
:1027E0004449BAF1000FC8BF884648464146BDE893
:1027F000F88F4FF6FF70C3F6DB70864200F3BC80A3
:102800004FF6FF71C3F61F618E4240F3A4804FF074
:10281000FF3B4A4643464846414600F0BFFC02465D
:102820000B4606460F4600F0B9FC9DA3D3E90023F2
:1028300004460D4600F0B2FC9BA3D3E9002300F050
:10284000FBFA22462B4600F0A9FC99A3D3E900230A
:1028500000F0F2FA22462B4600F0A0FC96A3D3E942
:10286000002300F0E9FA22462B4600F097FC94A3DF
:10287000D3E9002300F0E0FA22462B4600F08EFC5C
:1028800091A3D3E9002300F0D7FA32463B4600F08B
:1028900085FC8FA3D3E9002306460F462046294630
:1028A00000F07CFC8CA3D3E9002300F0C3FA22469D
:1028B0002B4600F073FC8AA3D3E9002300F0BAFA98
:1028C00022462B4600F06AFC87A3D3E9002300F0E0
:1028D000B1FA22462B4600F061FC85A3D3E9002320
:1028E00000F0A8FA22462B4600F058FCBBF1FF3F4F
:1028F00002460B466FD03046394600F09DFA4346FB
:102900004A4600F04BFC7E4C7E4A4FEACB0B5C44BF
:102910009344DBE9002300F08DFA43464A4600F079
:1029200089FA02460B46D4E9000100F083FABAF1B5
:10293000000F8146B4BF01F10048884655E7002BDF
:102940003FF444AF48464A464146434600F074FAD5
:102950008146884649E768A3D3E9002348464146B3
:1029600000F06AFA00230022C3F6F07300F0A6FE1E
:1029700000287FF43AAF4AE7484600F0C5F84FF622
:10298000FF72C3F6F272964204460D4636DC4FF6ED
:10299000FF73C3F6E5739E4264DC02460B4600F00B
:1029A0004BFA00230022C3F6F07300F043FA002232
:1029B00006460F464FF080432046294600F03CFA79
:1029C00002460B463046394600F012FD4FF0000B30
:1029D000814688461DE73046394600F02DFA4A46C2
:1029E000434600F0DBFB02460B464846414600F0FA
:1029F00021FA4C46454681468846F6E647F6FF777B
:102A0000C4F20307BE4220DC00230022C3F6F873A1
:102A100000F010FA002306460F460022C3F6F873B2
:102A20002046294600F0BAFB00230022C3F6F073CB
:102A300000F002FA02460B463046394600F0D8FC58
:102A40004FF0020B81468846E3E600210020CBF6DA
:102A5000F07122462B4600F0CBFC4FF0030B814671
:102A60008846D6E600230022C3F6F07300F0E2F9B0
:102A7000002306460F460022C3F6F073204629467F
:102A800000F0DAF902460B463046394600F0B0FC59
:102A90004FF0010B81468846BBE600BFAFF30080D4
:102AA00011DA22E33AAD903FEB0D76244B7BA93F40
:102AB000513DD0A0660DB13F6E204CC5CD45B73F0E
:102AC000FF8300922449C23F0D5555555555D53FBA
:102AD0002F6C6A2C44B4A2BF9AFDDE522DDEAD3FAE
:102AE0006D9A74AFF2B0B33F711623FEC671BC3F4E
:102AF000C4EB98999999C93F9C7500883CE4377E4E
:102B0000D83D0008B83D000821F00041704700BFE3
:102B10002DE9F0478AB004460D4600F04DF8DFF885
:102B200094A006469AF900300F4601330FD0204694
:102B3000294600F045F950B14FF000084FF0000968
:102B40002046294642464B4600F09AFD20B93046C1
:102B500039460AB0BDE8F08715499AF800600120AF
:102B60000022009001910892CDE90445CDE902458B
:102B700056B9CDE90689684600F056F970B1089B50
:102B80008BB9DDE90667E2E74046494642464B46D7
:102B900000F02EFC022ECDE90601ECD101F0E2F8A6
:102BA00021270760EBE701F0DDF8089E0660E8E703
:102BB000F83D0008440400202DE9F8430027B946F9
:102BC000C7F6F077C7F6F0790F404F4504460D463B
:102BD00002460B460E46804600F0D480002940F3A2
:102BE000AE800C1500F0B88026F07F45A4F2FF37C8
:102BF00025F47006FA0746F4801100F193804FEA3D
:102C0000D8734FF0000C03EB41037F104FEA4801EB
:102C1000162562464FF40010161844089E424FEAEB
:102C2000D17805F1FF354FEA410102DC32189B1BD8
:102C3000844408EB43031019984202DC1B1A021962
:102C4000A444CE0F60084900013D06EB4303E3D1E5
:102C50004FF020082C464FF0004015E000F08E8029
:102C6000CE0F06EB430340084900934208F1FF38BA
:102C700004EB00061EDC1BD0CE0F40084900B8F163
:102C8000010806EB43032DD0934204EB0006E5DD7B
:102C900006F00049B9F1004F06EB00043DD0914623
:102CA0009B1A8E4288BF013B891B2D184A46D7E7E5
:102CB0008E42E1D806F00049B9F1004F06EB00045E
:102CC00026D091468E42C2EB030300D9013B891BFB
:102CD000CE0F2D1849004008B8F101084A4606EB0E
:102CE0004303D1D1194324D14FEA55084FEA6C056B
:102CF00005F17F541CF0010F04F5001318BF48F0D4
:102D0000004803EB0755444620462946BDE8F883B2
:102D1000002CD6DB02F10109D4E7002CBFDB02F165
:102D20000109BDE74FEAD87202EB41014FEA4808BA
:102D300065E76B1C31D005F001025519D4E721F08D
:102D400000460643E0D079BB0C464FEAD826153C36
:102D50004FEA4858002EF8D016F4801320D17600A0
:102D60000133F102FBD5C3F10101C3F1200228FABE
:102D700002F0641808FA03F8064335E78E4287D953
:102D80001A466DE700F00AFA02460B46204629462D
:102D900000F052F804460D46B6E70CF1010CA5E729
:102DA000202201210023E2E702460B4600F042F810
:102DB00002460B4600F01CFB04460D46A4E700BF8C
:102DC0000B4661B1B1F1004F09D04FF6FF72A3F588
:102DD0008011C7F6DF72914205D8042070470028A1
:102DE000F3D10220704703F1FF4101F5E001914268
:102DF000F3D94FF6FF72C0F20F02934201D80320BD
:102E0000704703F100419142F9D90022C7F6F072F0
:102E1000934204D013F5801F01D000207047D0F1F9
:102E2000010038BF002070470020704781F000414A
:102E300002E000BF83F0004330B54FEA41044FEA9F
:102E4000430594EA050F08BF90EA020F1FBF54EA3A
:102E5000000C55EA020C7FEA645C7FEA655C00F0D6
:102E6000E2804FEA5454D4EB5555B8BF6D420CDDA7
:102E70002C4480EA020281EA030382EA000083EA2A
:102E8000010180EA020281EA0303362D88BF30BDCA
:102E900011F0004F4FEA01314FF4801C4CEA113120
:102EA00002D0404261EB410113F0004F4FEA03337F
:102EB0004CEA133302D0524263EB430394EA050F0A
:102EC00000F0A780A4F10104D5F1200E0DDB02FA79
:102ED0000EFC22FA05F2801841F1000103FA0EF20D
:102EE000801843FA05F359410EE0A5F120050EF1D3
:102EF000200E012A03FA0EFC28BF4CF0020C43FA04
:102F000005F3C01851EBE37101F0004507D54FF010
:102F1000000EDCF1000C7EEB00006EEB0101B1F560
:102F2000801F1BD3B1F5001F0CD349085FEA3000A6
:102F30004FEA3C0C04F101044FEA445212F5800FB1
:102F400080F09A80BCF1004F08BF5FEA500C50F14E
:102F5000000041EB045141EA050130BD5FEA4C0C31
:102F6000404141EB010111F4801FA4F10104E9D1BA
:102F700091F0000F04BF01460020B1FA81F308BFB1
:102F80002033A3F10B03B3F120020CDA0C3208DD7D
:102F900002F1140CC2F10C0201FA0CF021FA02F158
:102FA0000CE002F11402D8BFC2F1200C01FA02F1C8
:102FB00020FA0CFCDCBF41EA0C019040E41AA2BFED
:102FC00001EB0451294330BD6FEA04041F3C1CDAB5
:102FD0000C340EDC04F11404C4F1200220FA04F0D5
:102FE00001FA02F340EA030021FA04F345EA03017F
:102FF00030BDC4F10C04C4F1200220FA02F001FA41
:1030000004F340EA0300294630BD21FA04F02946C2
:1030100030BD94F0000F83F4801306BF81F480115B
:103020000134013D4EE77FEA645C18BF7FEA655CCE
:1030300029D094EA050F08BF90EA020F05D054EAA0
:10304000000C04BF1946104630BD91EA030F1EBFA5
:103050000021002030BD5FEA545C05D140004941A9
:1030600028BF41F0004130BD14F580043CBF01F59C
:10307000801130BD01F0004545F0FE4141F4700182
:103080004FF0000030BD7FEA645C1ABF194610465D
:103090007FEA655C1CBF0B46024650EA013406BF5E
:1030A00052EA033591EA030F41F4002130BD00BF1D
:1030B00090F0000F04BF0021704730B54FF48064DA
:1030C00004F132044FF000054FF0000150E700BF5B
:1030D00090F0000F04BF0021704730B54FF48064BA
:1030E00004F1320410F0004548BF40424FF00001A7
:1030F0003EE700BF42004FEAE2014FEA31014FEAEA
:1031000002701FBF12F07F4393F07F4F81F0605138
:10311000704792F0000F14BF93F07F4F704730B5A7
:103120004FF4607401F0004521F0004120E700BF3A
:1031300050EA010208BF704730B54FF000050AE0C1
:1031400050EA010208BF704730B511F0004502D5C2
:10315000404261EB41014FF4806404F132045FEAC4
:10316000915C3FF4DCAE4FF003025FEADC0C18BF69
:1031700003325FEADC0C18BF033202EBDC02C2F15F
:10318000200300FA03FC20FA02F001FA03FE40EAF1
:103190000E0021FA02F11444C1E600BF70B54FF0F1
:1031A000FF0C4CF4E06C1CEA11541DBF1CEA1355D3
:1031B00094EA0C0F95EA0C0F00F0DEF82C4481EA3B
:1031C000030621EA4C5123EA4C5350EA013518BF5B
:1031D00052EA033541F4801143F4801338D0A0FB48
:1031E00002CE4FF00005E1FB02E506F00042E0FBF5
:1031F00003E54FF00006E1FB03569CF0000F18BFFB
:103200004EF0010EA4F1FF04B6F5007F64F54074A2
:1032100004D25FEA4E0E6D4146EB060642EAC62135
:1032200041EA55514FEAC52040EA5E504FEACE2EA2
:10323000B4F1FD0C88BFBCF5E06F1ED8BEF1004FA5
:1032400008BF5FEA500E50F1000041EB045170BD21
:1032500006F0004646EA010140EA020081EA030165
:10326000B4EB5C04C2BFD4EB0C0541EA045170BD61
:1032700041F480114FF0000E013C00F3AB8014F1DB
:10328000360FDEBF002001F0004170BDC4F1000424
:10329000203C35DA0C341BDC04F11404C4F12005A5
:1032A00000FA05F320FA04F001FA05F240EA020000
:1032B00001F0004221F0004110EBD37021FA04F636
:1032C00042EB06015EEA430E08BF20EAD37070BDF0
:1032D000C4F10C04C4F1200500FA04F320FA05F04F
:1032E00001FA04F240EA020001F0004110EBD37051
:1032F00041F100015EEA430E08BF20EAD37070BDC1
:10330000C4F1200500FA05F24EEA020E20FA04F399
:1033100001FA05F243EA020321FA04F001F0004148
:1033200021FA04F220EA020000EBD3705EEA430EB9
:1033300008BF20EAD37070BD94F0000F0FD101F0E8
:103340000046400041EB010111F4801F08BF013C21
:10335000F7D041EA060195F0000F18BF704703F05F
:103360000046520043EB030313F4801F08BF013DE6
:10337000F7D043EA0603704794EA0C0F0CEA1355A2
:1033800018BF95EA0C0F0CD050EA410618BF52EA5C
:103390004306D1D181EA030101F000414FF0000062
:1033A00070BD50EA410606BF1046194652EA430670
:1033B00019D094EA0C0F02D150EA013613D195EAE4
:1033C0000C0F05D152EA03361CBF104619460AD12C
:1033D00081EA030101F0004141F0FE4141F4700136
:1033E0004FF0000070BD41F0FE4141F4780170BD26
:1033F00070B54FF0FF0C4CF4E06C1CEA11541DBF8B
:103400001CEA135594EA0C0F95EA0C0F00F0A7F88C
:10341000A4EB050481EA030E52EA03354FEA0131B9
:1034200000F088804FEA03334FF0805545EA1313CC
:1034300043EA12634FEA022245EA111545EA106594
:103440004FEA00260EF000419D4208BF964244F12B
:10345000FD0404F5407402D25B084FEA3202B61A4A
:1034600065EB03055B084FEA32024FF480104FF41E
:10347000002CB6EB020E75EB030E22BFB61A754692
:1034800040EA0C005B084FEA3202B6EB020E75EB25
:10349000030E22BFB61A754640EA5C005B084FEA8D
:1034A0003202B6EB020E75EB030E22BFB61A75465A
:1034B00040EA9C005B084FEA3202B6EB020E75EB65
:1034C000030E22BFB61A754640EADC0055EA060E26
:1034D00018D04FEA051545EA16754FEA06164FEA69
:1034E000C30343EA52734FEAC2025FEA1C1CC0D115
:1034F00011F4801F0BD141EA00014FF000004FF0A2
:10350000004CB6E711F4801F04BF01430020B4F162
:10351000FD0C88BFBCF5E06F3FF6AFAEB5EB030C1A
:1035200004BFB6EB020C5FEA500C50F1000041EB17
:10353000045170BD0EF0004E4EEA113114EB5C04E4
:10354000C2BFD4EB0C0541EA045170BD41F48011B7
:103550004FF0000E013C90E645EA060E8DE60CEABF
:10356000135594EA0C0F08BF95EA0C0F3FF43BAFDC
:1035700094EA0C0F0AD150EA01347FF434AF95EA93
:103580000C0F7FF425AF104619462CE795EA0C0F77
:1035900006D152EA03353FF4FDAE1046194622E744
:1035A00050EA410618BF52EA43067FF4C5AE50EA1E
:1035B00041047FF40DAF52EA43057FF4EBAE12E70E
:1035C0004FF0FF3C06E000BF4FF0010C02E000BFEF
:1035D0004FF0010C4DF804CD4FEA410C7FEA6C5CD2
:1035E0004FEA430C18BF7FEA6C5C1BD001B050EA75
:1035F000410C0CBF52EA430C91EA030F02BF90EA60
:10360000020F0020704710F1000F91EA030F58BF1E
:10361000994208BF90422CBFD8176FEAE37040F080
:10362000010070474FEA410C7FEA6C5C02D150EA1E
:10363000013C07D14FEA430C7FEA6C5CD6D152EAD9
:10364000033CD3D05DF8040B704700BF844610469E
:1036500062468C461946634600E000BF01B5FFF79D
:10366000B7FF002848BF10F1000F01BD4DF808ED6D
:10367000FFF7F4FF0CBF012000205DF808FB00BF3E
:103680004DF808EDFFF7EAFF34BF012000205DF898
:1036900008FB00BF4DF808EDFFF7E0FF94BF0120E5
:1036A00000205DF808FB00BF4DF808EDFFF7CEFFE6
:1036B00094BF012000205DF808FB00BF4DF808ED25
:1036C000FFF7C4FF34BF012000205DF808FB00BFF6
:1036D0004FEA4102B2F1E04324BFB3F5001CDCF134
:1036E000FE5C0DD901F0004C4FEAC0024CEA50706C
:1036F000B2F1004F40EB830008BF20F0010070479B
:1037000011F0804F21D113F13872BCBF01F000409D
:10371000704741F480114FEA5252C2F11802C2F1CF
:10372000200C10FA0CF320FA02F018BF40F0010050
:103730004FEAC1234FEAD32303FA0CFC40EA0C0002
:1037400023FA02F34FEA4303CCE77FEA625307D13F
:1037500050EA01331EBF4FF0FE4040F44000704776
:1037600001F0004040F0FE4040F40000704700BF10
:1037700080F0004002E000BF81F0004142001FBF26
:103780005FEA410392EA030F7FEA226C7FEA236C2F
:103790006AD04FEA1262D2EB1363C1BFD218414024
:1037A00048404140B8BF5B42192B88BF704710F0BA
:1037B000004F40F4000020F07F4018BF404211F05D
:1037C000004F41F4000121F07F4118BF494292EAC5
:1037D000030F3FD0A2F1010241FA03FC10EB0C00F1
:1037E000C3F1200301FA03F100F0004302D549427E
:1037F00060EB4000B0F5000F13D3B0F1807F06D32B
:1038000040084FEA310102F10102FE2A51D2B1F122
:10381000004F40EBC25008BF20F0010040EA030017
:103820007047490040EB000010F4000FA2F10102C4
:10383000EDD1B0FA80FCACF1080CB2EB0C0200FA4E
:103840000CF0AABF00EBC25052421843BCBFD0409C
:103850001843704792F0000F81F4000106BF80F416
:1038600000000132013BB5E74FEA41037FEA226CD9
:1038700018BF7FEA236C21D092EA030F04D092F0A4
:10388000000F08BF0846704790EA010F1CBF0020D8
:10389000704712F07F4F04D1400028BF40F0004035
:1038A000704712F100723CBF00F50000704700F055
:1038B000004343F0FE4040F4000070477FEA22627C
:1038C00016BF08467FEA23630146420206BF5FEA4D
:1038D000412390EA010F40F4800070474FF000034D
:1038E00004E000BF10F0004348BF40425FEA000C14
:1038F00008BF704743F0964301464FF000001CE0BC
:1039000050EA010208BF70474FF000030AE000BF11
:1039100050EA010208BF704711F0004302D540424F
:1039200061EB41015FEA010C02BF844601460020C1
:1039300043F0B64308BFA3F18053A3F50003BCFADC
:103940008CF2083AA3EBC25310DB01FA02FC634489
:1039500000FA02FCC2F12002BCF1004F20FA02F290
:1039600043EB020008BF20F00100704702F1200283
:1039700001FA02FCC2F1200250EA4C0021FA02F2E4
:1039800043EB020008BF20EADC7070474FF0FF0CE9
:103990001CEAD0521EBF1CEAD15392EA0C0F93EAE4
:1039A0000C0F6FD01A4480EA010C400218BF5FEA86
:1039B00041211ED04FF0006343EA501043EA5111F9
:1039C000A0FB01310CF00040B1F5000F3EBF4900F3
:1039D00041EAD3715B0040EA010062F17F02FD2AF7
:1039E0001DD8B3F1004F40EBC25008BF20F00100DA
:1039F000704790F0000F0CF0004C08BF49024CEAF1
:103A0000502040EA51207F3AC2BFD2F1FF0340EA82
:103A1000C250704740F400004FF00003013A5DDCF3
:103A200012F1190FDCBF00F000407047C2F1000234
:103A3000410021FA02F1C2F1200200FA02FC5FEA21
:103A4000310040F1000053EA4C0308BF20EADC706B
:103A5000704792F0000F00F0004C02BF400010F4DD
:103A6000000F013AF9D040EA0C0093F0000F01F08A
:103A7000004C02BF490011F4000F013BF9D041EAAC
:103A80000C018FE70CEAD15392EA0C0F18BF93EAAE
:103A90000C0F0AD030F0004C18BF31F0004CD8D1D8
:103AA00080EA010000F00040704790F0000F17BF5F
:103AB00090F0004F084691F0000F91F0004F14D0A5
:103AC00092EA0C0F01D142020FD193EA0C0F03D1FD
:103AD0004B0218BF084608D180EA010000F0004000
:103AE00040F0FE4040F40000704740F0FE4040F4DB
:103AF000400070474FF0FF0C1CEAD0521EBF1CEA7A
:103B0000D15392EA0C0F93EA0C0F69D0A2EB030297
:103B100080EA010C49024FEA402037D04FF0805331
:103B200043EA111143EA10130CF000408B4238BFF6
:103B30005B0042F17D024FF4000C8B4224BF5B1A04
:103B400040EA0C00B3EB510F24BFA3EB510340EA52
:103B50005C00B3EB910F24BFA3EB910340EA9C0000
:103B6000B3EBD10F24BFA3EBD10340EADC001B0170
:103B700018BF5FEA1C1CE0D1FD2A3FF650AF8B4214
:103B800040EBC25008BF20F0010070470CF0004C21
:103B90004CEA50207F32C2BFD2F1FF0340EAC2504C
:103BA000704740F400004FF00003013A37E792F00D
:103BB000000F00F0004C02BF400010F4000F013A6B
:103BC000F9D040EA0C0093F0000F01F0004C02BF66
:103BD000490011F4000F013BF9D041EA0C0195E7CF
:103BE0000CEAD15392EA0C0F08D142027FF47DAF68
:103BF00093EA0C0F7FF470AF084676E793EA0C0F58
:103C000004D14B023FF44CAF08466EE730F0004C55
:103C100018BF31F0004CCAD130F000427FF45CAFE5
:103C200031F000437FF43CAF5FE700BF4FF0FF3C53
:103C300006E000BF4FF0010C02E000BF4FF0010CA6
:103C40004DF804CD4FEA40024FEA41037FEA226C6F
:103C500018BF7FEA236C11D001B052EA530C18BF91
:103C600090EA010F58BFB2EB030088BFC81738BFF6
:103C70006FEAE17018BF40F0010070477FEA226CE4
:103C800002D15FEA402C05D17FEA236CE4D15FEAE0
:103C9000412CE1D05DF8040B704700BF8446084614
:103CA0006146FFE70FB5FFF7C9FF002848BF10F1D5
:103CB000000F0FBD4DF808EDFFF7F4FF0CBF01201A
:103CC00000205DF808FB00BF4DF808EDFFF7EAFFA4
:103CD00034BF012000205DF808FB00BF4DF808ED5F
:103CE000FFF7E0FF94BF012000205DF808FB00BF54
:103CF0004DF808EDFFF7D2FF94BF012000205DF8DA
:103D000008FB00BF4DF808EDFFF7C8FF34BF0120E6
:103D100000205DF808FB00BF4FEA4002B2F1FE4F01
:103D20000FD34FF09E03B3EB12620DD94FEA00237D
:103D300043F0004310F0004F23FA02F018BF404256
:103D400070474FF00000704712F1610F01D142023D
:103D500005D110F0004008BF6FF0004070474FF0F1
:103D60000000704740F22843C2F200031868704711
:103D700051756164726F2073746172746564210D92
:103D80000A00000025640000506F7765723A202514
:103D90006420503A20256420493A20256420443A82
:103DA00020256420416E676C653A202564200D0A49
:103DB0000000000000000000E2652F227F2B7A3C0B
:103DC000075C143326A6813CBDCBF07A8807703C93
:103DD000075C143326A6913C4FBB610567ACDD3F01
:103DE000182D4454FB21E93F9BF681D20B73EF3F22
:103DF000182D4454FB21F93F7371727400000000C8
:103E000000000000000000000100000000000000B1
:103E100000000000000000000000000000000000A2
:103E20000000000000000000000000000000000092
:103E30000000000000000000000000000000000082
:103E40000000000000000000000000000000000072
:10422000000000000000000000000020000000006E
:104230003F04000084012142B081214284012242D6
:08424000880122420100000088
:0400000508000000EF
:00000001FF
